{
  "contractName": "Tradingbot",
  "abi": [
    {
      "inputs": [],
      "stateMutability": "nonpayable",
      "type": "constructor"
    },
    {
      "inputs": [],
      "name": "DAI",
      "outputs": [
        {
          "internalType": "address",
          "name": "",
          "type": "address"
        }
      ],
      "stateMutability": "view",
      "type": "function",
      "constant": true
    },
    {
      "inputs": [],
      "name": "SwapRouter",
      "outputs": [
        {
          "internalType": "contract ISwapRouter",
          "name": "",
          "type": "address"
        }
      ],
      "stateMutability": "view",
      "type": "function",
      "constant": true
    },
    {
      "inputs": [],
      "name": "SwapV3Factory",
      "outputs": [
        {
          "internalType": "contract IUniswapV3Factory",
          "name": "",
          "type": "address"
        }
      ],
      "stateMutability": "view",
      "type": "function",
      "constant": true
    },
    {
      "inputs": [],
      "name": "WETH",
      "outputs": [
        {
          "internalType": "address",
          "name": "",
          "type": "address"
        }
      ],
      "stateMutability": "view",
      "type": "function",
      "constant": true
    },
    {
      "inputs": [
        {
          "internalType": "uint256",
          "name": "",
          "type": "uint256"
        }
      ],
      "name": "assets",
      "outputs": [
        {
          "internalType": "uint256",
          "name": "id",
          "type": "uint256"
        },
        {
          "internalType": "string",
          "name": "sticker",
          "type": "string"
        },
        {
          "internalType": "address",
          "name": "tokenAddress",
          "type": "address"
        },
        {
          "internalType": "uint256",
          "name": "lastPrice",
          "type": "uint256"
        },
        {
          "internalType": "uint256",
          "name": "availableFunds",
          "type": "uint256"
        }
      ],
      "stateMutability": "view",
      "type": "function",
      "constant": true
    },
    {
      "inputs": [],
      "name": "contributionEnd",
      "outputs": [
        {
          "internalType": "uint256",
          "name": "",
          "type": "uint256"
        }
      ],
      "stateMutability": "view",
      "type": "function",
      "constant": true
    },
    {
      "inputs": [],
      "name": "currentState",
      "outputs": [
        {
          "internalType": "enum Tradingbot.State",
          "name": "",
          "type": "uint8"
        }
      ],
      "stateMutability": "view",
      "type": "function",
      "constant": true
    },
    {
      "inputs": [
        {
          "internalType": "uint256",
          "name": "",
          "type": "uint256"
        }
      ],
      "name": "investors",
      "outputs": [
        {
          "internalType": "address",
          "name": "",
          "type": "address"
        }
      ],
      "stateMutability": "view",
      "type": "function",
      "constant": true
    },
    {
      "inputs": [],
      "name": "minAmount",
      "outputs": [
        {
          "internalType": "uint256",
          "name": "",
          "type": "uint256"
        }
      ],
      "stateMutability": "view",
      "type": "function",
      "constant": true
    },
    {
      "inputs": [],
      "name": "nextAssetId",
      "outputs": [
        {
          "internalType": "uint256",
          "name": "",
          "type": "uint256"
        }
      ],
      "stateMutability": "view",
      "type": "function",
      "constant": true
    },
    {
      "inputs": [],
      "name": "nextInvestorId",
      "outputs": [
        {
          "internalType": "uint256",
          "name": "",
          "type": "uint256"
        }
      ],
      "stateMutability": "view",
      "type": "function",
      "constant": true
    },
    {
      "inputs": [],
      "name": "owner",
      "outputs": [
        {
          "internalType": "address",
          "name": "",
          "type": "address"
        }
      ],
      "stateMutability": "view",
      "type": "function",
      "constant": true
    },
    {
      "inputs": [],
      "name": "poolFee_1",
      "outputs": [
        {
          "internalType": "uint24",
          "name": "",
          "type": "uint24"
        }
      ],
      "stateMutability": "view",
      "type": "function",
      "constant": true
    },
    {
      "inputs": [],
      "name": "poolFee_2",
      "outputs": [
        {
          "internalType": "uint24",
          "name": "",
          "type": "uint24"
        }
      ],
      "stateMutability": "view",
      "type": "function",
      "constant": true
    },
    {
      "inputs": [],
      "name": "poolFee_3",
      "outputs": [
        {
          "internalType": "uint24",
          "name": "",
          "type": "uint24"
        }
      ],
      "stateMutability": "view",
      "type": "function",
      "constant": true
    },
    {
      "inputs": [
        {
          "internalType": "address",
          "name": "",
          "type": "address"
        }
      ],
      "name": "shares",
      "outputs": [
        {
          "internalType": "uint256",
          "name": "",
          "type": "uint256"
        }
      ],
      "stateMutability": "view",
      "type": "function",
      "constant": true
    },
    {
      "inputs": [],
      "name": "totalShares",
      "outputs": [
        {
          "internalType": "uint256",
          "name": "",
          "type": "uint256"
        }
      ],
      "stateMutability": "view",
      "type": "function",
      "constant": true
    },
    {
      "stateMutability": "payable",
      "type": "receive",
      "payable": true
    },
    {
      "inputs": [
        {
          "internalType": "uint256",
          "name": "_minAmount",
          "type": "uint256"
        },
        {
          "internalType": "uint256",
          "name": "duration",
          "type": "uint256"
        }
      ],
      "name": "initialize",
      "outputs": [],
      "stateMutability": "nonpayable",
      "type": "function"
    },
    {
      "inputs": [],
      "name": "contribute",
      "outputs": [],
      "stateMutability": "payable",
      "type": "function",
      "payable": true
    },
    {
      "inputs": [],
      "name": "cancelTradingbot",
      "outputs": [],
      "stateMutability": "nonpayable",
      "type": "function"
    },
    {
      "inputs": [
        {
          "internalType": "address",
          "name": "_tokenAddress",
          "type": "address"
        },
        {
          "internalType": "uint256",
          "name": "_value",
          "type": "uint256"
        }
      ],
      "name": "initialAssetBuy",
      "outputs": [],
      "stateMutability": "nonpayable",
      "type": "function"
    },
    {
      "inputs": [
        {
          "internalType": "uint256",
          "name": "_assetId",
          "type": "uint256"
        },
        {
          "internalType": "uint256",
          "name": "predPrice",
          "type": "uint256"
        },
        {
          "internalType": "uint256",
          "name": "tuner",
          "type": "uint256"
        }
      ],
      "name": "sellToken",
      "outputs": [
        {
          "internalType": "bool",
          "name": "_trade",
          "type": "bool"
        }
      ],
      "stateMutability": "nonpayable",
      "type": "function"
    },
    {
      "inputs": [
        {
          "internalType": "uint256",
          "name": "_assetId",
          "type": "uint256"
        },
        {
          "internalType": "uint256",
          "name": "predPrice",
          "type": "uint256"
        },
        {
          "internalType": "uint256",
          "name": "tuner",
          "type": "uint256"
        }
      ],
      "name": "buyToken",
      "outputs": [
        {
          "internalType": "bool",
          "name": "_trade",
          "type": "bool"
        }
      ],
      "stateMutability": "nonpayable",
      "type": "function"
    },
    {
      "inputs": [],
      "name": "liquidatePortfolio",
      "outputs": [],
      "stateMutability": "payable",
      "type": "function",
      "payable": true
    },
    {
      "inputs": [],
      "name": "getBalance",
      "outputs": [
        {
          "internalType": "uint256",
          "name": "",
          "type": "uint256"
        }
      ],
      "stateMutability": "view",
      "type": "function",
      "constant": true
    },
    {
      "inputs": [
        {
          "internalType": "address",
          "name": "tokenAddress",
          "type": "address"
        }
      ],
      "name": "getTokenBalance",
      "outputs": [
        {
          "internalType": "uint256",
          "name": "tokenBalance",
          "type": "uint256"
        }
      ],
      "stateMutability": "view",
      "type": "function",
      "constant": true
    },
    {
      "inputs": [
        {
          "internalType": "address",
          "name": "tokenAddress",
          "type": "address"
        }
      ],
      "name": "getTokenSticker",
      "outputs": [
        {
          "internalType": "string",
          "name": "_sticker",
          "type": "string"
        }
      ],
      "stateMutability": "view",
      "type": "function",
      "constant": true
    },
    {
      "inputs": [
        {
          "internalType": "address",
          "name": "_tokenIn",
          "type": "address"
        },
        {
          "internalType": "address",
          "name": "_tokenOut",
          "type": "address"
        }
      ],
      "name": "_uniswapV3PoolExists",
      "outputs": [
        {
          "internalType": "bool",
          "name": "pool_existence",
          "type": "bool"
        },
        {
          "internalType": "uint24",
          "name": "_poolFee",
          "type": "uint24"
        }
      ],
      "stateMutability": "view",
      "type": "function",
      "constant": true
    },
    {
      "inputs": [],
      "name": "_refundInvestors",
      "outputs": [],
      "stateMutability": "payable",
      "type": "function",
      "payable": true
    },
    {
      "inputs": [],
      "name": "_reset",
      "outputs": [],
      "stateMutability": "nonpayable",
      "type": "function"
    }
  ],
  "bytecode": "0x60c0604052731f98431c8ad98523631ae4a59f267346ea31f98473ffffffffffffffffffffffffffffffffffffffff1660809073ffffffffffffffffffffffffffffffffffffffff1660601b81525073e592427a0aece92de3edee1f18e0157c0586156473ffffffffffffffffffffffffffffffffffffffff1660a09073ffffffffffffffffffffffffffffffffffffffff1660601b8152506101f4600960006101000a81548162ffffff021916908362ffffff160217905550610bb8600960036101000a81548162ffffff021916908362ffffff160217905550612710600960066101000a81548162ffffff021916908362ffffff16021790555034801561010757600080fd5b5033600060016101000a81548173ffffffffffffffffffffffffffffffffffffffff021916908373ffffffffffffffffffffffffffffffffffffffff16021790555060805160601c60a05160601c6145c46101d660003960008181610ce201528181610d7601528181610f6d015281816112e20152818161137601528181611bc001528181611c5201528181611f5d01528181611fef01528181612a2201528181612f640152612ff80152600081816115a2015281816116b0015281816117be01526123e201526145c46000f3fe6080604052600436106101d15760003560e01c80638ed91318116100f7578063be57ed1e11610095578063d7bb99ba11610064578063d7bb99ba14610652578063de2d554b1461065c578063e0bab4c414610699578063e4a30116146106c4576101d8565b8063be57ed1e14610592578063ce7c2ac2146105a9578063cf35bdd0146105e6578063d151b51614610627576101d8565b8063a8900792116100d1578063a8900792146104e6578063ad5c464814610511578063b1f0af4e1461053c578063b4f671df14610567576101d8565b80638ed91318146104535780639b2cb5d81461047e578063a32fad2d146104a9576101d8565b8063422298291161016f578063584edf101161013e578063584edf10146103e95780637c84f91f146103f35780638195abc8146103fd5780638da5cb5b14610428576101d8565b8063422298291461032c5780634dc32eff146103575780634e11e5901461038257806350c92903146103ab576101d8565b80631f181d57116101ab5780631f181d571461024a5780633a98ef39146102875780633aecd0e3146102b25780633feb5f2b146102ef576101d8565b80630c3f6acf146101dd57806312065fe0146102085780631592f0ab14610233576101d8565b366101d857005b600080fd5b3480156101e957600080fd5b506101f26106ed565b6040516101ff9190613e4c565b60405180910390f35b34801561021457600080fd5b5061021d6106fe565b60405161022a91906140c0565b60405180910390f35b34801561023f57600080fd5b50610248610706565b005b34801561025657600080fd5b50610271600480360381019061026c9190613658565b6108c3565b60405161027e9190613dd2565b60405180910390f35b34801561029357600080fd5b5061029c610e8b565b6040516102a991906140c0565b60405180910390f35b3480156102be57600080fd5b506102d960048036038101906102d49190613496565b610e91565b6040516102e691906140c0565b60405180910390f35b3480156102fb57600080fd5b50610316600480360381019061031191906135ca565b610f23565b6040516103239190613d57565b60405180910390f35b34801561033857600080fd5b50610341610f56565b60405161034e91906140a5565b60405180910390f35b34801561036357600080fd5b5061036c610f6b565b6040516103799190613e16565b60405180910390f35b34801561038e57600080fd5b506103a960048036038101906103a49190613524565b610f8f565b005b3480156103b757600080fd5b506103d260048036038101906103cd91906134e8565b611585565b6040516103e0929190613ded565b60405180910390f35b6103f16118b7565b005b6103fb611d61565b005b34801561040957600080fd5b506104126123e0565b60405161041f9190613e31565b60405180910390f35b34801561043457600080fd5b5061043d612404565b60405161044a9190613d57565b60405180910390f35b34801561045f57600080fd5b5061046861242a565b60405161047591906140c0565b60405180910390f35b34801561048a57600080fd5b50610493612430565b6040516104a091906140c0565b60405180910390f35b3480156104b557600080fd5b506104d060048036038101906104cb9190613496565b612436565b6040516104dd9190613e67565b60405180910390f35b3480156104f257600080fd5b506104fb6124c2565b60405161050891906140c0565b60405180910390f35b34801561051d57600080fd5b506105266124c8565b6040516105339190613d57565b60405180910390f35b34801561054857600080fd5b506105516124e0565b60405161055e91906140a5565b60405180910390f35b34801561057357600080fd5b5061057c6124f5565b60405161058991906140a5565b60405180910390f35b34801561059e57600080fd5b506105a761250a565b005b3480156105b557600080fd5b506105d060048036038101906105cb9190613496565b61266c565b6040516105dd91906140c0565b60405180910390f35b3480156105f257600080fd5b5061060d600480360381019061060891906135ca565b612684565b60405161061e9594939291906140db565b60405180910390f35b34801561063357600080fd5b5061063c612762565b60405161064991906140c0565b60405180910390f35b61065a612768565b005b34801561066857600080fd5b50610683600480360381019061067e9190613658565b612bb7565b6040516106909190613dd2565b60405180910390f35b3480156106a557600080fd5b506106ae61310d565b6040516106bb9190613d57565b60405180910390f35b3480156106d057600080fd5b506106eb60048036038101906106e6919061361c565b613125565b005b60008054906101000a900460ff1681565b600047905090565b60005b6004548110156107d257600260006001600084815260200190815260200160002060009054906101000a900473ffffffffffffffffffffffffffffffffffffffff1673ffffffffffffffffffffffffffffffffffffffff1673ffffffffffffffffffffffffffffffffffffffff168152602001908152602001600020600090556001600082815260200190815260200160002060006101000a81549073ffffffffffffffffffffffffffffffffffffffff021916905580806107ca906143f0565b915050610709565b5060005b600554811015610858576003600082815260200190815260200160002060008082016000905560018201600061080c91906132e2565b6002820160006101000a81549073ffffffffffffffffffffffffffffffffffffffff02191690556003820160009055600482016000905550508080610850906143f0565b9150506107d6565b5060006004819055506000600581905550600060068190555060008060006101000a81548160ff021916908360028111156108bc577f4e487b7100000000000000000000000000000000000000000000000000000000600052602160045260246000fd5b0217905550565b60008060019054906101000a900473ffffffffffffffffffffffffffffffffffffffff1673ffffffffffffffffffffffffffffffffffffffff163373ffffffffffffffffffffffffffffffffffffffff1614610954576040517f08c379a000000000000000000000000000000000000000000000000000000000815260040161094b90613ee9565b60405180910390fd5b60028081111561098d577f4e487b7100000000000000000000000000000000000000000000000000000000600052602160045260246000fd5b60008054906101000a900460ff1660028111156109d3577f4e487b7100000000000000000000000000000000000000000000000000000000600052602160045260246000fd5b14610a13576040517f08c379a0000000000000000000000000000000000000000000000000000000008152600401610a0a90613fe9565b60405180910390fd5b6000610a546003600087815260200190815260200160002060020160009054906101000a900473ffffffffffffffffffffffffffffffffffffffff16610e91565b11610a94576040517f08c379a0000000000000000000000000000000000000000000000000000000008152600401610a8b90613ec9565b60405180910390fd5b600080610aeb6003600088815260200190815260200160002060020160009054906101000a900473ffffffffffffffffffffffffffffffffffffffff16735592ec0cfb4dbc12d3ab100b257153436a1f0fea611585565b9150915081610b2f576040517f08c379a0000000000000000000000000000000000000000000000000000000008152600401610b2690613f49565b60405180910390fd5b836003600088815260200190815260200160002060030154610b519190614293565b851015610e82576000610b996003600089815260200190815260200160002060020160009054906101000a900473ffffffffffffffffffffffffffffffffffffffff16610e91565b90506000604051806101000160405280600360008b815260200190815260200160002060020160009054906101000a900473ffffffffffffffffffffffffffffffffffffffff1673ffffffffffffffffffffffffffffffffffffffff168152602001735592ec0cfb4dbc12d3ab100b257153436a1f0fea73ffffffffffffffffffffffffffffffffffffffff1681526020018462ffffff1681526020013073ffffffffffffffffffffffffffffffffffffffff168152602001600f42610c5f91906141b2565b815260200183815260200160018152602001600073ffffffffffffffffffffffffffffffffffffffff1681525090506003600089815260200190815260200160002060020160009054906101000a900473ffffffffffffffffffffffffffffffffffffffff1673ffffffffffffffffffffffffffffffffffffffff1663095ea7b37f0000000000000000000000000000000000000000000000000000000000000000846040518363ffffffff1660e01b8152600401610d1f929190613da9565b602060405180830381600087803b158015610d3957600080fd5b505af1158015610d4d573d6000803e3d6000fd5b505050506040513d601f19601f82011682018060405250810190610d719190613560565b5060007f000000000000000000000000000000000000000000000000000000000000000073ffffffffffffffffffffffffffffffffffffffff1663414bf389836040518263ffffffff1660e01b8152600401610dcd9190614089565b602060405180830381600087803b158015610de757600080fd5b505af1158015610dfb573d6000803e3d6000fd5b505050506040513d601f19601f82011682018060405250810190610e1f91906135f3565b905080600360008b81526020019081526020016000206004016000828254610e4791906141b2565b9250508190555060008382610e5c9190614208565b905080600360008c81526020019081526020016000206003018190555060019650505050505b50509392505050565b60065481565b60008173ffffffffffffffffffffffffffffffffffffffff166370a08231306040518263ffffffff1660e01b8152600401610ecc9190613d57565b60206040518083038186803b158015610ee457600080fd5b505afa158015610ef8573d6000803e3d6000fd5b505050506040513d601f19601f82011682018060405250810190610f1c91906135f3565b9050919050565b60016020528060005260406000206000915054906101000a900473ffffffffffffffffffffffffffffffffffffffff1681565b600960039054906101000a900462ffffff1681565b7f000000000000000000000000000000000000000000000000000000000000000081565b600060019054906101000a900473ffffffffffffffffffffffffffffffffffffffff1673ffffffffffffffffffffffffffffffffffffffff163373ffffffffffffffffffffffffffffffffffffffff161461101f576040517f08c379a000000000000000000000000000000000000000000000000000000000815260040161101690613ee9565b60405180910390fd5b600854421015611064576040517f08c379a000000000000000000000000000000000000000000000000000000000815260040161105b90613f69565b60405180910390fd5b6000611083735592ec0cfb4dbc12d3ab100b257153436a1f0fea610e91565b116110c3576040517f08c379a00000000000000000000000000000000000000000000000000000000081526004016110ba90613f09565b60405180910390fd5b60008111611106576040517f08c379a00000000000000000000000000000000000000000000000000000000081526004016110fd90614029565b60405180910390fd5b735592ec0cfb4dbc12d3ab100b257153436a1f0fea73ffffffffffffffffffffffffffffffffffffffff168273ffffffffffffffffffffffffffffffffffffffff161415611189576040517f08c379a000000000000000000000000000000000000000000000000000000000815260040161118090613f89565b60405180910390fd5b6000806111aa735592ec0cfb4dbc12d3ab100b257153436a1f0fea85611585565b91509150816111ee576040517f08c379a00000000000000000000000000000000000000000000000000000000081526004016111e590613f49565b60405180910390fd5b60008390506000604051806101000160405280735592ec0cfb4dbc12d3ab100b257153436a1f0fea73ffffffffffffffffffffffffffffffffffffffff1681526020018773ffffffffffffffffffffffffffffffffffffffff1681526020018462ffffff1681526020013073ffffffffffffffffffffffffffffffffffffffff168152602001603c4261128191906141b2565b815260200183815260200160018152602001600073ffffffffffffffffffffffffffffffffffffffff168152509050735592ec0cfb4dbc12d3ab100b257153436a1f0fea73ffffffffffffffffffffffffffffffffffffffff1663095ea7b37f0000000000000000000000000000000000000000000000000000000000000000846040518363ffffffff1660e01b815260040161131f929190613da9565b602060405180830381600087803b15801561133957600080fd5b505af115801561134d573d6000803e3d6000fd5b505050506040513d601f19601f820116820180604052508101906113719190613560565b5060007f000000000000000000000000000000000000000000000000000000000000000073ffffffffffffffffffffffffffffffffffffffff1663414bf389836040518263ffffffff1660e01b81526004016113cd9190614089565b602060405180830381600087803b1580156113e757600080fd5b505af11580156113fb573d6000803e3d6000fd5b505050506040513d601f19601f8201168201806040525081019061141f91906135f3565b90506000818461142f9190614208565b90506040518060a00160405280600554815260200161144d8a612436565b81526020018973ffffffffffffffffffffffffffffffffffffffff16815260200182815260200160008152506003600060055481526020019081526020016000206000820151816000015560208201518160010190805190602001906114b4929190613322565b5060408201518160020160006101000a81548173ffffffffffffffffffffffffffffffffffffffff021916908373ffffffffffffffffffffffffffffffffffffffff160217905550606082015181600301556080820151816004015590505060056000815480929190611526906143f0565b919050555060026000806101000a81548160ff02191690836002811115611576577f4e487b7100000000000000000000000000000000000000000000000000000000600052602160045260246000fd5b02179055505050505050505050565b600080600073ffffffffffffffffffffffffffffffffffffffff167f000000000000000000000000000000000000000000000000000000000000000073ffffffffffffffffffffffffffffffffffffffff16631698ee828686600960009054906101000a900462ffffff166040518463ffffffff1660e01b815260040161160e93929190613d72565b60206040518083038186803b15801561162657600080fd5b505afa15801561163a573d6000803e3d6000fd5b505050506040513d601f19601f8201168201806040525081019061165e91906134bf565b73ffffffffffffffffffffffffffffffffffffffff161461169657600960009054906101000a900462ffffff169050600191506118b0565b600073ffffffffffffffffffffffffffffffffffffffff167f000000000000000000000000000000000000000000000000000000000000000073ffffffffffffffffffffffffffffffffffffffff16631698ee828686600960039054906101000a900462ffffff166040518463ffffffff1660e01b815260040161171c93929190613d72565b60206040518083038186803b15801561173457600080fd5b505afa158015611748573d6000803e3d6000fd5b505050506040513d601f19601f8201168201806040525081019061176c91906134bf565b73ffffffffffffffffffffffffffffffffffffffff16146117a457600960039054906101000a900462ffffff169050600191506118af565b600073ffffffffffffffffffffffffffffffffffffffff167f000000000000000000000000000000000000000000000000000000000000000073ffffffffffffffffffffffffffffffffffffffff16631698ee828686600960069054906101000a900462ffffff166040518463ffffffff1660e01b815260040161182a93929190613d72565b60206040518083038186803b15801561184257600080fd5b505afa158015611856573d6000803e3d6000fd5b505050506040513d601f19601f8201168201806040525081019061187a91906134bf565b73ffffffffffffffffffffffffffffffffffffffff16146118ae57600960069054906101000a900462ffffff169050600191505b5b5b9250929050565b600060019054906101000a900473ffffffffffffffffffffffffffffffffffffffff1673ffffffffffffffffffffffffffffffffffffffff163373ffffffffffffffffffffffffffffffffffffffff1614611947576040517f08c379a000000000000000000000000000000000000000000000000000000000815260040161193e90613ee9565b60405180910390fd5b60005b600554811015611d4e5760006119956003600084815260200190815260200160002060020160009054906101000a900473ffffffffffffffffffffffffffffffffffffffff16610e91565b1115611d3b576000806119f26003600085815260200190815260200160002060020160009054906101000a900473ffffffffffffffffffffffffffffffffffffffff16735592ec0cfb4dbc12d3ab100b257153436a1f0fea611585565b9150915081611a36576040517f08c379a0000000000000000000000000000000000000000000000000000000008152600401611a2d90613f49565b60405180910390fd5b6000611a776003600086815260200190815260200160002060020160009054906101000a900473ffffffffffffffffffffffffffffffffffffffff16610e91565b905060006040518061010001604052806003600088815260200190815260200160002060020160009054906101000a900473ffffffffffffffffffffffffffffffffffffffff1673ffffffffffffffffffffffffffffffffffffffff168152602001735592ec0cfb4dbc12d3ab100b257153436a1f0fea73ffffffffffffffffffffffffffffffffffffffff1681526020018462ffffff1681526020013073ffffffffffffffffffffffffffffffffffffffff168152602001600f42611b3d91906141b2565b815260200183815260200160018152602001600073ffffffffffffffffffffffffffffffffffffffff1681525090506003600086815260200190815260200160002060020160009054906101000a900473ffffffffffffffffffffffffffffffffffffffff1673ffffffffffffffffffffffffffffffffffffffff1663095ea7b37f0000000000000000000000000000000000000000000000000000000000000000846040518363ffffffff1660e01b8152600401611bfd929190613da9565b602060405180830381600087803b158015611c1757600080fd5b505af1158015611c2b573d6000803e3d6000fd5b505050506040513d601f19601f82011682018060405250810190611c4f9190613560565b507f000000000000000000000000000000000000000000000000000000000000000073ffffffffffffffffffffffffffffffffffffffff1663414bf389826040518263ffffffff1660e01b8152600401611ca99190614089565b602060405180830381600087803b158015611cc357600080fd5b505af1158015611cd7573d6000803e3d6000fd5b505050506040513d601f19601f82011682018060405250810190611cfb91906135f3565b5060006003600087815260200190815260200160002060040181905550600080600360008881526020019081526020016000206003018190555050505050505b8080611d46906143f0565b91505061194a565b50611d57611d61565b611d5f610706565b565b6000611d80735592ec0cfb4dbc12d3ab100b257153436a1f0fea610e91565b11611dc0576040517f08c379a0000000000000000000000000000000000000000000000000000000008152600401611db790614049565b60405180910390fd5b600080611df5735592ec0cfb4dbc12d3ab100b257153436a1f0fea73c778417e063141139fce010982780140aa0cd5ab611585565b9150915081611e39576040517f08c379a0000000000000000000000000000000000000000000000000000000008152600401611e3090613f49565b60405180910390fd5b6000611e58735592ec0cfb4dbc12d3ab100b257153436a1f0fea610e91565b90506000604051806101000160405280735592ec0cfb4dbc12d3ab100b257153436a1f0fea73ffffffffffffffffffffffffffffffffffffffff16815260200173c778417e063141139fce010982780140aa0cd5ab73ffffffffffffffffffffffffffffffffffffffff1681526020018462ffffff1681526020013073ffffffffffffffffffffffffffffffffffffffff168152602001600f42611efc91906141b2565b815260200183815260200160018152602001600073ffffffffffffffffffffffffffffffffffffffff168152509050735592ec0cfb4dbc12d3ab100b257153436a1f0fea73ffffffffffffffffffffffffffffffffffffffff1663095ea7b37f0000000000000000000000000000000000000000000000000000000000000000846040518363ffffffff1660e01b8152600401611f9a929190613da9565b602060405180830381600087803b158015611fb457600080fd5b505af1158015611fc8573d6000803e3d6000fd5b505050506040513d601f19601f82011682018060405250810190611fec9190613560565b507f000000000000000000000000000000000000000000000000000000000000000073ffffffffffffffffffffffffffffffffffffffff1663414bf389826040518263ffffffff1660e01b81526004016120469190614089565b602060405180830381600087803b15801561206057600080fd5b505af1158015612074573d6000803e3d6000fd5b505050506040513d601f19601f8201168201806040525081019061209891906135f3565b50600073c778417e063141139fce010982780140aa0cd5ab73ffffffffffffffffffffffffffffffffffffffff166370a08231306040518263ffffffff1660e01b81526004016120e89190613d57565b60206040518083038186803b15801561210057600080fd5b505afa158015612114573d6000803e3d6000fd5b505050506040513d601f19601f8201168201806040525081019061213891906135f3565b905073c778417e063141139fce010982780140aa0cd5ab73ffffffffffffffffffffffffffffffffffffffff1663095ea7b330836040518363ffffffff1660e01b8152600401612189929190613da9565b602060405180830381600087803b1580156121a357600080fd5b505af11580156121b7573d6000803e3d6000fd5b505050506040513d601f19601f820116820180604052508101906121db9190613560565b5060008111156122655773c778417e063141139fce010982780140aa0cd5ab73ffffffffffffffffffffffffffffffffffffffff16632e1a7d4d826040518263ffffffff1660e01b815260040161223291906140c0565b600060405180830381600087803b15801561224c57600080fd5b505af1158015612260573d6000803e3d6000fd5b505050505b600047116122a8576040517f08c379a000000000000000000000000000000000000000000000000000000000815260040161229f90613fc9565b60405180910390fd5b600047905060005b6004548110156123d7576000600654600260006001600086815260200190815260200160002060009054906101000a900473ffffffffffffffffffffffffffffffffffffffff1673ffffffffffffffffffffffffffffffffffffffff1673ffffffffffffffffffffffffffffffffffffffff168152602001908152602001600020548461233d9190614239565b6123479190614208565b90506001600083815260200190815260200160002060009054906101000a900473ffffffffffffffffffffffffffffffffffffffff1673ffffffffffffffffffffffffffffffffffffffff166108fc829081150290604051600060405180830381858888f193505050501580156123c2573d6000803e3d6000fd5b505080806123cf906143f0565b9150506122b0565b50505050505050565b7f000000000000000000000000000000000000000000000000000000000000000081565b600060019054906101000a900473ffffffffffffffffffffffffffffffffffffffff1681565b60055481565b60075481565b60608173ffffffffffffffffffffffffffffffffffffffff166395d89b416040518163ffffffff1660e01b815260040160006040518083038186803b15801561247e57600080fd5b505afa158015612492573d6000803e3d6000fd5b505050506040513d6000823e3d601f19601f820116820180604052508101906124bb9190613589565b9050919050565b60045481565b73c778417e063141139fce010982780140aa0cd5ab81565b600960069054906101000a900462ffffff1681565b600960009054906101000a900462ffffff1681565b600060019054906101000a900473ffffffffffffffffffffffffffffffffffffffff1673ffffffffffffffffffffffffffffffffffffffff163373ffffffffffffffffffffffffffffffffffffffff161461259a576040517f08c379a000000000000000000000000000000000000000000000000000000000815260040161259190613ee9565b60405180910390fd5b600160028111156125d4577f4e487b7100000000000000000000000000000000000000000000000000000000600052602160045260246000fd5b60008054906101000a900460ff16600281111561261a577f4e487b7100000000000000000000000000000000000000000000000000000000600052602160045260246000fd5b1461265a576040517f08c379a000000000000000000000000000000000000000000000000000000000815260040161265190614009565b60405180910390fd5b612662611d61565b61266a610706565b565b60026020528060005260406000206000915090505481565b60036020528060005260406000206000915090508060000154908060010180546126ad906143be565b80601f01602080910402602001604051908101604052809291908181526020018280546126d9906143be565b80156127265780601f106126fb57610100808354040283529160200191612726565b820191906000526020600020905b81548152906001019060200180831161270957829003601f168201915b5050505050908060020160009054906101000a900473ffffffffffffffffffffffffffffffffffffffff16908060030154908060040154905085565b60085481565b60085442106127ac576040517f08c379a00000000000000000000000000000000000000000000000000000000081526004016127a390613f29565b60405180910390fd5b600160028111156127e6577f4e487b7100000000000000000000000000000000000000000000000000000000600052602160045260246000fd5b60008054906101000a900460ff16600281111561282c577f4e487b7100000000000000000000000000000000000000000000000000000000600052602160045260246000fd5b1461286c576040517f08c379a000000000000000000000000000000000000000000000000000000000815260040161286390614069565b60405180910390fd5b6007543410156128b1576040517f08c379a00000000000000000000000000000000000000000000000000000000081526004016128a890613e89565b60405180910390fd5b6000806128e673c778417e063141139fce010982780140aa0cd5ab735592ec0cfb4dbc12d3ab100b257153436a1f0fea611585565b915091508161292a576040517f08c379a000000000000000000000000000000000000000000000000000000000815260040161292190613f49565b60405180910390fd5b6000600f4261293991906141b2565b9050600073c778417e063141139fce010982780140aa0cd5ab90506000735592ec0cfb4dbc12d3ab100b257153436a1f0fea90506000849050600030905060003490506000600190506000806040518061010001604052808973ffffffffffffffffffffffffffffffffffffffff1681526020018873ffffffffffffffffffffffffffffffffffffffff1681526020018762ffffff1681526020018673ffffffffffffffffffffffffffffffffffffffff1681526020018a81526020018581526020018481526020018373ffffffffffffffffffffffffffffffffffffffff16815250905060007f000000000000000000000000000000000000000000000000000000000000000073ffffffffffffffffffffffffffffffffffffffff1663414bf38934846040518363ffffffff1660e01b8152600401612a7a9190614089565b6020604051808303818588803b158015612a9357600080fd5b505af1158015612aa7573d6000803e3d6000fd5b50505050506040513d601f19601f82011682018060405250810190612acc91906135f3565b90503360016000600454815260200190815260200160002060006101000a81548173ffffffffffffffffffffffffffffffffffffffff021916908373ffffffffffffffffffffffffffffffffffffffff16021790555080600260003373ffffffffffffffffffffffffffffffffffffffff1673ffffffffffffffffffffffffffffffffffffffff1681526020019081526020016000206000828254612b7191906141b2565b925050819055508060066000828254612b8a91906141b2565b9250508190555060046000815480929190612ba4906143f0565b9190505550505050505050505050505050565b60008060019054906101000a900473ffffffffffffffffffffffffffffffffffffffff1673ffffffffffffffffffffffffffffffffffffffff163373ffffffffffffffffffffffffffffffffffffffff1614612c48576040517f08c379a0000000000000000000000000000000000000000000000000000000008152600401612c3f90613ee9565b60405180910390fd5b600280811115612c81577f4e487b7100000000000000000000000000000000000000000000000000000000600052602160045260246000fd5b60008054906101000a900460ff166002811115612cc7577f4e487b7100000000000000000000000000000000000000000000000000000000600052602160045260246000fd5b14612d07576040517f08c379a0000000000000000000000000000000000000000000000000000000008152600401612cfe90613fe9565b60405180910390fd5b6000600360008681526020019081526020016000206004015411612d60576040517f08c379a0000000000000000000000000000000000000000000000000000000008152600401612d5790613ea9565b60405180910390fd5b600080612db7735592ec0cfb4dbc12d3ab100b257153436a1f0fea6003600089815260200190815260200160002060020160009054906101000a900473ffffffffffffffffffffffffffffffffffffffff16611585565b9150915081612dfb576040517f08c379a0000000000000000000000000000000000000000000000000000000008152600401612df290613f49565b60405180910390fd5b836003600088815260200190815260200160002060030154612e1d91906141b2565b851115613104576000600360008881526020019081526020016000206004015490506000604051806101000160405280735592ec0cfb4dbc12d3ab100b257153436a1f0fea73ffffffffffffffffffffffffffffffffffffffff168152602001600360008b815260200190815260200160002060020160009054906101000a900473ffffffffffffffffffffffffffffffffffffffff1673ffffffffffffffffffffffffffffffffffffffff1681526020018462ffffff1681526020013073ffffffffffffffffffffffffffffffffffffffff168152602001603c42612f0391906141b2565b815260200183815260200160018152602001600073ffffffffffffffffffffffffffffffffffffffff168152509050735592ec0cfb4dbc12d3ab100b257153436a1f0fea73ffffffffffffffffffffffffffffffffffffffff1663095ea7b37f0000000000000000000000000000000000000000000000000000000000000000846040518363ffffffff1660e01b8152600401612fa1929190613da9565b602060405180830381600087803b158015612fbb57600080fd5b505af1158015612fcf573d6000803e3d6000fd5b505050506040513d601f19601f82011682018060405250810190612ff39190613560565b5060007f000000000000000000000000000000000000000000000000000000000000000073ffffffffffffffffffffffffffffffffffffffff1663414bf389836040518263ffffffff1660e01b815260040161304f9190614089565b602060405180830381600087803b15801561306957600080fd5b505af115801561307d573d6000803e3d6000fd5b505050506040513d601f19601f820116820180604052508101906130a191906135f3565b905082600360008b815260200190815260200160002060040160008282546130c99190614293565b92505081905550600081846130de9190614208565b905080600360008c81526020019081526020016000206003018190555060019650505050505b50509392505050565b735592ec0cfb4dbc12d3ab100b257153436a1f0fea81565b600060019054906101000a900473ffffffffffffffffffffffffffffffffffffffff1673ffffffffffffffffffffffffffffffffffffffff163373ffffffffffffffffffffffffffffffffffffffff16146131b5576040517f08c379a00000000000000000000000000000000000000000000000000000000081526004016131ac90613ee9565b60405180910390fd5b600060028111156131ef577f4e487b7100000000000000000000000000000000000000000000000000000000600052602160045260246000fd5b60008054906101000a900460ff166002811115613235577f4e487b7100000000000000000000000000000000000000000000000000000000600052602160045260246000fd5b14613275576040517f08c379a000000000000000000000000000000000000000000000000000000000815260040161326c90613fa9565b60405180910390fd5b81600781905550804261328891906141b2565b60088190555060016000806101000a81548160ff021916908360028111156132d9577f4e487b7100000000000000000000000000000000000000000000000000000000600052602160045260246000fd5b02179055505050565b5080546132ee906143be565b6000825580601f10613300575061331f565b601f01602090049060005260206000209081019061331e91906133a8565b5b50565b82805461332e906143be565b90600052602060002090601f0160209004810192826133505760008555613397565b82601f1061336957805160ff1916838001178555613397565b82800160010185558215613397579182015b8281111561339657825182559160200191906001019061337b565b5b5090506133a491906133a8565b5090565b5b808211156133c15760008160009055506001016133a9565b5090565b60006133d86133d384614166565b614135565b9050828152602081018484840111156133f057600080fd5b6133fb84828561438b565b509392505050565b60008135905061341281614549565b92915050565b60008151905061342781614549565b92915050565b60008151905061343c81614560565b92915050565b600082601f83011261345357600080fd5b81516134638482602086016133c5565b91505092915050565b60008135905061347b81614577565b92915050565b60008151905061349081614577565b92915050565b6000602082840312156134a857600080fd5b60006134b684828501613403565b91505092915050565b6000602082840312156134d157600080fd5b60006134df84828501613418565b91505092915050565b600080604083850312156134fb57600080fd5b600061350985828601613403565b925050602061351a85828601613403565b9150509250929050565b6000806040838503121561353757600080fd5b600061354585828601613403565b92505060206135568582860161346c565b9150509250929050565b60006020828403121561357257600080fd5b60006135808482850161342d565b91505092915050565b60006020828403121561359b57600080fd5b600082015167ffffffffffffffff8111156135b557600080fd5b6135c184828501613442565b91505092915050565b6000602082840312156135dc57600080fd5b60006135ea8482850161346c565b91505092915050565b60006020828403121561360557600080fd5b600061361384828501613481565b91505092915050565b6000806040838503121561362f57600080fd5b600061363d8582860161346c565b925050602061364e8582860161346c565b9150509250929050565b60008060006060848603121561366d57600080fd5b600061367b8682870161346c565b935050602061368c8682870161346c565b925050604061369d8682870161346c565b9150509250925092565b6136b0816142c7565b82525050565b6136bf816142c7565b82525050565b6136ce816142d9565b82525050565b6136dd81614331565b82525050565b6136ec81614355565b82525050565b6136fb81614379565b82525050565b600061370c82614196565b61371681856141a1565b935061372681856020860161438b565b61372f81614524565b840191505092915050565b60006137476026836141a1565b91507f596f75206d75737420636f6e7472696275746520746865206d696e696d756d2060008301527f616d6f756e7400000000000000000000000000000000000000000000000000006020830152604082019050919050565b60006137ad6012836141a1565b91507f4e6f2066756e647320617661696c61626c6500000000000000000000000000006000830152602082019050919050565b60006137ed6012836141a1565b91507f4e6f20746f6b656e20617661696c61626c6500000000000000000000000000006000830152602082019050919050565b600061382d6021836141a1565b91507f4f6e6c79206f776e65722063616e2063616c6c20746869732066756e6374696f60008301527f6e000000000000000000000000000000000000000000000000000000000000006020830152604082019050919050565b60006138936038836141a1565b91507f4e6f206d6f726520746f6b656e206f66206261736543757272656e637920617660008301527f61696c61626c6520696e207468697320636f6e747261637400000000000000006020830152604082019050919050565b60006138f96009836141a1565b91507f54696d65206f76657200000000000000000000000000000000000000000000006000830152602082019050919050565b60006139396013836141a1565b91507f506f6f6c20646f6573206e6f74206578697374000000000000000000000000006000830152602082019050919050565b60006139796023836141a1565b91507f436f6e74726962757474696f6e20706572696f64206e6f74207965742070617360008301527f73656400000000000000000000000000000000000000000000000000000000006020830152604082019050919050565b60006139df6030836141a1565b91507f596f752063616e206e6f74207472616465206261736543757272656e6379206960008301527f6e746f206261736543757272656e6379000000000000000000000000000000006020830152604082019050919050565b6000613a456012836141a1565b91507f5374617465206d7573742062652069646c6500000000000000000000000000006000830152602082019050919050565b6000613a856026836141a1565b91507f4e6f20657468657220617661696c61626c6520746f206265207265646973747260008301527f69627574656400000000000000000000000000000000000000000000000000006020830152604082019050919050565b6000613aeb6020836141a1565b91507f54726164696e67626f74206d75737420626520737461727465642066697273746000830152602082019050919050565b6000613b2b602e836141a1565b91507f426f742068617320737461727465642074726164696e6720616e642063616e2060008301527f6e6f742062652063616e636c65640000000000000000000000000000000000006020830152604082019050919050565b6000613b916036836141a1565b91507f456163682072656769737465726564206173736574206d75737420676574206160008301527f2076616c7565206f66206261736543757272656e6379000000000000000000006020830152604082019050919050565b6000613bf7601c836141a1565b91507f4e6f2066756e647320746f2062652072656469737472696275746564000000006000830152602082019050919050565b6000613c37601a836141a1565b91507f5374617465206d75737420626520636f6e747269627574696e670000000000006000830152602082019050919050565b61010082016000820151613c8160008501826136a7565b506020820151613c9460208501826136a7565b506040820151613ca76040850182613d1b565b506060820151613cba60608501826136a7565b506080820151613ccd6080850182613d39565b5060a0820151613ce060a0850182613d39565b5060c0820151613cf360c0850182613d39565b5060e0820151613d0660e0850182613d0c565b50505050565b613d15816142f8565b82525050565b613d2481614318565b82525050565b613d3381614318565b82525050565b613d4281614327565b82525050565b613d5181614327565b82525050565b6000602082019050613d6c60008301846136b6565b92915050565b6000606082019050613d8760008301866136b6565b613d9460208301856136b6565b613da16040830184613d2a565b949350505050565b6000604082019050613dbe60008301856136b6565b613dcb6020830184613d48565b9392505050565b6000602082019050613de760008301846136c5565b92915050565b6000604082019050613e0260008301856136c5565b613e0f6020830184613d2a565b9392505050565b6000602082019050613e2b60008301846136d4565b92915050565b6000602082019050613e4660008301846136e3565b92915050565b6000602082019050613e6160008301846136f2565b92915050565b60006020820190508181036000830152613e818184613701565b905092915050565b60006020820190508181036000830152613ea28161373a565b9050919050565b60006020820190508181036000830152613ec2816137a0565b9050919050565b60006020820190508181036000830152613ee2816137e0565b9050919050565b60006020820190508181036000830152613f0281613820565b9050919050565b60006020820190508181036000830152613f2281613886565b9050919050565b60006020820190508181036000830152613f42816138ec565b9050919050565b60006020820190508181036000830152613f628161392c565b9050919050565b60006020820190508181036000830152613f828161396c565b9050919050565b60006020820190508181036000830152613fa2816139d2565b9050919050565b60006020820190508181036000830152613fc281613a38565b9050919050565b60006020820190508181036000830152613fe281613a78565b9050919050565b6000602082019050818103600083015261400281613ade565b9050919050565b6000602082019050818103600083015261402281613b1e565b9050919050565b6000602082019050818103600083015261404281613b84565b9050919050565b6000602082019050818103600083015261406281613bea565b9050919050565b6000602082019050818103600083015261408281613c2a565b9050919050565b60006101008201905061409f6000830184613c6a565b92915050565b60006020820190506140ba6000830184613d2a565b92915050565b60006020820190506140d56000830184613d48565b92915050565b600060a0820190506140f06000830188613d48565b81810360208301526141028187613701565b905061411160408301866136b6565b61411e6060830185613d48565b61412b6080830184613d48565b9695505050505050565b6000604051905081810181811067ffffffffffffffff8211171561415c5761415b6144f5565b5b8060405250919050565b600067ffffffffffffffff821115614181576141806144f5565b5b601f19601f8301169050602081019050919050565b600081519050919050565b600082825260208201905092915050565b60006141bd82614327565b91506141c883614327565b9250827fffffffffffffffffffffffffffffffffffffffffffffffffffffffffffffffff038211156141fd576141fc614439565b5b828201905092915050565b600061421382614327565b915061421e83614327565b92508261422e5761422d614468565b5b828204905092915050565b600061424482614327565b915061424f83614327565b9250817fffffffffffffffffffffffffffffffffffffffffffffffffffffffffffffffff048311821515161561428857614287614439565b5b828202905092915050565b600061429e82614327565b91506142a983614327565b9250828210156142bc576142bb614439565b5b828203905092915050565b60006142d2826142f8565b9050919050565b60008115159050919050565b60008190506142f382614535565b919050565b600073ffffffffffffffffffffffffffffffffffffffff82169050919050565b600062ffffff82169050919050565b6000819050919050565b600061433c82614343565b9050919050565b600061434e826142f8565b9050919050565b600061436082614367565b9050919050565b6000614372826142f8565b9050919050565b6000614384826142e5565b9050919050565b60005b838110156143a957808201518184015260208101905061438e565b838111156143b8576000848401525b50505050565b600060028204905060018216806143d657607f821691505b602082108114156143ea576143e96144c6565b5b50919050565b60006143fb82614327565b91507fffffffffffffffffffffffffffffffffffffffffffffffffffffffffffffffff82141561442e5761442d614439565b5b600182019050919050565b7f4e487b7100000000000000000000000000000000000000000000000000000000600052601160045260246000fd5b7f4e487b7100000000000000000000000000000000000000000000000000000000600052601260045260246000fd5b7f4e487b7100000000000000000000000000000000000000000000000000000000600052602160045260246000fd5b7f4e487b7100000000000000000000000000000000000000000000000000000000600052602260045260246000fd5b7f4e487b7100000000000000000000000000000000000000000000000000000000600052604160045260246000fd5b6000601f19601f8301169050919050565b6003811061454657614545614497565b5b50565b614552816142c7565b811461455d57600080fd5b50565b614569816142d9565b811461457457600080fd5b50565b61458081614327565b811461458b57600080fd5b5056fea2646970667358221220257ab93bebabd1894d3b2847686831db323b7816ff1f2d6be5414eac0e47f72d64736f6c63430008000033",
  "immutableReferences": {
    "406": [
      {
        "length": 32,
        "start": 5538
      },
      {
        "length": 32,
        "start": 5808
      },
      {
        "length": 32,
        "start": 6078
      },
      {
        "length": 32,
        "start": 9186
      }
    ],
    "412": [
      {
        "length": 32,
        "start": 3298
      },
      {
        "length": 32,
        "start": 3446
      },
      {
        "length": 32,
        "start": 3949
      },
      {
        "length": 32,
        "start": 4834
      },
      {
        "length": 32,
        "start": 4982
      },
      {
        "length": 32,
        "start": 7104
      },
      {
        "length": 32,
        "start": 7250
      },
      {
        "length": 32,
        "start": 8029
      },
      {
        "length": 32,
        "start": 8175
      },
      {
        "length": 32,
        "start": 10786
      },
      {
        "length": 32,
        "start": 12132
      },
      {
        "length": 32,
        "start": 12280
      }
    ]
  },
  "source": "// SPDX-License-Identifier: MIT\npragma solidity ^0.8.0;\n// pargma experimental ABIEncoderV2 no longer necessary from solidity 0.8.0\n\n// LEARNING:\n// - DAO Investment concept\n// - Integration of Uniswap as DEX to trade on\n\nimport \"@uniswap/v3-core/contracts/interfaces/IUniswapV3Factory.sol\";\nimport \"@uniswap/v3-periphery/contracts/interfaces/ISwapRouter.sol\";\n\nimport \"@openzeppelin/contracts/interfaces/IERC20.sol\";\nimport \"@openzeppelin/contracts/token/ERC20/extensions/IERC20Metadata.sol\";\n\n\ninterface IWETH9 {\n    function balanceOf(address account) external view returns (uint256);\n    function deposit() external payable;\n\n    function withdraw(uint256 wad) external;\n}\n\n\ncontract Tradingbot {\n  enum State {\n    IDLE,\n    CONTRIBUTING,\n    TRADING\n  }\n  State public currentState;\n\n  struct Asset {\n    uint id;\n    string sticker;\n    address tokenAddress;\n    uint lastPrice;\n    uint availableFunds;\n  }\n\n  address public owner;\n\n  mapping(uint => address) public investors; // registered investors\n  mapping(address => uint) public shares; // shares per investor\n  mapping(uint => Asset) public assets; // registered token to  % of Portfolio\n\n  uint public nextInvestorId;\n  uint public nextAssetId;\n  uint public totalShares;\n  uint public minAmount;\n  uint public contributionEnd;\n\n  // allows to call functions from the Uniswap Factory contract\n  IUniswapV3Factory public immutable SwapV3Factory = IUniswapV3Factory(0x1F98431c8aD98523631AE4a59f267346ea31F984);\n\n  // allows to call functions from the Uniswap SwapRouter Interface\n  ISwapRouter public immutable SwapRouter = ISwapRouter(0xE592427A0AEce92De3Edee1F18E0157C05861564);\n\n  // we hardcode the token addresses (in production we would use an input parameter for this)\n  address public constant WETH = 0xc778417E063141139Fce010982780140Aa0cD5Ab; // WETH on Rinkeby Testnet\n  address public constant DAI = 0x5592EC0cfb4dbc12D3aB100b257153436a1f0FEa; // DAI on Rinkeby Testnet\n\n  // UniswapV3 allows 3 different pool fees\n  uint24 public poolFee_1 = 500;\n  uint24 public poolFee_2 = 3000;\n  uint24 public poolFee_3 = 10000;\n\n\n  // 1a. Define the admin of the investment contract\n  constructor() {\n    owner = msg.sender;\n  }\n\n  // 1b. Seperate initialize() function to reinitialize the contract for trading; not possible if this would be defined in constructor\n  function initialize(uint _minAmount, uint duration) external onlyOwner() {\n    require(currentState == State.IDLE, \"State must be idle\");\n    minAmount = _minAmount;\n    contributionEnd = block.timestamp + duration;\n\n    currentState = State.CONTRIBUTING;\n  }\n\n\n  // 2. DAO concept; anybody can contribute and will be registered as investor\n  function contribute() external payable timeOut() {\n    require(currentState == State.CONTRIBUTING, \"State must be contributing\");\n    require(msg.value >= minAmount, \"You must contribute the minimum amount\");\n    (bool _success, uint24 _poolFee) = _uniswapV3PoolExists(WETH, DAI);\n    require(_success, \"Pool does not exist\");\n\n    uint256 deadline = block.timestamp + 15; // using 'now' for convenience, for mainnet pass deadline from frontend!\n    address tokenIn = WETH;\n    address tokenOut = DAI;\n    uint24 fee = _poolFee;\n    address recipient = address(this);\n    uint256 amountIn = msg.value;\n    uint256 amountOutMinimum = 1;\n    uint160 sqrtPriceLimitX96 = 0;\n\n    ISwapRouter.ExactInputSingleParams memory params = ISwapRouter.ExactInputSingleParams(\n        tokenIn,\n        tokenOut,\n        fee,\n        recipient,\n        deadline,\n        amountIn,\n        amountOutMinimum,\n        sqrtPriceLimitX96\n    );\n\n\n    uint amountOut = SwapRouter.exactInputSingle{ value: msg.value }(params);\n\n    // an investor can contribute mutiple times; therefore shares neet to be +=;\n    investors[nextInvestorId] = msg.sender;\n    shares[msg.sender] += amountOut;\n    totalShares += amountOut;\n\n    // an address is registered as an investor if it has contributed the min amount once and nextInvestorId will be incremented\n    nextInvestorId++;\n\n  }\n\n  // 3. As long as currentState = State.IDLE the owner can cancel the bot and refund the money\n  function cancelTradingbot() external onlyOwner() {\n    require(currentState == State.CONTRIBUTING, \"Bot has started trading and can not be cancled\");\n\n    _refundInvestors();\n\n    _reset();\n\n  }\n\n\n  // 4. Initial buy of token to be traded\n  // As long as there are funds of baseCurrency available you can invest in token\n  function initialAssetBuy(address _tokenAddress, uint _value) external onlyOwner() {\n      require(block.timestamp >= contributionEnd, \"Contributtion period not yet passed\");\n      require(getTokenBalance(DAI) > 0, \"No more token of baseCurrency available in this contract\");\n      require(_value > 0, \"Each registered asset must get a value of baseCurrency\");\n      require(_tokenAddress != DAI, \"You can not trade baseCurrency into baseCurrency\");\n\n      (bool _success, uint24 _poolFee) = _uniswapV3PoolExists(DAI, _tokenAddress);\n      require(_success, \"Pool does not exist\");\n\n      uint _amountIn = _value;\n\n      ISwapRouter.ExactInputSingleParams memory params = ISwapRouter.ExactInputSingleParams({\n        tokenIn: DAI,\n        tokenOut: _tokenAddress,\n        fee: _poolFee,\n        recipient: address(this),\n        deadline: block.timestamp + 60,\n        amountIn: _amountIn,\n        amountOutMinimum: 1,\n        sqrtPriceLimitX96: 0\n      });\n\n      // Approve the SwapRouter contract for the amount of DAI\n      // I first made an error to approve this contract - that's wrong, the DAI was already tranfered to this contract in contribute()\n      IERC20(DAI).approve(address(SwapRouter), _amountIn);\n\n      uint _amountOut = SwapRouter.exactInputSingle(params);\n\n      uint _price = uint(_amountIn / _amountOut);\n\n\n      assets[nextAssetId] = Asset(nextAssetId, getTokenSticker(_tokenAddress), _tokenAddress, _price, 0);\n      nextAssetId ++;\n\n      currentState = State.TRADING;\n\n  }\n\n  // 5. Sell token depending on predicted price development\n  //\n  function sellToken(uint _assetId, /*uint currentPrice,*/ uint predPrice, uint tuner) external onlyOwner() returns (bool _trade) {\n    require(currentState == State.TRADING, \"Tradingbot must be started first\");\n    require(getTokenBalance(assets[_assetId].tokenAddress) > 0, \"No token available\");\n\n    (bool _success, uint24 _poolFee) = _uniswapV3PoolExists(assets[_assetId].tokenAddress, DAI);\n    require(_success, \"Pool does not exist\");\n\n    // Check if price predicted in future x hours < (last buy - tuner)\n    if(predPrice < (assets[_assetId].lastPrice - tuner)) {\n\n      uint _amountIn = getTokenBalance(assets[_assetId].tokenAddress);\n\n      ISwapRouter.ExactInputSingleParams memory params = ISwapRouter.ExactInputSingleParams({\n        tokenIn: assets[_assetId].tokenAddress,\n        tokenOut: DAI,\n        fee: _poolFee,\n        recipient: address(this),\n        deadline: block.timestamp + 15,\n        amountIn: _amountIn,\n        amountOutMinimum: 1,\n        sqrtPriceLimitX96: 0\n      });\n\n      // Approve the SwapRouter contract for the amount of token to be traded\n      IERC20(assets[_assetId].tokenAddress).approve(address(SwapRouter), _amountIn);\n\n      uint _amountOut = SwapRouter.exactInputSingle(params);\n\n      //Updates the availableFunds of the asset in DAI\n      assets[_assetId].availableFunds += _amountOut;\n\n      //Calculates the selling price in DAI\n      uint _price = _amountOut /_amountIn;\n\n      assets[_assetId].lastPrice = _price;\n\n      _trade = true;\n\n    }\n  }\n  //\n\n  // 6. Buy token depending on predicted price development\n  function buyToken(uint _assetId, /*uint currentPrice,*/ uint predPrice, uint tuner) external onlyOwner() returns (bool _trade) {\n    require(currentState == State.TRADING, \"Tradingbot must be started first\");\n    require(assets[_assetId].availableFunds > 0, \"No funds available\");\n\n    (bool _success, uint24 _poolFee) = _uniswapV3PoolExists(DAI, assets[_assetId].tokenAddress);\n    require(_success, \"Pool does not exist\");\n\n    // Check if price predicted in future x hours < (last buy - tuner)\n    if(predPrice > (assets[_assetId].lastPrice + tuner)) {\n\n      uint _amountIn = assets[_assetId].availableFunds;\n\n      ISwapRouter.ExactInputSingleParams memory params = ISwapRouter.ExactInputSingleParams({\n        tokenIn: DAI,\n        tokenOut: assets[_assetId].tokenAddress,\n        fee: _poolFee,\n        recipient: address(this),\n        deadline: block.timestamp + 60,\n        amountIn: _amountIn,\n        amountOutMinimum: 1,\n        sqrtPriceLimitX96: 0\n      });\n\n      // Approve the SwapRouter contract for the amount of token to be traded\n      IERC20(DAI).approve(address(SwapRouter), _amountIn);\n\n      uint _amountOut = SwapRouter.exactInputSingle(params);\n\n      //Updates the availableFunds of the asset in DAI\n      assets[_assetId].availableFunds -= _amountIn;\n\n      //Calculates the buying price in DAI\n      uint _price = _amountIn /_amountOut;\n\n      assets[_assetId].lastPrice = _price;\n\n      _trade = true;\n\n    }\n  }\n  //\n\n  // 7. Liquidate portfolio and return money to investors\n  function liquidatePortfolio () external payable onlyOwner() {\n\n\n    for(uint i; i < nextAssetId; i++) {\n      if(getTokenBalance(assets[i].tokenAddress) > 0) {\n        (bool _success, uint24 _poolFee) = _uniswapV3PoolExists(assets[i].tokenAddress, DAI);\n        require(_success, \"Pool does not exist\");\n\n        uint _amountIn = getTokenBalance(assets[i].tokenAddress);\n\n        ISwapRouter.ExactInputSingleParams memory params = ISwapRouter.ExactInputSingleParams({\n          tokenIn: assets[i].tokenAddress,\n          tokenOut: DAI,\n          fee: _poolFee,\n          recipient: address(this),\n          deadline: block.timestamp + 15,\n          amountIn: _amountIn,\n          amountOutMinimum: 1,\n          sqrtPriceLimitX96: 0\n        });\n\n        // Approve the SwapRouter contract for the amount of token to be traded\n        IERC20(assets[i].tokenAddress).approve(address(SwapRouter), _amountIn);\n\n        SwapRouter.exactInputSingle(params);\n\n        //Updates the availableFunds of the asset in DAI\n        assets[i].availableFunds = 0;\n\n        //Calculates the selling price in DAI\n        uint _price = 0;\n\n        assets[i].lastPrice = _price;\n\n      }\n    }\n\n    _refundInvestors();\n\n    _reset();\n  }\n\n  // 8. Some view functions\n  function getBalance() external view returns(uint) {\n    return address(this).balance;\n  }\n\n  function getTokenBalance(address tokenAddress) public view returns(uint tokenBalance) {\n    tokenBalance = IERC20(tokenAddress).balanceOf(address(this));\n  }\n\n  function getTokenSticker(address tokenAddress) public view returns(string memory _sticker) {\n    _sticker = IERC20Metadata(tokenAddress).symbol();\n  }\n\n  receive() external payable {}\n\n  function _uniswapV3PoolExists(address _tokenIn, address _tokenOut) public view returns (bool pool_existence, uint24 _poolFee){\n    if( SwapV3Factory.getPool(_tokenIn, _tokenOut, poolFee_1) != address(0) ){\n        _poolFee = poolFee_1;\n        pool_existence = true;\n    }\n    else if(SwapV3Factory.getPool(_tokenIn, _tokenOut, poolFee_2) != address(0)){\n        _poolFee = poolFee_2;\n        pool_existence = true;\n\n    }\n    else if(SwapV3Factory.getPool(_tokenIn, _tokenOut, poolFee_3) != address(0)){\n        _poolFee = poolFee_3;\n        pool_existence = true;\n\n    }\n\n  }\n\n  // swap DAI to WETH, then iterate over the nextInvestorId and refund the contract balance to the investors in relation to their shares\n  function _refundInvestors() public payable {\n    require(getTokenBalance(DAI) > 0, \"No funds to be redistributed\");\n\n    (bool _success, uint24 _poolFee) = _uniswapV3PoolExists(DAI, WETH);\n    require(_success, \"Pool does not exist\");\n\n    uint _amountIn = getTokenBalance(DAI);\n\n    ISwapRouter.ExactInputSingleParams memory params = ISwapRouter.ExactInputSingleParams({\n      tokenIn: DAI,\n      tokenOut: WETH,\n      fee: _poolFee,\n      recipient: address(this),\n      deadline: block.timestamp + 15,\n      amountIn: _amountIn,\n      amountOutMinimum: 1,\n      sqrtPriceLimitX96: 0\n    });\n\n    // Approve the SwapRouter contract for the amount of DAI\n    // I first made an error to approve this contract - that's wrong, the DAI was already tranfered to this contract in contribute()\n    IERC20(DAI).approve(address(SwapRouter), _amountIn);\n\n    SwapRouter.exactInputSingle(params);\n\n    // Unwrap WETH to ETH and send to this contract\n    uint balanceWETH = IWETH9(WETH).balanceOf(address(this));\n\n    IERC20(WETH).approve(address(this), balanceWETH);\n\n    if (balanceWETH > 0) {\n        IWETH9(WETH).withdraw(balanceWETH);\n    }\n\n    // Save value of contract balance and Calculate share for each investor\n    require(address(this).balance > 0, \"No ether available to be redistributed\");\n    uint _totalFunds = address(this).balance;\n\n    for(uint i=0; i < nextInvestorId; i++) {\n      uint _refund = _totalFunds * shares[investors[i]] / totalShares;\n      payable(investors[i]).transfer(_refund);\n    }\n\n  }\n\n  function _reset() public {\n\n    // mappings must be cleaned up one by one; delete key word only works for each entry\n    for(uint i=0; i < nextInvestorId; i++) {\n      delete shares[investors[i]];\n      delete investors[i];\n    }\n\n    for(uint j=0; j < nextAssetId; j++) {\n      delete assets[j];\n    }\n\n    nextInvestorId = 0;\n    nextAssetId = 0;\n    totalShares = 0;\n    // Other currentState variables minAmount and contributionEnd must be reinitialized in function initialize()\n\n    currentState = State.IDLE;\n\n  }\n\n  modifier onlyOwner() {\n    require(msg.sender == owner, \"Only owner can call this function\");\n    _;\n  }\n\n  modifier timeOut() {\n    require(block.timestamp < contributionEnd, \"Time over\");\n    _;\n  }\n\n}\n",
  "sourcePath": "C:\\Rula01\\01_Lernen\\Udemy\\Projects\\cryptotradingbot_v1\\contracts\\Tradingbot_v2.sol",
  "compiler": {
    "name": "solc",
    "version": "0.8.0+commit.c7dfd78e.Emscripten.clang"
  },
  "schemaVersion": "3.4.3",
  "updatedAt": "2022-01-18T08:41:51.108Z",
  "networkType": "ethereum",
  "devdoc": {
    "kind": "dev",
    "methods": {},
    "version": 1
  },
  "userdoc": {
    "kind": "user",
    "methods": {},
    "version": 1
  }
}