{
  "contractName": "Tradingbot",
  "abi": [
    {
      "inputs": [],
      "stateMutability": "nonpayable",
      "type": "constructor"
    },
    {
      "stateMutability": "payable",
      "type": "fallback",
      "payable": true
    },
    {
      "inputs": [],
      "name": "DAI",
      "outputs": [
        {
          "internalType": "address",
          "name": "",
          "type": "address"
        }
      ],
      "stateMutability": "view",
      "type": "function",
      "constant": true
    },
    {
      "inputs": [],
      "name": "SwapRouter",
      "outputs": [
        {
          "internalType": "contract ISwapRouter",
          "name": "",
          "type": "address"
        }
      ],
      "stateMutability": "view",
      "type": "function",
      "constant": true
    },
    {
      "inputs": [],
      "name": "SwapV3Factory",
      "outputs": [
        {
          "internalType": "contract IUniswapV3Factory",
          "name": "",
          "type": "address"
        }
      ],
      "stateMutability": "view",
      "type": "function",
      "constant": true
    },
    {
      "inputs": [],
      "name": "UNI",
      "outputs": [
        {
          "internalType": "address",
          "name": "",
          "type": "address"
        }
      ],
      "stateMutability": "view",
      "type": "function",
      "constant": true
    },
    {
      "inputs": [],
      "name": "WETH",
      "outputs": [
        {
          "internalType": "address",
          "name": "",
          "type": "address"
        }
      ],
      "stateMutability": "view",
      "type": "function",
      "constant": true
    },
    {
      "inputs": [
        {
          "internalType": "uint256",
          "name": "",
          "type": "uint256"
        }
      ],
      "name": "assets",
      "outputs": [
        {
          "internalType": "uint256",
          "name": "id",
          "type": "uint256"
        },
        {
          "internalType": "string",
          "name": "sticker",
          "type": "string"
        },
        {
          "internalType": "address",
          "name": "tokenAddress",
          "type": "address"
        },
        {
          "internalType": "uint256",
          "name": "lastPrice",
          "type": "uint256"
        },
        {
          "internalType": "uint256",
          "name": "availableFunds",
          "type": "uint256"
        }
      ],
      "stateMutability": "view",
      "type": "function",
      "constant": true
    },
    {
      "inputs": [],
      "name": "contributionEnd",
      "outputs": [
        {
          "internalType": "uint256",
          "name": "",
          "type": "uint256"
        }
      ],
      "stateMutability": "view",
      "type": "function",
      "constant": true
    },
    {
      "inputs": [],
      "name": "currentState",
      "outputs": [
        {
          "internalType": "enum Tradingbot.State",
          "name": "",
          "type": "uint8"
        }
      ],
      "stateMutability": "view",
      "type": "function",
      "constant": true
    },
    {
      "inputs": [],
      "name": "direction",
      "outputs": [
        {
          "internalType": "uint8",
          "name": "",
          "type": "uint8"
        }
      ],
      "stateMutability": "view",
      "type": "function",
      "constant": true
    },
    {
      "inputs": [
        {
          "internalType": "uint256",
          "name": "",
          "type": "uint256"
        }
      ],
      "name": "investors",
      "outputs": [
        {
          "internalType": "address",
          "name": "",
          "type": "address"
        }
      ],
      "stateMutability": "view",
      "type": "function",
      "constant": true
    },
    {
      "inputs": [],
      "name": "minAmount",
      "outputs": [
        {
          "internalType": "uint256",
          "name": "",
          "type": "uint256"
        }
      ],
      "stateMutability": "view",
      "type": "function",
      "constant": true
    },
    {
      "inputs": [],
      "name": "nextAssetId",
      "outputs": [
        {
          "internalType": "uint256",
          "name": "",
          "type": "uint256"
        }
      ],
      "stateMutability": "view",
      "type": "function",
      "constant": true
    },
    {
      "inputs": [],
      "name": "nextInvestorId",
      "outputs": [
        {
          "internalType": "uint256",
          "name": "",
          "type": "uint256"
        }
      ],
      "stateMutability": "view",
      "type": "function",
      "constant": true
    },
    {
      "inputs": [],
      "name": "owner",
      "outputs": [
        {
          "internalType": "address",
          "name": "",
          "type": "address"
        }
      ],
      "stateMutability": "view",
      "type": "function",
      "constant": true
    },
    {
      "inputs": [
        {
          "internalType": "address",
          "name": "",
          "type": "address"
        }
      ],
      "name": "shares",
      "outputs": [
        {
          "internalType": "uint256",
          "name": "",
          "type": "uint256"
        }
      ],
      "stateMutability": "view",
      "type": "function",
      "constant": true
    },
    {
      "inputs": [],
      "name": "totalShares",
      "outputs": [
        {
          "internalType": "uint256",
          "name": "",
          "type": "uint256"
        }
      ],
      "stateMutability": "view",
      "type": "function",
      "constant": true
    },
    {
      "stateMutability": "payable",
      "type": "receive",
      "payable": true
    },
    {
      "inputs": [
        {
          "internalType": "uint256",
          "name": "_minAmount",
          "type": "uint256"
        },
        {
          "internalType": "uint256",
          "name": "duration",
          "type": "uint256"
        }
      ],
      "name": "initialize",
      "outputs": [],
      "stateMutability": "nonpayable",
      "type": "function"
    },
    {
      "inputs": [],
      "name": "contribute",
      "outputs": [],
      "stateMutability": "payable",
      "type": "function",
      "payable": true
    },
    {
      "inputs": [],
      "name": "cancelTradingbot",
      "outputs": [],
      "stateMutability": "nonpayable",
      "type": "function"
    },
    {
      "inputs": [
        {
          "internalType": "address",
          "name": "tokenOut",
          "type": "address"
        },
        {
          "internalType": "uint256",
          "name": "value",
          "type": "uint256"
        }
      ],
      "name": "initialAssetBuy",
      "outputs": [],
      "stateMutability": "nonpayable",
      "type": "function"
    },
    {
      "inputs": [
        {
          "internalType": "uint256",
          "name": "_assetId",
          "type": "uint256"
        },
        {
          "internalType": "uint256",
          "name": "predPrice",
          "type": "uint256"
        },
        {
          "internalType": "uint256",
          "name": "tuner",
          "type": "uint256"
        }
      ],
      "name": "sellToken",
      "outputs": [],
      "stateMutability": "nonpayable",
      "type": "function"
    },
    {
      "inputs": [
        {
          "internalType": "uint256",
          "name": "_assetId",
          "type": "uint256"
        },
        {
          "internalType": "uint256",
          "name": "predPrice",
          "type": "uint256"
        },
        {
          "internalType": "uint256",
          "name": "tuner",
          "type": "uint256"
        }
      ],
      "name": "buyToken",
      "outputs": [],
      "stateMutability": "nonpayable",
      "type": "function"
    },
    {
      "inputs": [],
      "name": "liquidatePortfolio",
      "outputs": [],
      "stateMutability": "payable",
      "type": "function",
      "payable": true
    },
    {
      "inputs": [],
      "name": "getBalance",
      "outputs": [
        {
          "internalType": "uint256",
          "name": "",
          "type": "uint256"
        }
      ],
      "stateMutability": "view",
      "type": "function",
      "constant": true
    },
    {
      "inputs": [
        {
          "internalType": "address",
          "name": "tokenAddress",
          "type": "address"
        }
      ],
      "name": "getTokenBalance",
      "outputs": [
        {
          "internalType": "uint256",
          "name": "tokenBalance",
          "type": "uint256"
        }
      ],
      "stateMutability": "view",
      "type": "function",
      "constant": true
    },
    {
      "inputs": [
        {
          "internalType": "address",
          "name": "tokenAddress",
          "type": "address"
        }
      ],
      "name": "getTokenSticker",
      "outputs": [
        {
          "internalType": "string",
          "name": "_sticker",
          "type": "string"
        }
      ],
      "stateMutability": "view",
      "type": "function",
      "constant": true
    },
    {
      "inputs": [
        {
          "internalType": "address",
          "name": "_tokenIn",
          "type": "address"
        },
        {
          "internalType": "address",
          "name": "_tokenOut",
          "type": "address"
        }
      ],
      "name": "_uniswapV3PoolExists",
      "outputs": [
        {
          "internalType": "bool",
          "name": "pool_existence",
          "type": "bool"
        },
        {
          "internalType": "uint24",
          "name": "_poolFee",
          "type": "uint24"
        }
      ],
      "stateMutability": "view",
      "type": "function",
      "constant": true
    },
    {
      "inputs": [
        {
          "internalType": "address",
          "name": "_tokenIn",
          "type": "address"
        },
        {
          "internalType": "address",
          "name": "_tokenOut",
          "type": "address"
        },
        {
          "internalType": "address",
          "name": "_tokenBridge",
          "type": "address"
        },
        {
          "internalType": "uint256",
          "name": "_amountIn",
          "type": "uint256"
        }
      ],
      "name": "_tradeOnUniswapV3",
      "outputs": [
        {
          "internalType": "uint256",
          "name": "_amountOut",
          "type": "uint256"
        }
      ],
      "stateMutability": "nonpayable",
      "type": "function"
    },
    {
      "inputs": [],
      "name": "_refundInvestors",
      "outputs": [],
      "stateMutability": "payable",
      "type": "function",
      "payable": true
    },
    {
      "inputs": [],
      "name": "_reset",
      "outputs": [],
      "stateMutability": "nonpayable",
      "type": "function"
    }
  ],
  "bytecode": "0x60c06040526000600160006101000a81548160ff02191690836002811115610050577f4e487b7100000000000000000000000000000000000000000000000000000000600052602160045260246000fd5b0217905550731f98431c8ad98523631ae4a59f267346ea31f98473ffffffffffffffffffffffffffffffffffffffff1660809073ffffffffffffffffffffffffffffffffffffffff1660601b81525073e592427a0aece92de3edee1f18e0157c0586156473ffffffffffffffffffffffffffffffffffffffff1660a09073ffffffffffffffffffffffffffffffffffffffff1660601b8152503480156100f557600080fd5b506001600081905550336001806101000a81548173ffffffffffffffffffffffffffffffffffffffff021916908373ffffffffffffffffffffffffffffffffffffffff16021790555060805160601c60a05160601c6146b96200019b60003960008181610d580152818161225d015281816124aa015281816125f0015261287501526000818161113d01528181611229015281816113150152611bf201526146b96000f3fe6080604052600436106101d15760003560e01c80638da5cb5b116100f7578063ce7c2ac211610095578063ddbac79611610064578063ddbac79614610628578063de2d554b14610665578063e0bab4c41461068e578063e4a30116146106b9576101d8565b8063ce7c2ac214610575578063cf35bdd0146105b2578063d151b516146105f3578063d7bb99ba1461061e576101d8565b8063a32fad2d116100d1578063a32fad2d146104cb578063a890079214610508578063ad5c464814610533578063be57ed1e1461055e576101d8565b80638da5cb5b1461044a5780638ed91318146104755780639b2cb5d8146104a0576101d8565b80634dc32eff1161016f578063584edf101161013e578063584edf10146103e0578063645539ed146103ea5780637c84f91f146104155780638195abc81461041f576101d8565b80634dc32eff146103235780634e11e5901461034e57806350c9290314610377578063541bcb76146103b5576101d8565b80631f181d57116101ab5780631f181d57146102555780633a98ef391461027e5780633aecd0e3146102a95780633feb5f2b146102e6576101d8565b80630c3f6acf146101e857806312065fe0146102135780631592f0ab1461023e576101d8565b366101d857005b6000366060915050805190602001f35b3480156101f457600080fd5b506101fd6106e2565b60405161020a9190613de5565b60405180910390f35b34801561021f57600080fd5b506102286106f5565b60405161023591906140e0565b60405180910390f35b34801561024a57600080fd5b506102536106fd565b005b34801561026157600080fd5b5061027c60048036038101906102779190613314565b6108bb565b005b34801561028a57600080fd5b50610293610c8b565b6040516102a091906140e0565b60405180910390f35b3480156102b557600080fd5b506102d060048036038101906102cb91906130ef565b610c91565b6040516102dd91906140e0565b60405180910390f35b3480156102f257600080fd5b5061030d60048036038101906103089190613286565b610d23565b60405161031a9190613d0b565b60405180910390f35b34801561032f57600080fd5b50610338610d56565b6040516103459190613daf565b60405180910390f35b34801561035a57600080fd5b50610375600480360381019061037091906131e0565b610d7a565b005b34801561038357600080fd5b5061039e60048036038101906103999190613141565b61110b565b6040516103ac929190613d86565b60405180910390f35b3480156103c157600080fd5b506103ca6113ef565b6040516103d79190613d0b565b60405180910390f35b6103e8611407565b005b3480156103f657600080fd5b506103ff611826565b60405161040c9190614155565b60405180910390f35b61041d611839565b005b34801561042b57600080fd5b50610434611bf0565b6040516104419190613dca565b60405180910390f35b34801561045657600080fd5b5061045f611c14565b60405161046c9190613d0b565b60405180910390f35b34801561048157600080fd5b5061048a611c38565b60405161049791906140e0565b60405180910390f35b3480156104ac57600080fd5b506104b5611c3e565b6040516104c291906140e0565b60405180910390f35b3480156104d757600080fd5b506104f260048036038101906104ed91906130ef565b611c44565b6040516104ff9190613e00565b60405180910390f35b34801561051457600080fd5b5061051d611cd0565b60405161052a91906140e0565b60405180910390f35b34801561053f57600080fd5b50610548611cd6565b6040516105559190613d0b565b60405180910390f35b34801561056a57600080fd5b50610573611cee565b005b34801561058157600080fd5b5061059c600480360381019061059791906130ef565b611e50565b6040516105a991906140e0565b60405180910390f35b3480156105be57600080fd5b506105d960048036038101906105d49190613286565b611e68565b6040516105ea9594939291906140fb565b60405180910390f35b3480156105ff57600080fd5b50610608611f46565b60405161061591906140e0565b60405180910390f35b610626611f4c565b005b34801561063457600080fd5b5061064f600480360381019061064a919061317d565b61243b565b60405161065c91906140e0565b60405180910390f35b34801561067157600080fd5b5061068c60048036038101906106879190613314565b61296d565b005b34801561069a57600080fd5b506106a3612ced565b6040516106b09190613d0b565b60405180910390f35b3480156106c557600080fd5b506106e060048036038101906106db91906132d8565b612d05565b005b600160009054906101000a900460ff1681565b600047905090565b60005b6005548110156107c957600360006002600084815260200190815260200160002060009054906101000a900473ffffffffffffffffffffffffffffffffffffffff1673ffffffffffffffffffffffffffffffffffffffff1673ffffffffffffffffffffffffffffffffffffffff168152602001908152602001600020600090556002600082815260200190815260200160002060006101000a81549073ffffffffffffffffffffffffffffffffffffffff021916905580806107c19061448b565b915050610700565b5060005b60065481101561084f57600460008281526020019081526020016000206000808201600090556001820160006108039190612f0b565b6002820160006101000a81549073ffffffffffffffffffffffffffffffffffffffff021916905560038201600090556004820160009055505080806108479061448b565b9150506107cd565b506000600581905550600060068190555060006007819055506000600160006101000a81548160ff021916908360028111156108b4577f4e487b7100000000000000000000000000000000000000000000000000000000600052602160045260246000fd5b0217905550565b60018054906101000a900473ffffffffffffffffffffffffffffffffffffffff1673ffffffffffffffffffffffffffffffffffffffff163373ffffffffffffffffffffffffffffffffffffffff1614610949576040517f08c379a000000000000000000000000000000000000000000000000000000000815260040161094090613e82565b60405180910390fd5b600280811115610982577f4e487b7100000000000000000000000000000000000000000000000000000000600052602160045260246000fd5b600160009054906101000a900460ff1660028111156109ca577f4e487b7100000000000000000000000000000000000000000000000000000000600052602160045260246000fd5b14610a0a576040517f08c379a0000000000000000000000000000000000000000000000000000000008152600401610a0190613fc2565b60405180910390fd5b6000610a4b6004600086815260200190815260200160002060020160009054906101000a900473ffffffffffffffffffffffffffffffffffffffff16610c91565b11610a8b576040517f08c379a0000000000000000000000000000000000000000000000000000000008152600401610a8290613e62565b60405180910390fd5b610ab4816004600086815260200190815260200160002060030154612ec990919063ffffffff16565b821015610c86576000610afc6004600086815260200190815260200160002060020160009054906101000a900473ffffffffffffffffffffffffffffffffffffffff16610c91565b9050600073c778417e063141139fce010982780140aa0cd5ab73ffffffffffffffffffffffffffffffffffffffff166004600087815260200190815260200160002060020160009054906101000a900473ffffffffffffffffffffffffffffffffffffffff1673ffffffffffffffffffffffffffffffffffffffff161415610b9a57731f9840a85d5af5bf1d1762f925bdaddc4201f9849050610bb2565b73c778417e063141139fce010982780140aa0cd5ab90505b6000610c0a6004600088815260200190815260200160002060020160009054906101000a900473ffffffffffffffffffffffffffffffffffffffff16735592ec0cfb4dbc12d3ab100b257153436a1f0fea848661243b565b90506000610c218483612edf90919063ffffffff16565b9050610c4c82600460008a815260200190815260200160002060040154612ef590919063ffffffff16565b6004600089815260200190815260200160002060040181905550806004600089815260200190815260200160002060030181905550505050505b505050565b60075481565b60008173ffffffffffffffffffffffffffffffffffffffff166370a08231306040518263ffffffff1660e01b8152600401610ccc9190613d0b565b60206040518083038186803b158015610ce457600080fd5b505afa158015610cf8573d6000803e3d6000fd5b505050506040513d601f19601f82011682018060405250810190610d1c91906132af565b9050919050565b60026020528060005260406000206000915054906101000a900473ffffffffffffffffffffffffffffffffffffffff1681565b7f000000000000000000000000000000000000000000000000000000000000000081565b60018054906101000a900473ffffffffffffffffffffffffffffffffffffffff1673ffffffffffffffffffffffffffffffffffffffff163373ffffffffffffffffffffffffffffffffffffffff1614610e08576040517f08c379a0000000000000000000000000000000000000000000000000000000008152600401610dff90613e82565b60405180910390fd5b600954421015610e4d576040517f08c379a0000000000000000000000000000000000000000000000000000000008152600401610e4490613f22565b60405180910390fd5b6000610e6c735592ec0cfb4dbc12d3ab100b257153436a1f0fea610c91565b11610eac576040517f08c379a0000000000000000000000000000000000000000000000000000000008152600401610ea390613ea2565b60405180910390fd5b60008111610eef576040517f08c379a0000000000000000000000000000000000000000000000000000000008152600401610ee690614022565b60405180910390fd5b735592ec0cfb4dbc12d3ab100b257153436a1f0fea73ffffffffffffffffffffffffffffffffffffffff168273ffffffffffffffffffffffffffffffffffffffff161415610f72576040517f08c379a0000000000000000000000000000000000000000000000000000000008152600401610f6990613f42565b60405180910390fd5b6000610fa8735592ec0cfb4dbc12d3ab100b257153436a1f0fea8473c778417e063141139fce010982780140aa0cd5ab8561243b565b905060008183610fb8919061426a565b90506040518060a001604052806006548152602001610fd686611c44565b81526020018573ffffffffffffffffffffffffffffffffffffffff168152602001828152602001600081525060046000600654815260200190815260200160002060008201518160000155602082015181600101908051906020019061103d929190612f4b565b5060408201518160020160006101000a81548173ffffffffffffffffffffffffffffffffffffffff021916908373ffffffffffffffffffffffffffffffffffffffff1602179055506060820151816003015560808201518160040155905050600660008154809291906110af9061448b565b91905055506002600160006101000a81548160ff02191690836002811115611100577f4e487b7100000000000000000000000000000000000000000000000000000000600052602160045260246000fd5b021790555050505050565b60008060006101f490506000610bb8905060006127109050600073ffffffffffffffffffffffffffffffffffffffff167f000000000000000000000000000000000000000000000000000000000000000073ffffffffffffffffffffffffffffffffffffffff16631698ee828989876040518463ffffffff1660e01b815260040161119893929190613d26565b60206040518083038186803b1580156111b057600080fd5b505afa1580156111c4573d6000803e3d6000fd5b505050506040513d601f19601f820116820180604052508101906111e89190613118565b73ffffffffffffffffffffffffffffffffffffffff161461120f57829350600194506113e5565b600073ffffffffffffffffffffffffffffffffffffffff167f000000000000000000000000000000000000000000000000000000000000000073ffffffffffffffffffffffffffffffffffffffff16631698ee828989866040518463ffffffff1660e01b815260040161128493929190613d26565b60206040518083038186803b15801561129c57600080fd5b505afa1580156112b0573d6000803e3d6000fd5b505050506040513d601f19601f820116820180604052508101906112d49190613118565b73ffffffffffffffffffffffffffffffffffffffff16146112fb57819350600194506113e4565b600073ffffffffffffffffffffffffffffffffffffffff167f000000000000000000000000000000000000000000000000000000000000000073ffffffffffffffffffffffffffffffffffffffff16631698ee828989856040518463ffffffff1660e01b815260040161137093929190613d26565b60206040518083038186803b15801561138857600080fd5b505afa15801561139c573d6000803e3d6000fd5b505050506040513d601f19601f820116820180604052508101906113c09190613118565b73ffffffffffffffffffffffffffffffffffffffff16146113e357809350600194505b5b5b5050509250929050565b731f9840a85d5af5bf1d1762f925bdaddc4201f98481565b60018054906101000a900473ffffffffffffffffffffffffffffffffffffffff1673ffffffffffffffffffffffffffffffffffffffff163373ffffffffffffffffffffffffffffffffffffffff1614611495576040517f08c379a000000000000000000000000000000000000000000000000000000000815260040161148c90613e82565b60405180910390fd5b600260005414156114db576040517f08c379a00000000000000000000000000000000000000000000000000000000081526004016114d290614062565b60405180910390fd5b600260008190555060005b60065481101561180b5760006115316004600084815260200190815260200160002060020160009054906101000a900473ffffffffffffffffffffffffffffffffffffffff16610c91565b11156117f85773c778417e063141139fce010982780140aa0cd5ab73ffffffffffffffffffffffffffffffffffffffff166004600083815260200190815260200160002060020160009054906101000a900473ffffffffffffffffffffffffffffffffffffffff1673ffffffffffffffffffffffffffffffffffffffff16146116645760006115f56004600084815260200190815260200160002060020160009054906101000a900473ffffffffffffffffffffffffffffffffffffffff16610c91565b90506116616004600084815260200190815260200160002060020160009054906101000a900473ffffffffffffffffffffffffffffffffffffffff1673c778417e063141139fce010982780140aa0cd5ab735592ec0cfb4dbc12d3ab100b257153436a1f0fea8461243b565b50505b73c778417e063141139fce010982780140aa0cd5ab73ffffffffffffffffffffffffffffffffffffffff1663095ea7b3306116b273c778417e063141139fce010982780140aa0cd5ab610c91565b6040518363ffffffff1660e01b81526004016116cf929190613d5d565b602060405180830381600087803b1580156116e957600080fd5b505af11580156116fd573d6000803e3d6000fd5b505050506040513d601f19601f82011682018060405250810190611721919061321c565b5073c778417e063141139fce010982780140aa0cd5ab73ffffffffffffffffffffffffffffffffffffffff16632e1a7d4d61176f73c778417e063141139fce010982780140aa0cd5ab610c91565b6040518263ffffffff1660e01b815260040161178b91906140e0565b600060405180830381600087803b1580156117a557600080fd5b505af11580156117b9573d6000803e3d6000fd5b50505050600060046000838152602001908152602001600020600401819055506000806004600084815260200190815260200160002060030181905550505b80806118039061448b565b9150506114e6565b50611814611839565b61181c6106fd565b6001600081905550565b600160159054906101000a900460ff1681565b60001515600160169054906101000a900460ff1615151461188f576040517f08c379a000000000000000000000000000000000000000000000000000000000815260040161188690613fe2565b60405180910390fd5b60018060166101000a81548160ff02191690831515021790555060006118c8735592ec0cfb4dbc12d3ab100b257153436a1f0fea610c91565b1115611a5f5760006118ed735592ec0cfb4dbc12d3ab100b257153436a1f0fea610c91565b90506000611939735592ec0cfb4dbc12d3ab100b257153436a1f0fea73c778417e063141139fce010982780140aa0cd5ab731f9840a85d5af5bf1d1762f925bdaddc4201f9848561243b565b905073c778417e063141139fce010982780140aa0cd5ab73ffffffffffffffffffffffffffffffffffffffff1663095ea7b330836040518363ffffffff1660e01b815260040161198a929190613d5d565b602060405180830381600087803b1580156119a457600080fd5b505af11580156119b8573d6000803e3d6000fd5b505050506040513d601f19601f820116820180604052508101906119dc919061321c565b5073c778417e063141139fce010982780140aa0cd5ab73ffffffffffffffffffffffffffffffffffffffff16632e1a7d4d826040518263ffffffff1660e01b8152600401611a2a91906140e0565b600060405180830381600087803b158015611a4457600080fd5b505af1158015611a58573d6000803e3d6000fd5b5050505050505b60004711611aa2576040517f08c379a0000000000000000000000000000000000000000000000000000000008152600401611a9990613fa2565b60405180910390fd5b600047905060005b600554811015611bd1576000600754600360006002600086815260200190815260200160002060009054906101000a900473ffffffffffffffffffffffffffffffffffffffff1673ffffffffffffffffffffffffffffffffffffffff1673ffffffffffffffffffffffffffffffffffffffff1681526020019081526020016000205484611b37919061429b565b611b41919061426a565b90506002600083815260200190815260200160002060009054906101000a900473ffffffffffffffffffffffffffffffffffffffff1673ffffffffffffffffffffffffffffffffffffffff166108fc829081150290604051600060405180830381858888f19350505050158015611bbc573d6000803e3d6000fd5b50508080611bc99061448b565b915050611aaa565b506000600160166101000a81548160ff02191690831515021790555050565b7f000000000000000000000000000000000000000000000000000000000000000081565b60018054906101000a900473ffffffffffffffffffffffffffffffffffffffff1681565b60065481565b60085481565b60608173ffffffffffffffffffffffffffffffffffffffff166395d89b416040518163ffffffff1660e01b815260040160006040518083038186803b158015611c8c57600080fd5b505afa158015611ca0573d6000803e3d6000fd5b505050506040513d6000823e3d601f19601f82011682018060405250810190611cc99190613245565b9050919050565b60055481565b73c778417e063141139fce010982780140aa0cd5ab81565b60018054906101000a900473ffffffffffffffffffffffffffffffffffffffff1673ffffffffffffffffffffffffffffffffffffffff163373ffffffffffffffffffffffffffffffffffffffff1614611d7c576040517f08c379a0000000000000000000000000000000000000000000000000000000008152600401611d7390613e82565b60405180910390fd5b60016002811115611db6577f4e487b7100000000000000000000000000000000000000000000000000000000600052602160045260246000fd5b600160009054906101000a900460ff166002811115611dfe577f4e487b7100000000000000000000000000000000000000000000000000000000600052602160045260246000fd5b14611e3e576040517f08c379a0000000000000000000000000000000000000000000000000000000008152600401611e3590614002565b60405180910390fd5b611e46611839565b611e4e6106fd565b565b60036020528060005260406000206000915090505481565b6004602052806000526040600020600091509050806000015490806001018054611e9190614459565b80601f0160208091040260200160405190810160405280929190818152602001828054611ebd90614459565b8015611f0a5780601f10611edf57610100808354040283529160200191611f0a565b820191906000526020600020905b815481529060010190602001808311611eed57829003601f168201915b5050505050908060020160009054906101000a900473ffffffffffffffffffffffffffffffffffffffff16908060030154908060040154905085565b60095481565b6009544210611f90576040517f08c379a0000000000000000000000000000000000000000000000000000000008152600401611f8790613ee2565b60405180910390fd5b60026000541415611fd6576040517f08c379a0000000000000000000000000000000000000000000000000000000008152600401611fcd90614062565b60405180910390fd5b600260008190555060016002811115612018577f4e487b7100000000000000000000000000000000000000000000000000000000600052602160045260246000fd5b600160009054906101000a900460ff166002811115612060577f4e487b7100000000000000000000000000000000000000000000000000000000600052602160045260246000fd5b146120a0576040517f08c379a000000000000000000000000000000000000000000000000000000000815260040161209790614042565b60405180910390fd5b6008543410156120e5576040517f08c379a00000000000000000000000000000000000000000000000000000000081526004016120dc90613e22565b60405180910390fd5b60008061211a73c778417e063141139fce010982780140aa0cd5ab735592ec0cfb4dbc12d3ab100b257153436a1f0fea61110b565b915091508161215e576040517f08c379a000000000000000000000000000000000000000000000000000000000815260040161215590613f02565b60405180910390fd5b6000612174600f42612ef590919063ffffffff16565b9050600073c778417e063141139fce010982780140aa0cd5ab90506000735592ec0cfb4dbc12d3ab100b257153436a1f0fea90506000849050600030905060003490506000600190506000806040518061010001604052808973ffffffffffffffffffffffffffffffffffffffff1681526020018873ffffffffffffffffffffffffffffffffffffffff1681526020018762ffffff1681526020018673ffffffffffffffffffffffffffffffffffffffff1681526020018a81526020018581526020018481526020018373ffffffffffffffffffffffffffffffffffffffff16815250905060007f000000000000000000000000000000000000000000000000000000000000000073ffffffffffffffffffffffffffffffffffffffff1663414bf38934846040518363ffffffff1660e01b81526004016122b591906140c4565b6020604051808303818588803b1580156122ce57600080fd5b505af11580156122e2573d6000803e3d6000fd5b50505050506040513d601f19601f8201168201806040525081019061230791906132af565b90503360026000600554815260200190815260200160002060006101000a81548173ffffffffffffffffffffffffffffffffffffffff021916908373ffffffffffffffffffffffffffffffffffffffff1602179055506123af81600360003373ffffffffffffffffffffffffffffffffffffffff1673ffffffffffffffffffffffffffffffffffffffff16815260200190815260200160002054612ef590919063ffffffff16565b600360003373ffffffffffffffffffffffffffffffffffffffff1673ffffffffffffffffffffffffffffffffffffffff1681526020019081526020016000208190555061240781600754612ef590919063ffffffff16565b600781905550600560008154809291906124209061448b565b91905055505050505050505050505050506001600081905550565b6000612445612fd1565b6000806060612454898961110b565b856000018162ffffff1662ffffff16815250819450505082156126ed5760018060156101000a81548160ff021916908360ff1602179055508873ffffffffffffffffffffffffffffffffffffffff1663095ea7b37f0000000000000000000000000000000000000000000000000000000000000000886040518363ffffffff1660e01b81526004016124e7929190613d5d565b602060405180830381600087803b15801561250157600080fd5b505af1158015612515573d6000803e3d6000fd5b505050506040513d601f19601f82011682018060405250810190612539919061321c565b5060006040518061010001604052808b73ffffffffffffffffffffffffffffffffffffffff1681526020018a73ffffffffffffffffffffffffffffffffffffffff168152602001866000015162ffffff1681526020013073ffffffffffffffffffffffffffffffffffffffff1681526020016125bf600f42612ef590919063ffffffff16565b815260200188815260200160018152602001600073ffffffffffffffffffffffffffffffffffffffff1681525090507f000000000000000000000000000000000000000000000000000000000000000073ffffffffffffffffffffffffffffffffffffffff1663414bf38960e01b8260405160200161263e91906140c4565b60405160208183030381529060405260405160200161265e929190613ccc565b60405160208183030381529060405260405161267a9190613cf4565b6000604051808303816000865af19150503d80600081146126b7576040519150601f19603f3d011682016040523d82523d6000602084013e6126bc565b606091505b50809350819450505082156126eb57818060200190518101906126df91906132af565b95505050505050612965565b505b600015158315151480612704575060001515821515145b1561292a576002600160156101000a81548160ff021916908360ff16021790555061272f898861110b565b856020018162ffffff1662ffffff16815250819450505082612786576040517f08c379a000000000000000000000000000000000000000000000000000000000815260040161277d90613ec2565b60405180910390fd5b60009250612794878961110b565b856040018162ffffff1662ffffff168152508194505050826127eb576040517f08c379a00000000000000000000000000000000000000000000000000000000081526004016127e290613f82565b60405180910390fd5b6000925060006040518060a001604052808b87602001518b89604001518e60405160200161281d959493929190613c6d565b60405160208183030381529060405281526020013073ffffffffffffffffffffffffffffffffffffffff168152602001612861600f42612ef590919063ffffffff16565b8152602001888152602001600181525090507f000000000000000000000000000000000000000000000000000000000000000073ffffffffffffffffffffffffffffffffffffffff1663c04b8d59826040518263ffffffff1660e01b81526004016128cc91906140a2565b602060405180830381600087803b1580156128e657600080fd5b505af11580156128fa573d6000803e3d6000fd5b505050506040513d601f19601f8201168201806040525081019061291e91906132af565b95505050505050612965565b6040517f08c379a000000000000000000000000000000000000000000000000000000000815260040161295c90614082565b60405180910390fd5b949350505050565b60018054906101000a900473ffffffffffffffffffffffffffffffffffffffff1673ffffffffffffffffffffffffffffffffffffffff163373ffffffffffffffffffffffffffffffffffffffff16146129fb576040517f08c379a00000000000000000000000000000000000000000000000000000000081526004016129f290613e82565b60405180910390fd5b600280811115612a34577f4e487b7100000000000000000000000000000000000000000000000000000000600052602160045260246000fd5b600160009054906101000a900460ff166002811115612a7c577f4e487b7100000000000000000000000000000000000000000000000000000000600052602160045260246000fd5b14612abc576040517f08c379a0000000000000000000000000000000000000000000000000000000008152600401612ab390613fc2565b60405180910390fd5b6000600460008581526020019081526020016000206004015411612b15576040517f08c379a0000000000000000000000000000000000000000000000000000000008152600401612b0c90613e42565b60405180910390fd5b612b3e816004600086815260200190815260200160002060030154612ef590919063ffffffff16565b821115612ce857600060046000858152602001908152602001600020600401549050600073c778417e063141139fce010982780140aa0cd5ab73ffffffffffffffffffffffffffffffffffffffff166004600087815260200190815260200160002060020160009054906101000a900473ffffffffffffffffffffffffffffffffffffffff1673ffffffffffffffffffffffffffffffffffffffff161415612bfc57731f9840a85d5af5bf1d1762f925bdaddc4201f9849050612c14565b73c778417e063141139fce010982780140aa0cd5ab90505b6000612c6c735592ec0cfb4dbc12d3ab100b257153436a1f0fea6004600089815260200190815260200160002060020160009054906101000a900473ffffffffffffffffffffffffffffffffffffffff16848661243b565b90506000612c838285612edf90919063ffffffff16565b9050612cae84600460008a815260200190815260200160002060040154612ec990919063ffffffff16565b6004600089815260200190815260200160002060040181905550806004600089815260200190815260200160002060030181905550505050505b505050565b735592ec0cfb4dbc12d3ab100b257153436a1f0fea81565b60018054906101000a900473ffffffffffffffffffffffffffffffffffffffff1673ffffffffffffffffffffffffffffffffffffffff163373ffffffffffffffffffffffffffffffffffffffff1614612d93576040517f08c379a0000000000000000000000000000000000000000000000000000000008152600401612d8a90613e82565b60405180910390fd5b60006002811115612dcd577f4e487b7100000000000000000000000000000000000000000000000000000000600052602160045260246000fd5b600160009054906101000a900460ff166002811115612e15577f4e487b7100000000000000000000000000000000000000000000000000000000600052602160045260246000fd5b14612e55576040517f08c379a0000000000000000000000000000000000000000000000000000000008152600401612e4c90613f62565b60405180910390fd5b81600881905550612e6f8142612ef590919063ffffffff16565b60098190555060018060006101000a81548160ff02191690836002811115612ec0577f4e487b7100000000000000000000000000000000000000000000000000000000600052602160045260246000fd5b02179055505050565b60008183612ed791906142f5565b905092915050565b60008183612eed919061426a565b905092915050565b60008183612f039190614214565b905092915050565b508054612f1790614459565b6000825580601f10612f295750612f48565b601f016020900490600052602060002090810190612f479190613001565b5b50565b828054612f5790614459565b90600052602060002090601f016020900481019282612f795760008555612fc0565b82601f10612f9257805160ff1916838001178555612fc0565b82800160010185558215612fc0579182015b82811115612fbf578251825591602001919060010190612fa4565b5b509050612fcd9190613001565b5090565b6040518060600160405280600062ffffff168152602001600062ffffff168152602001600062ffffff1681525090565b5b8082111561301a576000816000905550600101613002565b5090565b600061303161302c846141a1565b614170565b90508281526020810184848401111561304957600080fd5b613054848285614426565b509392505050565b60008135905061306b8161463e565b92915050565b6000815190506130808161463e565b92915050565b60008151905061309581614655565b92915050565b600082601f8301126130ac57600080fd5b81516130bc84826020860161301e565b91505092915050565b6000813590506130d48161466c565b92915050565b6000815190506130e98161466c565b92915050565b60006020828403121561310157600080fd5b600061310f8482850161305c565b91505092915050565b60006020828403121561312a57600080fd5b600061313884828501613071565b91505092915050565b6000806040838503121561315457600080fd5b60006131628582860161305c565b92505060206131738582860161305c565b9150509250929050565b6000806000806080858703121561319357600080fd5b60006131a18782880161305c565b94505060206131b28782880161305c565b93505060406131c38782880161305c565b92505060606131d4878288016130c5565b91505092959194509250565b600080604083850312156131f357600080fd5b60006132018582860161305c565b9250506020613212858286016130c5565b9150509250929050565b60006020828403121561322e57600080fd5b600061323c84828501613086565b91505092915050565b60006020828403121561325757600080fd5b600082015167ffffffffffffffff81111561327157600080fd5b61327d8482850161309b565b91505092915050565b60006020828403121561329857600080fd5b60006132a6848285016130c5565b91505092915050565b6000602082840312156132c157600080fd5b60006132cf848285016130da565b91505092915050565b600080604083850312156132eb57600080fd5b60006132f9858286016130c5565b925050602061330a858286016130c5565b9150509250929050565b60008060006060848603121561332957600080fd5b6000613337868287016130c5565b9350506020613348868287016130c5565b9250506040613359868287016130c5565b9150509250925092565b61336c81614329565b82525050565b61337b81614329565b82525050565b61339261338d82614329565b6144d4565b82525050565b6133a18161433b565b82525050565b6133b86133b382614347565b6144e6565b82525050565b60006133c9826141d1565b6133d381856141e7565b93506133e3818560208601614426565b6133ec816145ff565b840191505092915050565b6000613402826141d1565b61340c81856141f8565b935061341c818560208601614426565b80840191505092915050565b613431816143cc565b82525050565b613440816143f0565b82525050565b61344f81614414565b82525050565b6000613460826141dc565b61346a8185614203565b935061347a818560208601614426565b613483816145ff565b840191505092915050565b600061349b602683614203565b91507f596f75206d75737420636f6e7472696275746520746865206d696e696d756d2060008301527f616d6f756e7400000000000000000000000000000000000000000000000000006020830152604082019050919050565b6000613501601283614203565b91507f4e6f2066756e647320617661696c61626c6500000000000000000000000000006000830152602082019050919050565b6000613541601283614203565b91507f4e6f20746f6b656e20617661696c61626c6500000000000000000000000000006000830152602082019050919050565b6000613581602183614203565b91507f4f6e6c79206f776e65722063616e2063616c6c20746869732066756e6374696f60008301527f6e000000000000000000000000000000000000000000000000000000000000006020830152604082019050919050565b60006135e7603883614203565b91507f4e6f206d6f726520746f6b656e206f66206261736543757272656e637920617660008301527f61696c61626c6520696e207468697320636f6e747261637400000000000000006020830152604082019050919050565b600061364d601d83614203565b91507f506f6f6c20746f2062726964676520646f6573206e6f742065786973740000006000830152602082019050919050565b600061368d600983614203565b91507f54696d65206f76657200000000000000000000000000000000000000000000006000830152602082019050919050565b60006136cd601383614203565b91507f506f6f6c20646f6573206e6f74206578697374000000000000000000000000006000830152602082019050919050565b600061370d602383614203565b91507f436f6e74726962757474696f6e20706572696f64206e6f74207965742070617360008301527f73656400000000000000000000000000000000000000000000000000000000006020830152604082019050919050565b6000613773603083614203565b91507f596f752063616e206e6f74207472616465206261736543757272656e6379206960008301527f6e746f206261736543757272656e6379000000000000000000000000000000006020830152604082019050919050565b60006137d9601283614203565b91507f5374617465206d7573742062652069646c6500000000000000000000000000006000830152602082019050919050565b6000613819603283614203565b91507f506f6f6c2066726f6d205f746f6b656e42726964676520746f205f746f6b656e60008301527f4f757420646f6573206e6f7420657869737400000000000000000000000000006020830152604082019050919050565b600061387f602683614203565b91507f4e6f20657468657220617661696c61626c6520746f206265207265646973747260008301527f69627574656400000000000000000000000000000000000000000000000000006020830152604082019050919050565b60006138e5602083614203565b91507f54726164696e67626f74206d75737420626520737461727465642066697273746000830152602082019050919050565b6000613925601483614203565b91507f50726f74656374696f6e206163746976617465640000000000000000000000006000830152602082019050919050565b6000613965602e83614203565b91507f426f742068617320737461727465642074726164696e6720616e642063616e2060008301527f6e6f742062652063616e636c65640000000000000000000000000000000000006020830152604082019050919050565b60006139cb603683614203565b91507f456163682072656769737465726564206173736574206d75737420676574206160008301527f2076616c7565206f66206261736543757272656e6379000000000000000000006020830152604082019050919050565b6000613a31601a83614203565b91507f5374617465206d75737420626520636f6e747269627574696e670000000000006000830152602082019050919050565b6000613a71601f83614203565b91507f5265656e7472616e637947756172643a207265656e7472616e742063616c6c006000830152602082019050919050565b6000613ab1601583614203565b91507f436f756c64206e6f7420747261646520617373657400000000000000000000006000830152602082019050919050565b600060a0830160008301518482036000860152613b0182826133be565b9150506020830151613b166020860182613363565b506040830151613b296040860182613c40565b506060830151613b3c6060860182613c40565b506080830151613b4f6080860182613c40565b508091505092915050565b61010082016000820151613b716000850182613363565b506020820151613b846020850182613363565b506040820151613b976040850182613c0b565b506060820151613baa6060850182613363565b506080820151613bbd6080850182613c40565b5060a0820151613bd060a0850182613c40565b5060c0820151613be360c0850182613c40565b5060e0820151613bf660e0850182613bfc565b50505050565b613c0581614386565b82525050565b613c14816143a6565b82525050565b613c23816143a6565b82525050565b613c3a613c35826143a6565b614502565b82525050565b613c49816143b5565b82525050565b613c58816143b5565b82525050565b613c67816143bf565b82525050565b6000613c798288613381565b601482019150613c898287613c29565b600382019150613c998286613381565b601482019150613ca98285613c29565b600382019150613cb98284613381565b6014820191508190509695505050505050565b6000613cd882856133a7565b600482019150613ce882846133f7565b91508190509392505050565b6000613d0082846133f7565b915081905092915050565b6000602082019050613d206000830184613372565b92915050565b6000606082019050613d3b6000830186613372565b613d486020830185613372565b613d556040830184613c1a565b949350505050565b6000604082019050613d726000830185613372565b613d7f6020830184613c4f565b9392505050565b6000604082019050613d9b6000830185613398565b613da86020830184613c1a565b9392505050565b6000602082019050613dc46000830184613428565b92915050565b6000602082019050613ddf6000830184613437565b92915050565b6000602082019050613dfa6000830184613446565b92915050565b60006020820190508181036000830152613e1a8184613455565b905092915050565b60006020820190508181036000830152613e3b8161348e565b9050919050565b60006020820190508181036000830152613e5b816134f4565b9050919050565b60006020820190508181036000830152613e7b81613534565b9050919050565b60006020820190508181036000830152613e9b81613574565b9050919050565b60006020820190508181036000830152613ebb816135da565b9050919050565b60006020820190508181036000830152613edb81613640565b9050919050565b60006020820190508181036000830152613efb81613680565b9050919050565b60006020820190508181036000830152613f1b816136c0565b9050919050565b60006020820190508181036000830152613f3b81613700565b9050919050565b60006020820190508181036000830152613f5b81613766565b9050919050565b60006020820190508181036000830152613f7b816137cc565b9050919050565b60006020820190508181036000830152613f9b8161380c565b9050919050565b60006020820190508181036000830152613fbb81613872565b9050919050565b60006020820190508181036000830152613fdb816138d8565b9050919050565b60006020820190508181036000830152613ffb81613918565b9050919050565b6000602082019050818103600083015261401b81613958565b9050919050565b6000602082019050818103600083015261403b816139be565b9050919050565b6000602082019050818103600083015261405b81613a24565b9050919050565b6000602082019050818103600083015261407b81613a64565b9050919050565b6000602082019050818103600083015261409b81613aa4565b9050919050565b600060208201905081810360008301526140bc8184613ae4565b905092915050565b6000610100820190506140da6000830184613b5a565b92915050565b60006020820190506140f56000830184613c4f565b92915050565b600060a0820190506141106000830188613c4f565b81810360208301526141228187613455565b90506141316040830186613372565b61413e6060830185613c4f565b61414b6080830184613c4f565b9695505050505050565b600060208201905061416a6000830184613c5e565b92915050565b6000604051905081810181811067ffffffffffffffff82111715614197576141966145d0565b5b8060405250919050565b600067ffffffffffffffff8211156141bc576141bb6145d0565b5b601f19601f8301169050602081019050919050565b600081519050919050565b600081519050919050565b600082825260208201905092915050565b600081905092915050565b600082825260208201905092915050565b600061421f826143b5565b915061422a836143b5565b9250827fffffffffffffffffffffffffffffffffffffffffffffffffffffffffffffffff0382111561425f5761425e614514565b5b828201905092915050565b6000614275826143b5565b9150614280836143b5565b9250826142905761428f614543565b5b828204905092915050565b60006142a6826143b5565b91506142b1836143b5565b9250817fffffffffffffffffffffffffffffffffffffffffffffffffffffffffffffffff04831182151516156142ea576142e9614514565b5b828202905092915050565b6000614300826143b5565b915061430b836143b5565b92508282101561431e5761431d614514565b5b828203905092915050565b600061433482614386565b9050919050565b60008115159050919050565b60007fffffffff0000000000000000000000000000000000000000000000000000000082169050919050565b60008190506143818261462a565b919050565b600073ffffffffffffffffffffffffffffffffffffffff82169050919050565b600062ffffff82169050919050565b6000819050919050565b600060ff82169050919050565b60006143d7826143de565b9050919050565b60006143e982614386565b9050919050565b60006143fb82614402565b9050919050565b600061440d82614386565b9050919050565b600061441f82614373565b9050919050565b60005b83811015614444578082015181840152602081019050614429565b83811115614453576000848401525b50505050565b6000600282049050600182168061447157607f821691505b60208210811415614485576144846145a1565b5b50919050565b6000614496826143b5565b91507fffffffffffffffffffffffffffffffffffffffffffffffffffffffffffffffff8214156144c9576144c8614514565b5b600182019050919050565b60006144df826144f0565b9050919050565b6000819050919050565b60006144fb8261461d565b9050919050565b600061450d82614610565b9050919050565b7f4e487b7100000000000000000000000000000000000000000000000000000000600052601160045260246000fd5b7f4e487b7100000000000000000000000000000000000000000000000000000000600052601260045260246000fd5b7f4e487b7100000000000000000000000000000000000000000000000000000000600052602160045260246000fd5b7f4e487b7100000000000000000000000000000000000000000000000000000000600052602260045260246000fd5b7f4e487b7100000000000000000000000000000000000000000000000000000000600052604160045260246000fd5b6000601f19601f8301169050919050565b60008160e81b9050919050565b60008160601b9050919050565b6003811061463b5761463a614572565b5b50565b61464781614329565b811461465257600080fd5b50565b61465e8161433b565b811461466957600080fd5b50565b614675816143b5565b811461468057600080fd5b5056fea2646970667358221220ec4e638673d7a80f6cf382687f7f5ac25b776d338024323af662d3cbd889a6f864736f6c63430008000033",
  "immutableReferences": {
    "787": [
      {
        "length": 32,
        "start": 4413
      },
      {
        "length": 32,
        "start": 4649
      },
      {
        "length": 32,
        "start": 4885
      },
      {
        "length": 32,
        "start": 7154
      }
    ],
    "793": [
      {
        "length": 32,
        "start": 3416
      },
      {
        "length": 32,
        "start": 8797
      },
      {
        "length": 32,
        "start": 9386
      },
      {
        "length": 32,
        "start": 9712
      },
      {
        "length": 32,
        "start": 10357
      }
    ]
  },
  "source": "//SPDX-License-Identifier: MIT\npragma solidity ^0.8.0;\n// pargma experimental ABIEncoderV2 no longer necessary from solidity 0.8.0\n\n// LEARNING:\n// - DAO Investment concept\n// - Integration of Uniswap as DEX to trade on\n\nimport \"@uniswap/v3-core/contracts/interfaces/IUniswapV3Factory.sol\";\nimport \"@uniswap/v3-periphery/contracts/interfaces/ISwapRouter.sol\";\n\nimport \"@openzeppelin/contracts/interfaces/IERC20.sol\";\nimport \"@openzeppelin/contracts/token/ERC20/extensions/IERC20Metadata.sol\";\nimport \"@openzeppelin/contracts/utils/math/SafeMath.sol\";\nimport \"@OpenZeppelin/contracts/security/ReentrancyGuard.sol\";\n\n\n\ninterface IWETH9 {\n    function balanceOf(address account) external view returns (uint256);\n    function deposit() external payable;\n\n    function withdraw(uint256 wad) external;\n    function approve(address guy, uint wad) external returns (bool);\n}\n\n\n\ncontract Tradingbot is ReentrancyGuard {\n  using SafeMath for uint;\n\n  enum State {\n    IDLE,\n    CONTRIBUTING,\n    TRADING\n  }\n  State public currentState = State.IDLE;\n\n  struct Asset {\n    uint id;\n    string sticker;\n    address tokenAddress;\n    uint lastPrice;\n    uint availableFunds;\n  }\n\n  struct PoolFee {\n    uint24 fee1;\n    uint24 fee2;\n    uint24 fee3;\n  }\n\n  address public owner;\n  uint8 public direction;\n  bool private protect;\n\n  mapping(uint => address) public investors; // registered investors\n  mapping(address => uint) public shares; // shares per investor\n  mapping(uint => Asset) public assets; // registered token to  % of Portfolio\n\n  uint public nextInvestorId;\n  uint public nextAssetId;\n  uint public totalShares;\n  uint public minAmount;\n  uint public contributionEnd;\n\n  // allows to call functions from the Uniswap Factory contract\n  IUniswapV3Factory public immutable SwapV3Factory = IUniswapV3Factory(0x1F98431c8aD98523631AE4a59f267346ea31F984);\n\n  // allows to call functions from the Uniswap SwapRouter Interface\n  ISwapRouter public immutable SwapRouter = ISwapRouter(0xE592427A0AEce92De3Edee1F18E0157C05861564);\n\n  // we hardcode the token addresses (in production we would use an input parameter for this)\n  address public constant WETH = 0xc778417E063141139Fce010982780140Aa0cD5Ab; // WETH on Rinkeby Testnet\n  address public constant DAI = 0x5592EC0cfb4dbc12D3aB100b257153436a1f0FEa; // DAI on Rinkeby Testnet\n  address public constant UNI = 0x1f9840a85d5aF5bf1D1762F925BDADdC4201F984; // Uniswap on Rinkeby Testnet\n\n\n  // 1a. Define the admin of the investment contract\n  constructor() {\n    owner = msg.sender;\n  }\n\n  fallback (bytes calldata _input) external payable returns (bytes memory _output) {}\n\n  receive() external payable {}\n\n  // 1b. Seperate initialize() function to reinitialize the contract for trading; not possible if this would be defined in constructor\n  function initialize(uint _minAmount, uint duration) external onlyOwner() {\n    require(currentState == State.IDLE, \"State must be idle\");\n    minAmount = _minAmount;\n    contributionEnd = block.timestamp.add(duration);\n\n    currentState = State.CONTRIBUTING;\n  }\n\n\n  // 2. DAO concept; anybody can contribute and will be registered as investor\n  function contribute() external payable timeOut() nonReentrant {\n    require(currentState == State.CONTRIBUTING, \"State must be contributing\");\n    require(msg.value >= minAmount, \"You must contribute the minimum amount\");\n    (bool _success, uint24 _poolFee) = _uniswapV3PoolExists(WETH, DAI);\n    require(_success, \"Pool does not exist\");\n\n    uint256 deadline = block.timestamp.add(15); // using 'now' for convenience, for mainnet pass deadline from frontend!\n    address tokenIn = WETH;\n    address tokenOut = DAI;\n    uint24 fee = _poolFee;\n    address recipient = address(this);\n    uint256 amountIn = msg.value;\n    uint256 amountOutMinimum = 1;\n    uint160 sqrtPriceLimitX96 = 0;\n\n    ISwapRouter.ExactInputSingleParams memory params = ISwapRouter.ExactInputSingleParams(\n        tokenIn,\n        tokenOut,\n        fee,\n        recipient,\n        deadline,\n        amountIn,\n        amountOutMinimum,\n        sqrtPriceLimitX96\n    );\n\n\n    uint amountOut = SwapRouter.exactInputSingle{ value: msg.value }(params);\n\n    // an investor can contribute mutiple times; therefore shares neet to be +=;\n    investors[nextInvestorId] = msg.sender;\n    shares[msg.sender] = shares[msg.sender].add(amountOut);\n    totalShares = totalShares.add(amountOut);\n\n    // an address is registered as an investor if it has contributed the min amount once and nextInvestorId will be incremented\n    nextInvestorId++;\n\n  }\n\n  // 3. As long as currentState = State.IDLE the owner can cancel the bot and refund the money\n  function cancelTradingbot() external onlyOwner() {\n    require(currentState == State.CONTRIBUTING, \"Bot has started trading and can not be cancled\");\n\n    _refundInvestors();\n\n    _reset();\n\n  }\n\n\n  // 4. Initial buy of token to be traded\n  // As long as there are funds of baseCurrency available you can invest in token\n  function initialAssetBuy(address tokenOut, uint value) external onlyOwner() {\n      require(block.timestamp >= contributionEnd, \"Contributtion period not yet passed\");\n      require(getTokenBalance(DAI) > 0, \"No more token of baseCurrency available in this contract\");\n      require(value > 0, \"Each registered asset must get a value of baseCurrency\");\n      require(tokenOut != DAI, \"You can not trade baseCurrency into baseCurrency\");\n\n      // function trade\n      uint amountOut = _tradeOnUniswapV3(DAI, tokenOut, WETH, value);\n      uint price = (value / amountOut);\n\n\n      assets[nextAssetId] = Asset(nextAssetId, getTokenSticker(tokenOut), tokenOut, price, 0);\n      nextAssetId ++;\n\n      currentState = State.TRADING;\n\n  }\n\n  // 5. Sell token depending on predicted price development\n  //\n  function sellToken(uint _assetId, /*uint currentPrice,*/ uint predPrice, uint tuner) external onlyOwner() {\n    require(currentState == State.TRADING, \"Tradingbot must be started first\");\n    require(getTokenBalance(assets[_assetId].tokenAddress) > 0, \"No token available\");\n\n    // Check if price predicted in future x hours < (last buy - tuner)\n    if(predPrice < (assets[_assetId].lastPrice.sub(tuner))) {\n\n      uint value = getTokenBalance(assets[_assetId].tokenAddress);\n\n      address tokenBridge;\n\n      if (assets[_assetId].tokenAddress == WETH) {\n        tokenBridge = UNI;\n      }\n      else {\n        tokenBridge = WETH;\n      }\n\n      // Trade on uniswapV3\n      uint amountOut = _tradeOnUniswapV3(assets[_assetId].tokenAddress, DAI, tokenBridge, value);\n      uint price = amountOut.div(value);\n\n\n      //Updates the availableFunds of the asset in DAI\n      assets[_assetId].availableFunds = assets[_assetId].availableFunds.add(amountOut);\n\n      assets[_assetId].lastPrice = price;\n\n    }\n  }\n  //\n\n  // 6. Buy token depending on predicted price development\n  function buyToken(uint _assetId, /*uint currentPrice,*/ uint predPrice, uint tuner) external onlyOwner() {\n    require(currentState == State.TRADING, \"Tradingbot must be started first\");\n    require(assets[_assetId].availableFunds > 0, \"No funds available\");\n\n    // Check if price predicted in future x hours < (last buy - tuner)\n    if(predPrice > (assets[_assetId].lastPrice.add(tuner))) {\n\n      uint value = assets[_assetId].availableFunds;\n\n      address tokenBridge;\n\n      if (assets[_assetId].tokenAddress == WETH) {\n        tokenBridge = UNI;\n      }\n      else {\n        tokenBridge = WETH;\n      }\n\n      // Trade on uniswapV3\n      uint amountOut = _tradeOnUniswapV3(DAI, assets[_assetId].tokenAddress, tokenBridge, value);\n      uint price = value.div(amountOut);\n\n      //Updates the availableFunds of the asset in DAI\n      assets[_assetId].availableFunds = assets[_assetId].availableFunds.sub(value);\n\n      assets[_assetId].lastPrice = price;\n\n    }\n  }\n  //\n\n  // 7. Liquidate portfolio and return money to investors\n  function liquidatePortfolio () external payable onlyOwner() nonReentrant {\n\n\n    for(uint i; i < nextAssetId; i++) {\n      if(getTokenBalance(assets[i].tokenAddress) > 0) {\n\n        if(assets[i].tokenAddress != WETH) {\n          uint amountIn = getTokenBalance(assets[i].tokenAddress);\n          _tradeOnUniswapV3(assets[i].tokenAddress, WETH, DAI, amountIn);\n        }\n\n        IWETH9(WETH).approve(address(this), getTokenBalance(WETH));\n        IWETH9(WETH).withdraw(getTokenBalance(WETH));\n\n        //Updates the availableFunds of the asset in DAI\n        assets[i].availableFunds = 0;\n\n        //Calculates the selling price in DAI\n        uint _price = 0;\n\n        assets[i].lastPrice = _price;\n\n      }\n    }\n\n    _refundInvestors();\n\n    _reset();\n  }\n\n  // 8. Some view functions\n  function getBalance() external view returns(uint) {\n    return address(this).balance;\n  }\n\n  function getTokenBalance(address tokenAddress) public view returns(uint tokenBalance) {\n    tokenBalance = IERC20(tokenAddress).balanceOf(address(this));\n  }\n\n  function getTokenSticker(address tokenAddress) public view returns(string memory _sticker) {\n    _sticker = IERC20Metadata(tokenAddress).symbol();\n  }\n\n\n  function _uniswapV3PoolExists(address _tokenIn, address _tokenOut) public view returns (bool pool_existence, uint24 _poolFee){\n    // UniswapV3 allows 3 different pool fees\n    uint24 poolFee_1 = 500;\n    uint24 poolFee_2 = 3000;\n    uint24 poolFee_3 = 10000;\n\n    if( SwapV3Factory.getPool(_tokenIn, _tokenOut, poolFee_1) != address(0) ){\n        _poolFee = poolFee_1;\n        pool_existence = true;\n    }\n    else if(SwapV3Factory.getPool(_tokenIn, _tokenOut, poolFee_2) != address(0)){\n        _poolFee = poolFee_2;\n        pool_existence = true;\n\n    }\n    else if(SwapV3Factory.getPool(_tokenIn, _tokenOut, poolFee_3) != address(0)){\n        _poolFee = poolFee_3;\n        pool_existence = true;\n\n    }\n\n  }\n\n  //\n  function _tradeOnUniswapV3(address _tokenIn, address _tokenOut, address _tokenBridge, uint _amountIn) public returns(uint _amountOut) {\n\n    PoolFee memory poolFees;\n    bool _success;\n    bool tradeSuccess;\n    bytes memory returnData;\n\n    (_success, poolFees.fee1) = _uniswapV3PoolExists(_tokenIn, _tokenOut);\n\n    if (_success) {\n      direction = 1;\n      // Approve the SwapRouter contract for the amount of DAI\n      // I first made an error to approve this contract - that's wrong, the DAI was already tranfered to this contract in contribute()\n      IERC20(_tokenIn).approve(address(SwapRouter), _amountIn);\n\n      ISwapRouter.ExactInputSingleParams memory params = ISwapRouter.ExactInputSingleParams({\n        tokenIn: _tokenIn,\n        tokenOut: _tokenOut,\n        fee: poolFees.fee1,\n        recipient: address(this),\n        deadline: block.timestamp.add(15),\n        amountIn: _amountIn,\n        amountOutMinimum: 1,\n        sqrtPriceLimitX96: 0\n      });\n\n      (tradeSuccess, returnData) =\n        address(SwapRouter).call( // This creates a low level call to the contract\n          abi.encodePacked( // This encodes the function to call and the parameters to pass to that function\n            SwapRouter.exactInputSingle.selector, // This is the function identifier of the function we want to call\n            abi.encode(params) // This encodes the parameter we want to pass to the function\n          )\n        );\n\n      if (tradeSuccess) { // SwapRouter.exactInputSingle completed successfully (did not revert)\n        _amountOut = abi.decode(returnData, (uint256));\n\n        return _amountOut;\n      }\n    }\n\n    if (_success == false || tradeSuccess == false) { // SwapRouter.exactInputSingle. However, the complete tx did not revert and we can handle the case here.\n      direction = 2;\n      // TRY THE MULTIHOP TRADE\n      (_success, poolFees.fee2) = _uniswapV3PoolExists(_tokenIn, _tokenBridge);\n      require(_success, \"Pool to bridge does not exist\");\n      _success = false;\n\n      (_success, poolFees.fee3 ) = _uniswapV3PoolExists(_tokenBridge, _tokenOut);\n      require(_success, \"Pool from _tokenBridge to _tokenOut does not exist\");\n      _success = false;\n\n\n\n      ISwapRouter.ExactInputParams memory params1 = ISwapRouter.ExactInputParams({\n        path: abi.encodePacked(_tokenIn, poolFees.fee2, _tokenBridge, poolFees.fee3, _tokenOut),\n        recipient: address(this),\n        deadline: block.timestamp.add(15),\n        amountIn: _amountIn,\n        amountOutMinimum: 1\n      });\n\n      // Executes the swap.\n      _amountOut = SwapRouter.exactInput(params1);\n\n\n      return _amountOut;\n    }\n\n    else {revert(\"Could not trade asset\");}\n\n  }\n\n\n  // swap DAI to WETH, then iterate over the nextInvestorId and refund the contract balance to the investors in relation to their shares\n  function _refundInvestors() public payable {\n    require(protect == false, \"Protection activated\");\n    protect = true;\n\n    if (getTokenBalance(DAI) > 0) {\n      uint amountIn = getTokenBalance(DAI);\n      uint amountOut = _tradeOnUniswapV3(DAI, WETH, UNI, amountIn);\n\n      IWETH9(WETH).approve(address(this), amountOut);\n      IWETH9(WETH).withdraw(amountOut);\n\n    }\n\n    // Save value of contract balance and Calculate share for each investor\n    require(address(this).balance > 0, \"No ether available to be redistributed\");\n    uint _totalFunds = address(this).balance;\n\n    for(uint i=0; i < nextInvestorId; i++) {\n      uint _refund = _totalFunds * shares[investors[i]] / totalShares;\n      payable(investors[i]).transfer(_refund);\n    }\n\n    protect = false;\n\n  }\n\n  function _reset() public {\n\n    // mappings must be cleaned up one by one; delete key word only works for each entry\n    for(uint i=0; i < nextInvestorId; i++) {\n      delete shares[investors[i]];\n      delete investors[i];\n    }\n\n    for(uint j=0; j < nextAssetId; j++) {\n      delete assets[j];\n    }\n\n    nextInvestorId = 0;\n    nextAssetId = 0;\n    totalShares = 0;\n    // Other currentState variables minAmount and contributionEnd must be reinitialized in function initialize()\n\n    currentState = State.IDLE;\n\n  }\n\n  modifier onlyOwner() {\n    require(msg.sender == owner, \"Only owner can call this function\");\n    _;\n  }\n\n  modifier timeOut() {\n    require(block.timestamp < contributionEnd, \"Time over\");\n    _;\n  }\n\n}\n",
  "sourcePath": "C:\\Rula01\\01_Lernen\\Udemy\\Projects\\cryptotradingbot_v1\\contracts\\Tradingbot_v2.sol",
  "compiler": {
    "name": "solc",
    "version": "0.8.0+commit.c7dfd78e.Emscripten.clang"
  },
  "schemaVersion": "3.4.3",
  "updatedAt": "2022-02-09T12:57:05.017Z",
  "networkType": "ethereum",
  "devdoc": {
    "kind": "dev",
    "methods": {},
    "version": 1
  },
  "userdoc": {
    "kind": "user",
    "methods": {},
    "version": 1
  }
}