{
  "contractName": "Tradingbot",
  "abi": [
    {
      "inputs": [],
      "stateMutability": "nonpayable",
      "type": "constructor"
    },
    {
      "inputs": [],
      "name": "DAI",
      "outputs": [
        {
          "internalType": "address",
          "name": "",
          "type": "address"
        }
      ],
      "stateMutability": "view",
      "type": "function",
      "constant": true
    },
    {
      "inputs": [],
      "name": "SwapRouter",
      "outputs": [
        {
          "internalType": "contract ISwapRouter",
          "name": "",
          "type": "address"
        }
      ],
      "stateMutability": "view",
      "type": "function",
      "constant": true
    },
    {
      "inputs": [],
      "name": "SwapV3Factory",
      "outputs": [
        {
          "internalType": "contract IUniswapV3Factory",
          "name": "",
          "type": "address"
        }
      ],
      "stateMutability": "view",
      "type": "function",
      "constant": true
    },
    {
      "inputs": [],
      "name": "WETH",
      "outputs": [
        {
          "internalType": "address",
          "name": "",
          "type": "address"
        }
      ],
      "stateMutability": "view",
      "type": "function",
      "constant": true
    },
    {
      "inputs": [
        {
          "internalType": "uint256",
          "name": "",
          "type": "uint256"
        }
      ],
      "name": "assets",
      "outputs": [
        {
          "internalType": "uint256",
          "name": "id",
          "type": "uint256"
        },
        {
          "internalType": "string",
          "name": "sticker",
          "type": "string"
        },
        {
          "internalType": "address",
          "name": "tokenAddress",
          "type": "address"
        },
        {
          "internalType": "uint256",
          "name": "lastPrice",
          "type": "uint256"
        },
        {
          "internalType": "uint256",
          "name": "availableFunds",
          "type": "uint256"
        }
      ],
      "stateMutability": "view",
      "type": "function",
      "constant": true
    },
    {
      "inputs": [],
      "name": "contributionEnd",
      "outputs": [
        {
          "internalType": "uint256",
          "name": "",
          "type": "uint256"
        }
      ],
      "stateMutability": "view",
      "type": "function",
      "constant": true
    },
    {
      "inputs": [],
      "name": "currentState",
      "outputs": [
        {
          "internalType": "enum Tradingbot.State",
          "name": "",
          "type": "uint8"
        }
      ],
      "stateMutability": "view",
      "type": "function",
      "constant": true
    },
    {
      "inputs": [
        {
          "internalType": "uint256",
          "name": "",
          "type": "uint256"
        }
      ],
      "name": "investors",
      "outputs": [
        {
          "internalType": "address",
          "name": "",
          "type": "address"
        }
      ],
      "stateMutability": "view",
      "type": "function",
      "constant": true
    },
    {
      "inputs": [],
      "name": "minAmount",
      "outputs": [
        {
          "internalType": "uint256",
          "name": "",
          "type": "uint256"
        }
      ],
      "stateMutability": "view",
      "type": "function",
      "constant": true
    },
    {
      "inputs": [],
      "name": "nextAssetId",
      "outputs": [
        {
          "internalType": "uint256",
          "name": "",
          "type": "uint256"
        }
      ],
      "stateMutability": "view",
      "type": "function",
      "constant": true
    },
    {
      "inputs": [],
      "name": "nextInvestorId",
      "outputs": [
        {
          "internalType": "uint256",
          "name": "",
          "type": "uint256"
        }
      ],
      "stateMutability": "view",
      "type": "function",
      "constant": true
    },
    {
      "inputs": [],
      "name": "owner",
      "outputs": [
        {
          "internalType": "address",
          "name": "",
          "type": "address"
        }
      ],
      "stateMutability": "view",
      "type": "function",
      "constant": true
    },
    {
      "inputs": [],
      "name": "poolFee_1",
      "outputs": [
        {
          "internalType": "uint24",
          "name": "",
          "type": "uint24"
        }
      ],
      "stateMutability": "view",
      "type": "function",
      "constant": true
    },
    {
      "inputs": [],
      "name": "poolFee_2",
      "outputs": [
        {
          "internalType": "uint24",
          "name": "",
          "type": "uint24"
        }
      ],
      "stateMutability": "view",
      "type": "function",
      "constant": true
    },
    {
      "inputs": [],
      "name": "poolFee_3",
      "outputs": [
        {
          "internalType": "uint24",
          "name": "",
          "type": "uint24"
        }
      ],
      "stateMutability": "view",
      "type": "function",
      "constant": true
    },
    {
      "inputs": [
        {
          "internalType": "address",
          "name": "",
          "type": "address"
        }
      ],
      "name": "shares",
      "outputs": [
        {
          "internalType": "uint256",
          "name": "",
          "type": "uint256"
        }
      ],
      "stateMutability": "view",
      "type": "function",
      "constant": true
    },
    {
      "inputs": [],
      "name": "totalShares",
      "outputs": [
        {
          "internalType": "uint256",
          "name": "",
          "type": "uint256"
        }
      ],
      "stateMutability": "view",
      "type": "function",
      "constant": true
    },
    {
      "inputs": [
        {
          "internalType": "uint256",
          "name": "_minAmount",
          "type": "uint256"
        },
        {
          "internalType": "uint256",
          "name": "duration",
          "type": "uint256"
        }
      ],
      "name": "initialize",
      "outputs": [],
      "stateMutability": "nonpayable",
      "type": "function"
    },
    {
      "inputs": [],
      "name": "contribute",
      "outputs": [],
      "stateMutability": "payable",
      "type": "function",
      "payable": true
    },
    {
      "inputs": [],
      "name": "cancelTradingbot",
      "outputs": [],
      "stateMutability": "nonpayable",
      "type": "function"
    },
    {
      "inputs": [
        {
          "internalType": "address",
          "name": "_tokenAddress",
          "type": "address"
        },
        {
          "internalType": "uint256",
          "name": "_value",
          "type": "uint256"
        }
      ],
      "name": "initialAssetBuy",
      "outputs": [],
      "stateMutability": "nonpayable",
      "type": "function"
    },
    {
      "inputs": [
        {
          "internalType": "uint256",
          "name": "_assetId",
          "type": "uint256"
        },
        {
          "internalType": "uint256",
          "name": "predPrice",
          "type": "uint256"
        },
        {
          "internalType": "uint256",
          "name": "tuner",
          "type": "uint256"
        }
      ],
      "name": "sellToken",
      "outputs": [
        {
          "internalType": "bool",
          "name": "_trade",
          "type": "bool"
        }
      ],
      "stateMutability": "nonpayable",
      "type": "function"
    },
    {
      "inputs": [
        {
          "internalType": "uint256",
          "name": "_assetId",
          "type": "uint256"
        },
        {
          "internalType": "uint256",
          "name": "predPrice",
          "type": "uint256"
        },
        {
          "internalType": "uint256",
          "name": "tuner",
          "type": "uint256"
        }
      ],
      "name": "buyToken",
      "outputs": [
        {
          "internalType": "bool",
          "name": "_trade",
          "type": "bool"
        }
      ],
      "stateMutability": "nonpayable",
      "type": "function"
    },
    {
      "inputs": [],
      "name": "liquidatePortfolio",
      "outputs": [],
      "stateMutability": "payable",
      "type": "function",
      "payable": true
    },
    {
      "inputs": [],
      "name": "getBalance",
      "outputs": [
        {
          "internalType": "uint256",
          "name": "",
          "type": "uint256"
        }
      ],
      "stateMutability": "view",
      "type": "function",
      "constant": true
    },
    {
      "inputs": [
        {
          "internalType": "address",
          "name": "tokenAddress",
          "type": "address"
        }
      ],
      "name": "getTokenBalance",
      "outputs": [
        {
          "internalType": "uint256",
          "name": "tokenBalance",
          "type": "uint256"
        }
      ],
      "stateMutability": "view",
      "type": "function",
      "constant": true
    },
    {
      "inputs": [
        {
          "internalType": "address",
          "name": "tokenAddress",
          "type": "address"
        }
      ],
      "name": "getTokenSticker",
      "outputs": [
        {
          "internalType": "string",
          "name": "_sticker",
          "type": "string"
        }
      ],
      "stateMutability": "view",
      "type": "function",
      "constant": true
    },
    {
      "inputs": [
        {
          "internalType": "address",
          "name": "_tokenIn",
          "type": "address"
        },
        {
          "internalType": "address",
          "name": "_tokenOut",
          "type": "address"
        }
      ],
      "name": "_uniswapV3PoolExists",
      "outputs": [
        {
          "internalType": "bool",
          "name": "pool_existence",
          "type": "bool"
        },
        {
          "internalType": "uint24",
          "name": "_poolFee",
          "type": "uint24"
        }
      ],
      "stateMutability": "view",
      "type": "function",
      "constant": true
    },
    {
      "inputs": [],
      "name": "_refundInvestors",
      "outputs": [],
      "stateMutability": "payable",
      "type": "function",
      "payable": true
    },
    {
      "inputs": [],
      "name": "_reset",
      "outputs": [],
      "stateMutability": "nonpayable",
      "type": "function"
    }
  ],
  "bytecode": "0x60c060405260008060006101000a81548160ff0219169083600281111561004f577f4e487b7100000000000000000000000000000000000000000000000000000000600052602160045260246000fd5b0217905550731f98431c8ad98523631ae4a59f267346ea31f98473ffffffffffffffffffffffffffffffffffffffff1660809073ffffffffffffffffffffffffffffffffffffffff1660601b81525073e592427a0aece92de3edee1f18e0157c0586156473ffffffffffffffffffffffffffffffffffffffff1660a09073ffffffffffffffffffffffffffffffffffffffff1660601b8152506101f4600960006101000a81548162ffffff021916908362ffffff160217905550610bb8600960036101000a81548162ffffff021916908362ffffff160217905550612710600960066101000a81548162ffffff021916908362ffffff16021790555034801561015757600080fd5b5033600060016101000a81548173ffffffffffffffffffffffffffffffffffffffff021916908373ffffffffffffffffffffffffffffffffffffffff16021790555060805160601c60a05160601c61457a6200022760003960008181610c9801528181610d2c01528181610f23015281816112980152818161132c01528181611b7601528181611c0801528181611f1301528181611fa5015281816129d801528181612f1a0152612fae01526000818161155801528181611666015281816117740152612398015261457a6000f3fe6080604052600436106101cd5760003560e01c80638ed91318116100f7578063be57ed1e11610095578063d7bb99ba11610064578063d7bb99ba14610647578063de2d554b14610651578063e0bab4c41461068e578063e4a30116146106b9576101cd565b8063be57ed1e14610587578063ce7c2ac21461059e578063cf35bdd0146105db578063d151b5161461061c576101cd565b8063a8900792116100d1578063a8900792146104db578063ad5c464814610506578063b1f0af4e14610531578063b4f671df1461055c576101cd565b80638ed91318146104485780639b2cb5d814610473578063a32fad2d1461049e576101cd565b8063422298291161016f578063584edf101161013e578063584edf10146103de5780637c84f91f146103e85780638195abc8146103f25780638da5cb5b1461041d576101cd565b806342229829146103215780634dc32eff1461034c5780634e11e5901461037757806350c92903146103a0576101cd565b80631f181d57116101ab5780631f181d571461023f5780633a98ef391461027c5780633aecd0e3146102a75780633feb5f2b146102e4576101cd565b80630c3f6acf146101d257806312065fe0146101fd5780631592f0ab14610228575b600080fd5b3480156101de57600080fd5b506101e76106e2565b6040516101f49190613e02565b60405180910390f35b34801561020957600080fd5b506102126106f3565b60405161021f9190614076565b60405180910390f35b34801561023457600080fd5b5061023d6106fb565b005b34801561024b57600080fd5b506102666004803603810190610261919061360e565b610879565b6040516102739190613d88565b60405180910390f35b34801561028857600080fd5b50610291610e41565b60405161029e9190614076565b60405180910390f35b3480156102b357600080fd5b506102ce60048036038101906102c9919061344c565b610e47565b6040516102db9190614076565b60405180910390f35b3480156102f057600080fd5b5061030b60048036038101906103069190613580565b610ed9565b6040516103189190613d0d565b60405180910390f35b34801561032d57600080fd5b50610336610f0c565b604051610343919061405b565b60405180910390f35b34801561035857600080fd5b50610361610f21565b60405161036e9190613dcc565b60405180910390f35b34801561038357600080fd5b5061039e600480360381019061039991906134da565b610f45565b005b3480156103ac57600080fd5b506103c760048036038101906103c2919061349e565b61153b565b6040516103d5929190613da3565b60405180910390f35b6103e661186d565b005b6103f0611d17565b005b3480156103fe57600080fd5b50610407612396565b6040516104149190613de7565b60405180910390f35b34801561042957600080fd5b506104326123ba565b60405161043f9190613d0d565b60405180910390f35b34801561045457600080fd5b5061045d6123e0565b60405161046a9190614076565b60405180910390f35b34801561047f57600080fd5b506104886123e6565b6040516104959190614076565b60405180910390f35b3480156104aa57600080fd5b506104c560048036038101906104c0919061344c565b6123ec565b6040516104d29190613e1d565b60405180910390f35b3480156104e757600080fd5b506104f0612478565b6040516104fd9190614076565b60405180910390f35b34801561051257600080fd5b5061051b61247e565b6040516105289190613d0d565b60405180910390f35b34801561053d57600080fd5b50610546612496565b604051610553919061405b565b60405180910390f35b34801561056857600080fd5b506105716124ab565b60405161057e919061405b565b60405180910390f35b34801561059357600080fd5b5061059c6124c0565b005b3480156105aa57600080fd5b506105c560048036038101906105c0919061344c565b612622565b6040516105d29190614076565b60405180910390f35b3480156105e757600080fd5b5061060260048036038101906105fd9190613580565b61263a565b604051610613959493929190614091565b60405180910390f35b34801561062857600080fd5b50610631612718565b60405161063e9190614076565b60405180910390f35b61064f61271e565b005b34801561065d57600080fd5b506106786004803603810190610673919061360e565b612b6d565b6040516106859190613d88565b60405180910390f35b34801561069a57600080fd5b506106a36130c3565b6040516106b09190613d0d565b60405180910390f35b3480156106c557600080fd5b506106e060048036038101906106db91906135d2565b6130db565b005b60008054906101000a900460ff1681565b600047905090565b60005b6004548110156107c757600260006001600084815260200190815260200160002060009054906101000a900473ffffffffffffffffffffffffffffffffffffffff1673ffffffffffffffffffffffffffffffffffffffff1673ffffffffffffffffffffffffffffffffffffffff168152602001908152602001600020600090556001600082815260200190815260200160002060006101000a81549073ffffffffffffffffffffffffffffffffffffffff021916905580806107bf906143a6565b9150506106fe565b5060005b60055481101561084d57600360008281526020019081526020016000206000808201600090556001820160006108019190613298565b6002820160006101000a81549073ffffffffffffffffffffffffffffffffffffffff02191690556003820160009055600482016000905550508080610845906143a6565b9150506107cb565b506000600481905550600060058190555060006006819055506000806101000a81549060ff0219169055565b60008060019054906101000a900473ffffffffffffffffffffffffffffffffffffffff1673ffffffffffffffffffffffffffffffffffffffff163373ffffffffffffffffffffffffffffffffffffffff161461090a576040517f08c379a000000000000000000000000000000000000000000000000000000000815260040161090190613e9f565b60405180910390fd5b600280811115610943577f4e487b7100000000000000000000000000000000000000000000000000000000600052602160045260246000fd5b60008054906101000a900460ff166002811115610989577f4e487b7100000000000000000000000000000000000000000000000000000000600052602160045260246000fd5b146109c9576040517f08c379a00000000000000000000000000000000000000000000000000000000081526004016109c090613fbf565b60405180910390fd5b6000610a0a6003600087815260200190815260200160002060020160009054906101000a900473ffffffffffffffffffffffffffffffffffffffff16610e47565b11610a4a576040517f08c379a0000000000000000000000000000000000000000000000000000000008152600401610a4190613e7f565b60405180910390fd5b600080610aa16003600088815260200190815260200160002060020160009054906101000a900473ffffffffffffffffffffffffffffffffffffffff16735592ec0cfb4dbc12d3ab100b257153436a1f0fea61153b565b9150915081610ae5576040517f08c379a0000000000000000000000000000000000000000000000000000000008152600401610adc90613eff565b60405180910390fd5b836003600088815260200190815260200160002060030154610b079190614249565b851015610e38576000610b4f6003600089815260200190815260200160002060020160009054906101000a900473ffffffffffffffffffffffffffffffffffffffff16610e47565b90506000604051806101000160405280600360008b815260200190815260200160002060020160009054906101000a900473ffffffffffffffffffffffffffffffffffffffff1673ffffffffffffffffffffffffffffffffffffffff168152602001735592ec0cfb4dbc12d3ab100b257153436a1f0fea73ffffffffffffffffffffffffffffffffffffffff1681526020018462ffffff1681526020013073ffffffffffffffffffffffffffffffffffffffff168152602001600f42610c159190614168565b815260200183815260200160018152602001600073ffffffffffffffffffffffffffffffffffffffff1681525090506003600089815260200190815260200160002060020160009054906101000a900473ffffffffffffffffffffffffffffffffffffffff1673ffffffffffffffffffffffffffffffffffffffff1663095ea7b37f0000000000000000000000000000000000000000000000000000000000000000846040518363ffffffff1660e01b8152600401610cd5929190613d5f565b602060405180830381600087803b158015610cef57600080fd5b505af1158015610d03573d6000803e3d6000fd5b505050506040513d601f19601f82011682018060405250810190610d279190613516565b5060007f000000000000000000000000000000000000000000000000000000000000000073ffffffffffffffffffffffffffffffffffffffff1663414bf389836040518263ffffffff1660e01b8152600401610d83919061403f565b602060405180830381600087803b158015610d9d57600080fd5b505af1158015610db1573d6000803e3d6000fd5b505050506040513d601f19601f82011682018060405250810190610dd591906135a9565b905080600360008b81526020019081526020016000206004016000828254610dfd9190614168565b9250508190555060008382610e1291906141be565b905080600360008c81526020019081526020016000206003018190555060019650505050505b50509392505050565b60065481565b60008173ffffffffffffffffffffffffffffffffffffffff166370a08231306040518263ffffffff1660e01b8152600401610e829190613d0d565b60206040518083038186803b158015610e9a57600080fd5b505afa158015610eae573d6000803e3d6000fd5b505050506040513d601f19601f82011682018060405250810190610ed291906135a9565b9050919050565b60016020528060005260406000206000915054906101000a900473ffffffffffffffffffffffffffffffffffffffff1681565b600960039054906101000a900462ffffff1681565b7f000000000000000000000000000000000000000000000000000000000000000081565b600060019054906101000a900473ffffffffffffffffffffffffffffffffffffffff1673ffffffffffffffffffffffffffffffffffffffff163373ffffffffffffffffffffffffffffffffffffffff1614610fd5576040517f08c379a0000000000000000000000000000000000000000000000000000000008152600401610fcc90613e9f565b60405180910390fd5b60085442101561101a576040517f08c379a000000000000000000000000000000000000000000000000000000000815260040161101190613f1f565b60405180910390fd5b6000611039735592ec0cfb4dbc12d3ab100b257153436a1f0fea610e47565b11611079576040517f08c379a000000000000000000000000000000000000000000000000000000000815260040161107090613ebf565b60405180910390fd5b600081116110bc576040517f08c379a00000000000000000000000000000000000000000000000000000000081526004016110b390613fff565b60405180910390fd5b735592ec0cfb4dbc12d3ab100b257153436a1f0fea73ffffffffffffffffffffffffffffffffffffffff168273ffffffffffffffffffffffffffffffffffffffff16141561113f576040517f08c379a000000000000000000000000000000000000000000000000000000000815260040161113690613f3f565b60405180910390fd5b600080611160735592ec0cfb4dbc12d3ab100b257153436a1f0fea8561153b565b91509150816111a4576040517f08c379a000000000000000000000000000000000000000000000000000000000815260040161119b90613eff565b60405180910390fd5b60008390506000604051806101000160405280735592ec0cfb4dbc12d3ab100b257153436a1f0fea73ffffffffffffffffffffffffffffffffffffffff1681526020018773ffffffffffffffffffffffffffffffffffffffff1681526020018462ffffff1681526020013073ffffffffffffffffffffffffffffffffffffffff168152602001603c426112379190614168565b815260200183815260200160018152602001600073ffffffffffffffffffffffffffffffffffffffff168152509050735592ec0cfb4dbc12d3ab100b257153436a1f0fea73ffffffffffffffffffffffffffffffffffffffff1663095ea7b37f0000000000000000000000000000000000000000000000000000000000000000846040518363ffffffff1660e01b81526004016112d5929190613d5f565b602060405180830381600087803b1580156112ef57600080fd5b505af1158015611303573d6000803e3d6000fd5b505050506040513d601f19601f820116820180604052508101906113279190613516565b5060007f000000000000000000000000000000000000000000000000000000000000000073ffffffffffffffffffffffffffffffffffffffff1663414bf389836040518263ffffffff1660e01b8152600401611383919061403f565b602060405180830381600087803b15801561139d57600080fd5b505af11580156113b1573d6000803e3d6000fd5b505050506040513d601f19601f820116820180604052508101906113d591906135a9565b9050600081846113e591906141be565b90506040518060a0016040528060055481526020016114038a6123ec565b81526020018973ffffffffffffffffffffffffffffffffffffffff168152602001828152602001600081525060036000600554815260200190815260200160002060008201518160000155602082015181600101908051906020019061146a9291906132d8565b5060408201518160020160006101000a81548173ffffffffffffffffffffffffffffffffffffffff021916908373ffffffffffffffffffffffffffffffffffffffff1602179055506060820151816003015560808201518160040155905050600560008154809291906114dc906143a6565b919050555060026000806101000a81548160ff0219169083600281111561152c577f4e487b7100000000000000000000000000000000000000000000000000000000600052602160045260246000fd5b02179055505050505050505050565b600080600073ffffffffffffffffffffffffffffffffffffffff167f000000000000000000000000000000000000000000000000000000000000000073ffffffffffffffffffffffffffffffffffffffff16631698ee828686600960009054906101000a900462ffffff166040518463ffffffff1660e01b81526004016115c493929190613d28565b60206040518083038186803b1580156115dc57600080fd5b505afa1580156115f0573d6000803e3d6000fd5b505050506040513d601f19601f820116820180604052508101906116149190613475565b73ffffffffffffffffffffffffffffffffffffffff161461164c57600960009054906101000a900462ffffff16905060019150611866565b600073ffffffffffffffffffffffffffffffffffffffff167f000000000000000000000000000000000000000000000000000000000000000073ffffffffffffffffffffffffffffffffffffffff16631698ee828686600960039054906101000a900462ffffff166040518463ffffffff1660e01b81526004016116d293929190613d28565b60206040518083038186803b1580156116ea57600080fd5b505afa1580156116fe573d6000803e3d6000fd5b505050506040513d601f19601f820116820180604052508101906117229190613475565b73ffffffffffffffffffffffffffffffffffffffff161461175a57600960039054906101000a900462ffffff16905060019150611865565b600073ffffffffffffffffffffffffffffffffffffffff167f000000000000000000000000000000000000000000000000000000000000000073ffffffffffffffffffffffffffffffffffffffff16631698ee828686600960069054906101000a900462ffffff166040518463ffffffff1660e01b81526004016117e093929190613d28565b60206040518083038186803b1580156117f857600080fd5b505afa15801561180c573d6000803e3d6000fd5b505050506040513d601f19601f820116820180604052508101906118309190613475565b73ffffffffffffffffffffffffffffffffffffffff161461186457600960069054906101000a900462ffffff169050600191505b5b5b9250929050565b600060019054906101000a900473ffffffffffffffffffffffffffffffffffffffff1673ffffffffffffffffffffffffffffffffffffffff163373ffffffffffffffffffffffffffffffffffffffff16146118fd576040517f08c379a00000000000000000000000000000000000000000000000000000000081526004016118f490613e9f565b60405180910390fd5b60005b600554811015611d0457600061194b6003600084815260200190815260200160002060020160009054906101000a900473ffffffffffffffffffffffffffffffffffffffff16610e47565b1115611cf1576000806119a86003600085815260200190815260200160002060020160009054906101000a900473ffffffffffffffffffffffffffffffffffffffff16735592ec0cfb4dbc12d3ab100b257153436a1f0fea61153b565b91509150816119ec576040517f08c379a00000000000000000000000000000000000000000000000000000000081526004016119e390613eff565b60405180910390fd5b6000611a2d6003600086815260200190815260200160002060020160009054906101000a900473ffffffffffffffffffffffffffffffffffffffff16610e47565b905060006040518061010001604052806003600088815260200190815260200160002060020160009054906101000a900473ffffffffffffffffffffffffffffffffffffffff1673ffffffffffffffffffffffffffffffffffffffff168152602001735592ec0cfb4dbc12d3ab100b257153436a1f0fea73ffffffffffffffffffffffffffffffffffffffff1681526020018462ffffff1681526020013073ffffffffffffffffffffffffffffffffffffffff168152602001600f42611af39190614168565b815260200183815260200160018152602001600073ffffffffffffffffffffffffffffffffffffffff1681525090506003600086815260200190815260200160002060020160009054906101000a900473ffffffffffffffffffffffffffffffffffffffff1673ffffffffffffffffffffffffffffffffffffffff1663095ea7b37f0000000000000000000000000000000000000000000000000000000000000000846040518363ffffffff1660e01b8152600401611bb3929190613d5f565b602060405180830381600087803b158015611bcd57600080fd5b505af1158015611be1573d6000803e3d6000fd5b505050506040513d601f19601f82011682018060405250810190611c059190613516565b507f000000000000000000000000000000000000000000000000000000000000000073ffffffffffffffffffffffffffffffffffffffff1663414bf389826040518263ffffffff1660e01b8152600401611c5f919061403f565b602060405180830381600087803b158015611c7957600080fd5b505af1158015611c8d573d6000803e3d6000fd5b505050506040513d601f19601f82011682018060405250810190611cb191906135a9565b5060006003600087815260200190815260200160002060040181905550600080600360008881526020019081526020016000206003018190555050505050505b8080611cfc906143a6565b915050611900565b50611d0d611d17565b611d156106fb565b565b6000611d36735592ec0cfb4dbc12d3ab100b257153436a1f0fea610e47565b11611d76576040517f08c379a0000000000000000000000000000000000000000000000000000000008152600401611d6d9061401f565b60405180910390fd5b600080611dab735592ec0cfb4dbc12d3ab100b257153436a1f0fea73c778417e063141139fce010982780140aa0cd5ab61153b565b9150915081611def576040517f08c379a0000000000000000000000000000000000000000000000000000000008152600401611de690613eff565b60405180910390fd5b6000611e0e735592ec0cfb4dbc12d3ab100b257153436a1f0fea610e47565b90506000604051806101000160405280735592ec0cfb4dbc12d3ab100b257153436a1f0fea73ffffffffffffffffffffffffffffffffffffffff16815260200173c778417e063141139fce010982780140aa0cd5ab73ffffffffffffffffffffffffffffffffffffffff1681526020018462ffffff1681526020013073ffffffffffffffffffffffffffffffffffffffff168152602001600f42611eb29190614168565b815260200183815260200160018152602001600073ffffffffffffffffffffffffffffffffffffffff168152509050735592ec0cfb4dbc12d3ab100b257153436a1f0fea73ffffffffffffffffffffffffffffffffffffffff1663095ea7b37f0000000000000000000000000000000000000000000000000000000000000000846040518363ffffffff1660e01b8152600401611f50929190613d5f565b602060405180830381600087803b158015611f6a57600080fd5b505af1158015611f7e573d6000803e3d6000fd5b505050506040513d601f19601f82011682018060405250810190611fa29190613516565b507f000000000000000000000000000000000000000000000000000000000000000073ffffffffffffffffffffffffffffffffffffffff1663414bf389826040518263ffffffff1660e01b8152600401611ffc919061403f565b602060405180830381600087803b15801561201657600080fd5b505af115801561202a573d6000803e3d6000fd5b505050506040513d601f19601f8201168201806040525081019061204e91906135a9565b50600073c778417e063141139fce010982780140aa0cd5ab73ffffffffffffffffffffffffffffffffffffffff166370a08231306040518263ffffffff1660e01b815260040161209e9190613d0d565b60206040518083038186803b1580156120b657600080fd5b505afa1580156120ca573d6000803e3d6000fd5b505050506040513d601f19601f820116820180604052508101906120ee91906135a9565b905073c778417e063141139fce010982780140aa0cd5ab73ffffffffffffffffffffffffffffffffffffffff1663095ea7b330836040518363ffffffff1660e01b815260040161213f929190613d5f565b602060405180830381600087803b15801561215957600080fd5b505af115801561216d573d6000803e3d6000fd5b505050506040513d601f19601f820116820180604052508101906121919190613516565b50600081111561221b5773c778417e063141139fce010982780140aa0cd5ab73ffffffffffffffffffffffffffffffffffffffff16632e1a7d4d826040518263ffffffff1660e01b81526004016121e89190614076565b600060405180830381600087803b15801561220257600080fd5b505af1158015612216573d6000803e3d6000fd5b505050505b6000471161225e576040517f08c379a000000000000000000000000000000000000000000000000000000000815260040161225590613f7f565b60405180910390fd5b600047905060005b60045481101561238d576000600654600260006001600086815260200190815260200160002060009054906101000a900473ffffffffffffffffffffffffffffffffffffffff1673ffffffffffffffffffffffffffffffffffffffff1673ffffffffffffffffffffffffffffffffffffffff16815260200190815260200160002054846122f391906141ef565b6122fd91906141be565b90506001600083815260200190815260200160002060009054906101000a900473ffffffffffffffffffffffffffffffffffffffff1673ffffffffffffffffffffffffffffffffffffffff166108fc829081150290604051600060405180830381858888f19350505050158015612378573d6000803e3d6000fd5b50508080612385906143a6565b915050612266565b50505050505050565b7f000000000000000000000000000000000000000000000000000000000000000081565b600060019054906101000a900473ffffffffffffffffffffffffffffffffffffffff1681565b60055481565b60075481565b60608173ffffffffffffffffffffffffffffffffffffffff166395d89b416040518163ffffffff1660e01b815260040160006040518083038186803b15801561243457600080fd5b505afa158015612448573d6000803e3d6000fd5b505050506040513d6000823e3d601f19601f82011682018060405250810190612471919061353f565b9050919050565b60045481565b73c778417e063141139fce010982780140aa0cd5ab81565b600960069054906101000a900462ffffff1681565b600960009054906101000a900462ffffff1681565b600060019054906101000a900473ffffffffffffffffffffffffffffffffffffffff1673ffffffffffffffffffffffffffffffffffffffff163373ffffffffffffffffffffffffffffffffffffffff1614612550576040517f08c379a000000000000000000000000000000000000000000000000000000000815260040161254790613e9f565b60405180910390fd5b6001600281111561258a577f4e487b7100000000000000000000000000000000000000000000000000000000600052602160045260246000fd5b60008054906101000a900460ff1660028111156125d0577f4e487b7100000000000000000000000000000000000000000000000000000000600052602160045260246000fd5b14612610576040517f08c379a000000000000000000000000000000000000000000000000000000000815260040161260790613fdf565b60405180910390fd5b612618611d17565b6126206106fb565b565b60026020528060005260406000206000915090505481565b600360205280600052604060002060009150905080600001549080600101805461266390614374565b80601f016020809104026020016040519081016040528092919081815260200182805461268f90614374565b80156126dc5780601f106126b1576101008083540402835291602001916126dc565b820191906000526020600020905b8154815290600101906020018083116126bf57829003601f168201915b5050505050908060020160009054906101000a900473ffffffffffffffffffffffffffffffffffffffff16908060030154908060040154905085565b60085481565b6008544210612762576040517f08c379a000000000000000000000000000000000000000000000000000000000815260040161275990613edf565b60405180910390fd5b6001600281111561279c577f4e487b7100000000000000000000000000000000000000000000000000000000600052602160045260246000fd5b60008054906101000a900460ff1660028111156127e2577f4e487b7100000000000000000000000000000000000000000000000000000000600052602160045260246000fd5b14612822576040517f08c379a000000000000000000000000000000000000000000000000000000000815260040161281990613f9f565b60405180910390fd5b600754341015612867576040517f08c379a000000000000000000000000000000000000000000000000000000000815260040161285e90613e3f565b60405180910390fd5b60008061289c73c778417e063141139fce010982780140aa0cd5ab735592ec0cfb4dbc12d3ab100b257153436a1f0fea61153b565b91509150816128e0576040517f08c379a00000000000000000000000000000000000000000000000000000000081526004016128d790613eff565b60405180910390fd5b6000600f426128ef9190614168565b9050600073c778417e063141139fce010982780140aa0cd5ab90506000735592ec0cfb4dbc12d3ab100b257153436a1f0fea90506000849050600030905060003490506000600190506000806040518061010001604052808973ffffffffffffffffffffffffffffffffffffffff1681526020018873ffffffffffffffffffffffffffffffffffffffff1681526020018762ffffff1681526020018673ffffffffffffffffffffffffffffffffffffffff1681526020018a81526020018581526020018481526020018373ffffffffffffffffffffffffffffffffffffffff16815250905060007f000000000000000000000000000000000000000000000000000000000000000073ffffffffffffffffffffffffffffffffffffffff1663414bf38934846040518363ffffffff1660e01b8152600401612a30919061403f565b6020604051808303818588803b158015612a4957600080fd5b505af1158015612a5d573d6000803e3d6000fd5b50505050506040513d601f19601f82011682018060405250810190612a8291906135a9565b90503360016000600454815260200190815260200160002060006101000a81548173ffffffffffffffffffffffffffffffffffffffff021916908373ffffffffffffffffffffffffffffffffffffffff16021790555080600260003373ffffffffffffffffffffffffffffffffffffffff1673ffffffffffffffffffffffffffffffffffffffff1681526020019081526020016000206000828254612b279190614168565b925050819055508060066000828254612b409190614168565b9250508190555060046000815480929190612b5a906143a6565b9190505550505050505050505050505050565b60008060019054906101000a900473ffffffffffffffffffffffffffffffffffffffff1673ffffffffffffffffffffffffffffffffffffffff163373ffffffffffffffffffffffffffffffffffffffff1614612bfe576040517f08c379a0000000000000000000000000000000000000000000000000000000008152600401612bf590613e9f565b60405180910390fd5b600280811115612c37577f4e487b7100000000000000000000000000000000000000000000000000000000600052602160045260246000fd5b60008054906101000a900460ff166002811115612c7d577f4e487b7100000000000000000000000000000000000000000000000000000000600052602160045260246000fd5b14612cbd576040517f08c379a0000000000000000000000000000000000000000000000000000000008152600401612cb490613fbf565b60405180910390fd5b6000600360008681526020019081526020016000206004015411612d16576040517f08c379a0000000000000000000000000000000000000000000000000000000008152600401612d0d90613e5f565b60405180910390fd5b600080612d6d735592ec0cfb4dbc12d3ab100b257153436a1f0fea6003600089815260200190815260200160002060020160009054906101000a900473ffffffffffffffffffffffffffffffffffffffff1661153b565b9150915081612db1576040517f08c379a0000000000000000000000000000000000000000000000000000000008152600401612da890613eff565b60405180910390fd5b836003600088815260200190815260200160002060030154612dd39190614168565b8511156130ba576000600360008881526020019081526020016000206004015490506000604051806101000160405280735592ec0cfb4dbc12d3ab100b257153436a1f0fea73ffffffffffffffffffffffffffffffffffffffff168152602001600360008b815260200190815260200160002060020160009054906101000a900473ffffffffffffffffffffffffffffffffffffffff1673ffffffffffffffffffffffffffffffffffffffff1681526020018462ffffff1681526020013073ffffffffffffffffffffffffffffffffffffffff168152602001603c42612eb99190614168565b815260200183815260200160018152602001600073ffffffffffffffffffffffffffffffffffffffff168152509050735592ec0cfb4dbc12d3ab100b257153436a1f0fea73ffffffffffffffffffffffffffffffffffffffff1663095ea7b37f0000000000000000000000000000000000000000000000000000000000000000846040518363ffffffff1660e01b8152600401612f57929190613d5f565b602060405180830381600087803b158015612f7157600080fd5b505af1158015612f85573d6000803e3d6000fd5b505050506040513d601f19601f82011682018060405250810190612fa99190613516565b5060007f000000000000000000000000000000000000000000000000000000000000000073ffffffffffffffffffffffffffffffffffffffff1663414bf389836040518263ffffffff1660e01b8152600401613005919061403f565b602060405180830381600087803b15801561301f57600080fd5b505af1158015613033573d6000803e3d6000fd5b505050506040513d601f19601f8201168201806040525081019061305791906135a9565b905082600360008b8152602001908152602001600020600401600082825461307f9190614249565b925050819055506000818461309491906141be565b905080600360008c81526020019081526020016000206003018190555060019650505050505b50509392505050565b735592ec0cfb4dbc12d3ab100b257153436a1f0fea81565b600060019054906101000a900473ffffffffffffffffffffffffffffffffffffffff1673ffffffffffffffffffffffffffffffffffffffff163373ffffffffffffffffffffffffffffffffffffffff161461316b576040517f08c379a000000000000000000000000000000000000000000000000000000000815260040161316290613e9f565b60405180910390fd5b600060028111156131a5577f4e487b7100000000000000000000000000000000000000000000000000000000600052602160045260246000fd5b60008054906101000a900460ff1660028111156131eb577f4e487b7100000000000000000000000000000000000000000000000000000000600052602160045260246000fd5b1461322b576040517f08c379a000000000000000000000000000000000000000000000000000000000815260040161322290613f5f565b60405180910390fd5b81600781905550804261323e9190614168565b60088190555060016000806101000a81548160ff0219169083600281111561328f577f4e487b7100000000000000000000000000000000000000000000000000000000600052602160045260246000fd5b02179055505050565b5080546132a490614374565b6000825580601f106132b657506132d5565b601f0160209004906000526020600020908101906132d4919061335e565b5b50565b8280546132e490614374565b90600052602060002090601f016020900481019282613306576000855561334d565b82601f1061331f57805160ff191683800117855561334d565b8280016001018555821561334d579182015b8281111561334c578251825591602001919060010190613331565b5b50905061335a919061335e565b5090565b5b8082111561337757600081600090555060010161335f565b5090565b600061338e6133898461411c565b6140eb565b9050828152602081018484840111156133a657600080fd5b6133b1848285614341565b509392505050565b6000813590506133c8816144ff565b92915050565b6000815190506133dd816144ff565b92915050565b6000815190506133f281614516565b92915050565b600082601f83011261340957600080fd5b815161341984826020860161337b565b91505092915050565b6000813590506134318161452d565b92915050565b6000815190506134468161452d565b92915050565b60006020828403121561345e57600080fd5b600061346c848285016133b9565b91505092915050565b60006020828403121561348757600080fd5b6000613495848285016133ce565b91505092915050565b600080604083850312156134b157600080fd5b60006134bf858286016133b9565b92505060206134d0858286016133b9565b9150509250929050565b600080604083850312156134ed57600080fd5b60006134fb858286016133b9565b925050602061350c85828601613422565b9150509250929050565b60006020828403121561352857600080fd5b6000613536848285016133e3565b91505092915050565b60006020828403121561355157600080fd5b600082015167ffffffffffffffff81111561356b57600080fd5b613577848285016133f8565b91505092915050565b60006020828403121561359257600080fd5b60006135a084828501613422565b91505092915050565b6000602082840312156135bb57600080fd5b60006135c984828501613437565b91505092915050565b600080604083850312156135e557600080fd5b60006135f385828601613422565b925050602061360485828601613422565b9150509250929050565b60008060006060848603121561362357600080fd5b600061363186828701613422565b935050602061364286828701613422565b925050604061365386828701613422565b9150509250925092565b6136668161427d565b82525050565b6136758161427d565b82525050565b6136848161428f565b82525050565b613693816142e7565b82525050565b6136a28161430b565b82525050565b6136b18161432f565b82525050565b60006136c28261414c565b6136cc8185614157565b93506136dc818560208601614341565b6136e5816144da565b840191505092915050565b60006136fd602683614157565b91507f596f75206d75737420636f6e7472696275746520746865206d696e696d756d2060008301527f616d6f756e7400000000000000000000000000000000000000000000000000006020830152604082019050919050565b6000613763601283614157565b91507f4e6f2066756e647320617661696c61626c6500000000000000000000000000006000830152602082019050919050565b60006137a3601283614157565b91507f4e6f20746f6b656e20617661696c61626c6500000000000000000000000000006000830152602082019050919050565b60006137e3602183614157565b91507f4f6e6c79206f776e65722063616e2063616c6c20746869732066756e6374696f60008301527f6e000000000000000000000000000000000000000000000000000000000000006020830152604082019050919050565b6000613849603883614157565b91507f4e6f206d6f726520746f6b656e206f66206261736543757272656e637920617660008301527f61696c61626c6520696e207468697320636f6e747261637400000000000000006020830152604082019050919050565b60006138af600983614157565b91507f54696d65206f76657200000000000000000000000000000000000000000000006000830152602082019050919050565b60006138ef601383614157565b91507f506f6f6c20646f6573206e6f74206578697374000000000000000000000000006000830152602082019050919050565b600061392f602383614157565b91507f436f6e74726962757474696f6e20706572696f64206e6f74207965742070617360008301527f73656400000000000000000000000000000000000000000000000000000000006020830152604082019050919050565b6000613995603083614157565b91507f596f752063616e206e6f74207472616465206261736543757272656e6379206960008301527f6e746f206261736543757272656e6379000000000000000000000000000000006020830152604082019050919050565b60006139fb601283614157565b91507f5374617465206d7573742062652069646c6500000000000000000000000000006000830152602082019050919050565b6000613a3b602683614157565b91507f4e6f20657468657220617661696c61626c6520746f206265207265646973747260008301527f69627574656400000000000000000000000000000000000000000000000000006020830152604082019050919050565b6000613aa1601a83614157565b91507f5374617465206d75737420626520434f4e545249425554494e470000000000006000830152602082019050919050565b6000613ae1602083614157565b91507f54726164696e67626f74206d75737420626520737461727465642066697273746000830152602082019050919050565b6000613b21602e83614157565b91507f426f742068617320737461727465642074726164696e6720616e642063616e2060008301527f6e6f742062652063616e636c65640000000000000000000000000000000000006020830152604082019050919050565b6000613b87603683614157565b91507f456163682072656769737465726564206173736574206d75737420676574206160008301527f2076616c7565206f66206261736543757272656e6379000000000000000000006020830152604082019050919050565b6000613bed601c83614157565b91507f4e6f2066756e647320746f2062652072656469737472696275746564000000006000830152602082019050919050565b61010082016000820151613c37600085018261365d565b506020820151613c4a602085018261365d565b506040820151613c5d6040850182613cd1565b506060820151613c70606085018261365d565b506080820151613c836080850182613cef565b5060a0820151613c9660a0850182613cef565b5060c0820151613ca960c0850182613cef565b5060e0820151613cbc60e0850182613cc2565b50505050565b613ccb816142ae565b82525050565b613cda816142ce565b82525050565b613ce9816142ce565b82525050565b613cf8816142dd565b82525050565b613d07816142dd565b82525050565b6000602082019050613d22600083018461366c565b92915050565b6000606082019050613d3d600083018661366c565b613d4a602083018561366c565b613d576040830184613ce0565b949350505050565b6000604082019050613d74600083018561366c565b613d816020830184613cfe565b9392505050565b6000602082019050613d9d600083018461367b565b92915050565b6000604082019050613db8600083018561367b565b613dc56020830184613ce0565b9392505050565b6000602082019050613de1600083018461368a565b92915050565b6000602082019050613dfc6000830184613699565b92915050565b6000602082019050613e1760008301846136a8565b92915050565b60006020820190508181036000830152613e3781846136b7565b905092915050565b60006020820190508181036000830152613e58816136f0565b9050919050565b60006020820190508181036000830152613e7881613756565b9050919050565b60006020820190508181036000830152613e9881613796565b9050919050565b60006020820190508181036000830152613eb8816137d6565b9050919050565b60006020820190508181036000830152613ed88161383c565b9050919050565b60006020820190508181036000830152613ef8816138a2565b9050919050565b60006020820190508181036000830152613f18816138e2565b9050919050565b60006020820190508181036000830152613f3881613922565b9050919050565b60006020820190508181036000830152613f5881613988565b9050919050565b60006020820190508181036000830152613f78816139ee565b9050919050565b60006020820190508181036000830152613f9881613a2e565b9050919050565b60006020820190508181036000830152613fb881613a94565b9050919050565b60006020820190508181036000830152613fd881613ad4565b9050919050565b60006020820190508181036000830152613ff881613b14565b9050919050565b6000602082019050818103600083015261401881613b7a565b9050919050565b6000602082019050818103600083015261403881613be0565b9050919050565b6000610100820190506140556000830184613c20565b92915050565b60006020820190506140706000830184613ce0565b92915050565b600060208201905061408b6000830184613cfe565b92915050565b600060a0820190506140a66000830188613cfe565b81810360208301526140b881876136b7565b90506140c7604083018661366c565b6140d46060830185613cfe565b6140e16080830184613cfe565b9695505050505050565b6000604051905081810181811067ffffffffffffffff82111715614112576141116144ab565b5b8060405250919050565b600067ffffffffffffffff821115614137576141366144ab565b5b601f19601f8301169050602081019050919050565b600081519050919050565b600082825260208201905092915050565b6000614173826142dd565b915061417e836142dd565b9250827fffffffffffffffffffffffffffffffffffffffffffffffffffffffffffffffff038211156141b3576141b26143ef565b5b828201905092915050565b60006141c9826142dd565b91506141d4836142dd565b9250826141e4576141e361441e565b5b828204905092915050565b60006141fa826142dd565b9150614205836142dd565b9250817fffffffffffffffffffffffffffffffffffffffffffffffffffffffffffffffff048311821515161561423e5761423d6143ef565b5b828202905092915050565b6000614254826142dd565b915061425f836142dd565b925082821015614272576142716143ef565b5b828203905092915050565b6000614288826142ae565b9050919050565b60008115159050919050565b60008190506142a9826144eb565b919050565b600073ffffffffffffffffffffffffffffffffffffffff82169050919050565b600062ffffff82169050919050565b6000819050919050565b60006142f2826142f9565b9050919050565b6000614304826142ae565b9050919050565b60006143168261431d565b9050919050565b6000614328826142ae565b9050919050565b600061433a8261429b565b9050919050565b60005b8381101561435f578082015181840152602081019050614344565b8381111561436e576000848401525b50505050565b6000600282049050600182168061438c57607f821691505b602082108114156143a05761439f61447c565b5b50919050565b60006143b1826142dd565b91507fffffffffffffffffffffffffffffffffffffffffffffffffffffffffffffffff8214156143e4576143e36143ef565b5b600182019050919050565b7f4e487b7100000000000000000000000000000000000000000000000000000000600052601160045260246000fd5b7f4e487b7100000000000000000000000000000000000000000000000000000000600052601260045260246000fd5b7f4e487b7100000000000000000000000000000000000000000000000000000000600052602160045260246000fd5b7f4e487b7100000000000000000000000000000000000000000000000000000000600052602260045260246000fd5b7f4e487b7100000000000000000000000000000000000000000000000000000000600052604160045260246000fd5b6000601f19601f8301169050919050565b600381106144fc576144fb61444d565b5b50565b6145088161427d565b811461451357600080fd5b50565b61451f8161428f565b811461452a57600080fd5b50565b614536816142dd565b811461454157600080fd5b5056fea2646970667358221220b098a130ecb68d9226cd0e366435de37ce8402f7db47597f44590fc4931d250a64736f6c63430008000033",
  "immutableReferences": {
    "408": [
      {
        "length": 32,
        "start": 5464
      },
      {
        "length": 32,
        "start": 5734
      },
      {
        "length": 32,
        "start": 6004
      },
      {
        "length": 32,
        "start": 9112
      }
    ],
    "414": [
      {
        "length": 32,
        "start": 3224
      },
      {
        "length": 32,
        "start": 3372
      },
      {
        "length": 32,
        "start": 3875
      },
      {
        "length": 32,
        "start": 4760
      },
      {
        "length": 32,
        "start": 4908
      },
      {
        "length": 32,
        "start": 7030
      },
      {
        "length": 32,
        "start": 7176
      },
      {
        "length": 32,
        "start": 7955
      },
      {
        "length": 32,
        "start": 8101
      },
      {
        "length": 32,
        "start": 10712
      },
      {
        "length": 32,
        "start": 12058
      },
      {
        "length": 32,
        "start": 12206
      }
    ]
  },
  "source": "// SPDX-License-Identifier: MIT\npragma solidity ^0.8.0;\n// pargma experimental ABIEncoderV2 no longer necessary from solidity 0.8.0\n\n// LEARNING:\n// - DAO Investment concept\n// - Integration of Uniswap as DEX to trade on\n\nimport \"@uniswap/v3-core/contracts/interfaces/IUniswapV3Factory.sol\";\nimport \"@uniswap/v3-periphery/contracts/interfaces/ISwapRouter.sol\";\n\nimport \"@openzeppelin/contracts/interfaces/IERC20.sol\";\nimport \"@openzeppelin/contracts/token/ERC20/extensions/IERC20Metadata.sol\";\n\n\ninterface IWETH9 {\n    function balanceOf(address account) external view returns (uint256);\n    function deposit() external payable;\n\n    function withdraw(uint256 wad) external;\n}\n\n\ncontract Tradingbot {\n  enum State {\n    IDLE,\n    CONTRIBUTING,\n    TRADING\n  }\n  State public currentState = State.IDLE;\n\n  struct Asset {\n    uint id;\n    string sticker;\n    address tokenAddress;\n    uint lastPrice;\n    uint availableFunds;\n  }\n\n  address public owner;\n\n  mapping(uint => address) public investors; // registered investors\n  mapping(address => uint) public shares; // shares per investor\n  mapping(uint => Asset) public assets; // registered token to  % of Portfolio\n\n  uint public nextInvestorId;\n  uint public nextAssetId;\n  uint public totalShares;\n  uint public minAmount;\n  uint public contributionEnd;\n\n  // allows to call functions from the Uniswap Factory contract\n  IUniswapV3Factory public immutable SwapV3Factory = IUniswapV3Factory(0x1F98431c8aD98523631AE4a59f267346ea31F984);\n\n  // allows to call functions from the Uniswap SwapRouter Interface\n  ISwapRouter public immutable SwapRouter = ISwapRouter(0xE592427A0AEce92De3Edee1F18E0157C05861564);\n\n  // we hardcode the token addresses (in production we would use an input parameter for this)\n  address public constant WETH = 0xc778417E063141139Fce010982780140Aa0cD5Ab; // WETH on Rinkeby Testnet\n  address public constant DAI = 0x5592EC0cfb4dbc12D3aB100b257153436a1f0FEa; // DAI on Rinkeby Testnet\n\n  // UniswapV3 allows 3 different pool fees\n  uint24 public poolFee_1 = 500;\n  uint24 public poolFee_2 = 3000;\n  uint24 public poolFee_3 = 10000;\n\n  // 1a. Define the admin of the investment contract\n  constructor() {\n    owner = msg.sender;\n  }\n\n  // 1b. Seperate initialize() function to reinitialize the contract for trading; not possible if this would be defined in constructor\n  function initialize(uint _minAmount, uint duration) external onlyOwner() {\n    require(currentState == State.IDLE, \"State must be idle\");\n    minAmount = _minAmount;\n    contributionEnd = block.timestamp + duration;\n\n    currentState = State.CONTRIBUTING;\n  }\n\n  // 2. DAO concept; anybody can contribute and will be registered as investor\n  function contribute() external payable timeOut() {\n    require(currentState == State.CONTRIBUTING, \"State must be CONTRIBUTING\");\n    require(msg.value >= minAmount, \"You must contribute the minimum amount\");\n    (bool _success, uint24 _poolFee) = _uniswapV3PoolExists(WETH, DAI);\n    require(_success, \"Pool does not exist\");\n\n    uint256 deadline = block.timestamp + 15; // using 'now' for convenience, for mainnet pass deadline from frontend!\n    address tokenIn = WETH;\n    address tokenOut = DAI;\n    uint24 fee = _poolFee;\n    address recipient = address(this);\n    uint256 amountIn = msg.value;\n    uint256 amountOutMinimum = 1;\n    uint160 sqrtPriceLimitX96 = 0;\n\n    ISwapRouter.ExactInputSingleParams memory params = ISwapRouter.ExactInputSingleParams(\n        tokenIn,\n        tokenOut,\n        fee,\n        recipient,\n        deadline,\n        amountIn,\n        amountOutMinimum,\n        sqrtPriceLimitX96\n    );\n\n\n    uint amountOut = SwapRouter.exactInputSingle{ value: msg.value }(params);\n\n    // an investor can contribute mutiple times; therefore shares neet to be +=;\n    investors[nextInvestorId] = msg.sender;\n    shares[msg.sender] += amountOut;\n    totalShares += amountOut;\n\n    // an address is registered as an investor if it has contributed the min amount once and nextInvestorId will be incremented\n    nextInvestorId ++;\n\n  }\n\n  // 3. As long as currentState = State.IDLE the owner can cancel the bot and refund the money\n  function cancelTradingbot() external onlyOwner() {\n    require(currentState == State.CONTRIBUTING, \"Bot has started trading and can not be cancled\");\n\n    _refundInvestors();\n\n    _reset();\n  }\n\n\n  // 4. Initial buy of token to be traded\n  // As long as there are funds of baseCurrency available you can invest in token\n  function initialAssetBuy(address _tokenAddress, uint _value) external onlyOwner() {\n      require(block.timestamp >= contributionEnd, \"Contributtion period not yet passed\");\n      require(getTokenBalance(DAI) > 0, \"No more token of baseCurrency available in this contract\");\n      require(_value > 0, \"Each registered asset must get a value of baseCurrency\");\n      require( _tokenAddress != DAI, \"You can not trade baseCurrency into baseCurrency\");\n\n      (bool _success, uint24 _poolFee) = _uniswapV3PoolExists(DAI, _tokenAddress);\n      require(_success, \"Pool does not exist\");\n\n      uint _amountIn = _value;\n\n      ISwapRouter.ExactInputSingleParams memory params = ISwapRouter.ExactInputSingleParams({\n        tokenIn: DAI,\n        tokenOut: _tokenAddress,\n        fee: _poolFee,\n        recipient: address(this),\n        deadline: block.timestamp + 60,\n        amountIn: _amountIn,\n        amountOutMinimum: 1,\n        sqrtPriceLimitX96: 0\n      });\n\n      // Approve the SwapRouter contract for the amount of DAI\n      // I first made an error to approve this contract - that's wrong, the DAI was already tranfered to this contract in contribute()\n      IERC20(DAI).approve(address(SwapRouter), _amountIn);\n\n      uint _amountOut = SwapRouter.exactInputSingle(params);\n\n      uint _price = uint(_amountIn / _amountOut);\n\n      assets[nextAssetId] = Asset(nextAssetId, getTokenSticker(_tokenAddress), _tokenAddress, _price, 0);\n      nextAssetId ++;\n\n      currentState = State.TRADING;\n\n  }\n\n  // 5. Sell token depending on predicted price development\n  //\n  function sellToken(uint _assetId, /*uint currentPrice,*/ uint predPrice, uint tuner) external onlyOwner() returns (bool _trade) {\n    require(currentState == State.TRADING, \"Tradingbot must be started first\");\n    require(getTokenBalance(assets[_assetId].tokenAddress) > 0, \"No token available\");\n\n    (bool _success, uint24 _poolFee) = _uniswapV3PoolExists(assets[_assetId].tokenAddress, DAI);\n    require(_success, \"Pool does not exist\");\n\n    // Check if price predicted in future x hours < (last buy - tuner)\n    if(predPrice < (assets[_assetId].lastPrice - tuner)) {\n\n      uint _amountIn = getTokenBalance(assets[_assetId].tokenAddress);\n\n      ISwapRouter.ExactInputSingleParams memory params = ISwapRouter.ExactInputSingleParams({\n        tokenIn: assets[_assetId].tokenAddress,\n        tokenOut: DAI,\n        fee: _poolFee,\n        recipient: address(this),\n        deadline: block.timestamp + 15,\n        amountIn: _amountIn,\n        amountOutMinimum: 1,\n        sqrtPriceLimitX96: 0\n      });\n\n      // Approve the SwapRouter contract for the amount of token to be traded\n      IERC20(assets[_assetId].tokenAddress).approve(address(SwapRouter), _amountIn);\n\n      uint _amountOut = SwapRouter.exactInputSingle(params);\n\n      //Updates the availableFunds of the asset in DAI\n      assets[_assetId].availableFunds += _amountOut;\n\n      //Calculates the selling price in DAI\n      uint _price = _amountOut /_amountIn;\n\n      assets[_assetId].lastPrice = _price;\n\n      _trade = true;\n\n    }\n  }\n  //\n\n  // 6. Buy token depending on predicted price development\n  function buyToken(uint _assetId, /*uint currentPrice,*/ uint predPrice, uint tuner) external onlyOwner() returns (bool _trade) {\n    require(currentState == State.TRADING, \"Tradingbot must be started first\");\n    require(assets[_assetId].availableFunds > 0, \"No funds available\");\n\n    (bool _success, uint24 _poolFee) = _uniswapV3PoolExists(DAI, assets[_assetId].tokenAddress);\n    require(_success, \"Pool does not exist\");\n\n    // Check if price predicted in future x hours < (last buy - tuner)\n    if(predPrice > (assets[_assetId].lastPrice + tuner)) {\n\n      uint _amountIn = assets[_assetId].availableFunds;\n\n      ISwapRouter.ExactInputSingleParams memory params = ISwapRouter.ExactInputSingleParams({\n        tokenIn: DAI,\n        tokenOut: assets[_assetId].tokenAddress,\n        fee: _poolFee,\n        recipient: address(this),\n        deadline: block.timestamp + 60,\n        amountIn: _amountIn,\n        amountOutMinimum: 1,\n        sqrtPriceLimitX96: 0\n      });\n\n      // Approve the SwapRouter contract for the amount of token to be traded\n      IERC20(DAI).approve(address(SwapRouter), _amountIn);\n\n      uint _amountOut = SwapRouter.exactInputSingle(params);\n\n      //Updates the availableFunds of the asset in DAI\n      assets[_assetId].availableFunds -= _amountIn;\n\n      //Calculates the buying price in DAI\n      uint _price = _amountIn /_amountOut;\n\n      assets[_assetId].lastPrice = _price;\n\n      _trade = true;\n\n    }\n  }\n  //\n\n  // 7. Liquidate portfolio and return money to investors\n  function liquidatePortfolio () external payable onlyOwner() {\n\n\n    for(uint i; i < nextAssetId; i++) {\n      if(getTokenBalance(assets[i].tokenAddress) > 0) {\n        (bool _success, uint24 _poolFee) = _uniswapV3PoolExists(assets[i].tokenAddress, DAI);\n        require(_success, \"Pool does not exist\");\n\n        uint _amountIn = getTokenBalance(assets[i].tokenAddress);\n\n        ISwapRouter.ExactInputSingleParams memory params = ISwapRouter.ExactInputSingleParams({\n          tokenIn: assets[i].tokenAddress,\n          tokenOut: DAI,\n          fee: _poolFee,\n          recipient: address(this),\n          deadline: block.timestamp + 15,\n          amountIn: _amountIn,\n          amountOutMinimum: 1,\n          sqrtPriceLimitX96: 0\n        });\n\n        // Approve the SwapRouter contract for the amount of token to be traded\n        IERC20(assets[i].tokenAddress).approve(address(SwapRouter), _amountIn);\n\n        SwapRouter.exactInputSingle(params);\n\n        //Updates the availableFunds of the asset in DAI\n        assets[i].availableFunds = 0;\n\n        //Calculates the selling price in DAI\n        uint _price = 0;\n\n        assets[i].lastPrice = _price;\n\n      }\n    }\n\n    _refundInvestors();\n\n    _reset();\n  }\n\n  // 8. Some view functions\n  function getBalance() external view returns(uint) {\n    return address(this).balance;\n  }\n\n  function getTokenBalance(address tokenAddress) public view returns(uint tokenBalance) {\n    tokenBalance = IERC20(tokenAddress).balanceOf(address(this));\n  }\n\n  function getTokenSticker(address tokenAddress) public view returns(string memory _sticker) {\n    _sticker = IERC20Metadata(tokenAddress).symbol();\n  }\n\n  function _uniswapV3PoolExists(address _tokenIn, address _tokenOut) public view returns (bool pool_existence, uint24 _poolFee){\n    if( SwapV3Factory.getPool(_tokenIn, _tokenOut, poolFee_1) != address(0) ){\n        _poolFee = poolFee_1;\n        pool_existence = true;\n    }\n    else if(SwapV3Factory.getPool(_tokenIn, _tokenOut, poolFee_2) != address(0)){\n        _poolFee = poolFee_2;\n        pool_existence = true;\n\n    }\n    else if(SwapV3Factory.getPool(_tokenIn, _tokenOut, poolFee_3) != address(0)){\n        _poolFee = poolFee_3;\n        pool_existence = true;\n\n    }\n\n  }\n\n  // swap DAI to WETH, then iterate over the nextInvestorId and refund the contract balance to the investors in relation to their shares\n  function _refundInvestors() public payable {\n    require(getTokenBalance(DAI) > 0, \"No funds to be redistributed\");\n\n    (bool _success, uint24 _poolFee) = _uniswapV3PoolExists(DAI, WETH);\n    require(_success, \"Pool does not exist\");\n\n    uint _amountIn = getTokenBalance(DAI);\n\n    ISwapRouter.ExactInputSingleParams memory params = ISwapRouter.ExactInputSingleParams({\n      tokenIn: DAI,\n      tokenOut: WETH,\n      fee: _poolFee,\n      recipient: address(this),\n      deadline: block.timestamp + 15,\n      amountIn: _amountIn,\n      amountOutMinimum: 1,\n      sqrtPriceLimitX96: 0\n    });\n\n    // Approve the SwapRouter contract for the amount of DAI\n    // I first made an error to approve this contract - that's wrong, the DAI was already tranfered to this contract in contribute()\n    IERC20(DAI).approve(address(SwapRouter), _amountIn);\n\n    SwapRouter.exactInputSingle(params);\n\n    // Unwrap WETH to ETH and send to this contract\n    uint balanceWETH = IWETH9(WETH).balanceOf(address(this));\n\n    IERC20(WETH).approve(address(this), balanceWETH);\n\n    if (balanceWETH > 0) {\n       IWETH9(WETH).withdraw(balanceWETH);\n    }\n\n\n    // Save value of contract balance and Calculate share for each investor\n    require(address(this).balance > 0, \"No ether available to be redistributed\");\n    uint _totalFunds = address(this).balance;\n\n    for(uint i=0; i < nextInvestorId; i++) {\n      uint _refund = _totalFunds * shares[investors[i]] / totalShares;\n      payable(investors[i]).transfer(_refund);\n    }\n\n\n  }\n\n  function _reset() public {\n\n    // mappings must be cleaned up one by one; delete key word only works for each entry\n    for(uint i=0; i < nextInvestorId; i++) {\n      delete shares[investors[i]];\n      delete investors[i];\n    }\n\n    for(uint j=0; j < nextAssetId; j++) {\n      delete assets[j];\n    }\n\n    nextInvestorId = 0;\n    nextAssetId = 0;\n    totalShares = 0;\n    // Other currentState variables minAmount and contributionEnd must be reinitialized in function initialize()\n\n    delete currentState;\n\n  }\n\n\n  modifier onlyOwner() {\n    require(msg.sender == owner, \"Only owner can call this function\");\n    _;\n  }\n\n  modifier timeOut() {\n    require(block.timestamp < contributionEnd, \"Time over\");\n    _;\n  }\n\n}\n",
  "sourcePath": "C:\\Rula01\\01_Lernen\\Udemy\\Projects\\cryptotradingbot_v1\\contracts\\Tradingbot_v2.sol",
  "compiler": {
    "name": "solc",
    "version": "0.8.0+commit.c7dfd78e.Emscripten.clang"
  },
  "schemaVersion": "3.4.3",
  "updatedAt": "2022-01-14T10:05:31.346Z",
  "networkType": "ethereum",
  "devdoc": {
    "kind": "dev",
    "methods": {},
    "version": 1
  },
  "userdoc": {
    "kind": "user",
    "methods": {},
    "version": 1
  }
}