{
  "contractName": "Tradingbot",
  "abi": [
    {
      "inputs": [],
      "stateMutability": "nonpayable",
      "type": "constructor"
    },
    {
      "inputs": [],
      "name": "DAI",
      "outputs": [
        {
          "internalType": "address",
          "name": "",
          "type": "address"
        }
      ],
      "stateMutability": "view",
      "type": "function",
      "constant": true
    },
    {
      "inputs": [],
      "name": "SwapRouter",
      "outputs": [
        {
          "internalType": "contract ISwapRouter",
          "name": "",
          "type": "address"
        }
      ],
      "stateMutability": "view",
      "type": "function",
      "constant": true
    },
    {
      "inputs": [],
      "name": "SwapV3Factory",
      "outputs": [
        {
          "internalType": "contract IUniswapV3Factory",
          "name": "",
          "type": "address"
        }
      ],
      "stateMutability": "view",
      "type": "function",
      "constant": true
    },
    {
      "inputs": [],
      "name": "WETH",
      "outputs": [
        {
          "internalType": "address",
          "name": "",
          "type": "address"
        }
      ],
      "stateMutability": "view",
      "type": "function",
      "constant": true
    },
    {
      "inputs": [
        {
          "internalType": "uint256",
          "name": "",
          "type": "uint256"
        }
      ],
      "name": "assets",
      "outputs": [
        {
          "internalType": "uint256",
          "name": "id",
          "type": "uint256"
        },
        {
          "internalType": "string",
          "name": "sticker",
          "type": "string"
        },
        {
          "internalType": "address",
          "name": "tokenAddress",
          "type": "address"
        },
        {
          "internalType": "uint256",
          "name": "lastPrice",
          "type": "uint256"
        },
        {
          "internalType": "uint256",
          "name": "availableFunds",
          "type": "uint256"
        }
      ],
      "stateMutability": "view",
      "type": "function",
      "constant": true
    },
    {
      "inputs": [],
      "name": "contributionEnd",
      "outputs": [
        {
          "internalType": "uint256",
          "name": "",
          "type": "uint256"
        }
      ],
      "stateMutability": "view",
      "type": "function",
      "constant": true
    },
    {
      "inputs": [
        {
          "internalType": "uint256",
          "name": "",
          "type": "uint256"
        }
      ],
      "name": "investors",
      "outputs": [
        {
          "internalType": "address",
          "name": "",
          "type": "address"
        }
      ],
      "stateMutability": "view",
      "type": "function",
      "constant": true
    },
    {
      "inputs": [],
      "name": "minAmount",
      "outputs": [
        {
          "internalType": "uint256",
          "name": "",
          "type": "uint256"
        }
      ],
      "stateMutability": "view",
      "type": "function",
      "constant": true
    },
    {
      "inputs": [],
      "name": "nextAssetId",
      "outputs": [
        {
          "internalType": "uint256",
          "name": "",
          "type": "uint256"
        }
      ],
      "stateMutability": "view",
      "type": "function",
      "constant": true
    },
    {
      "inputs": [],
      "name": "nextInvestorId",
      "outputs": [
        {
          "internalType": "uint256",
          "name": "",
          "type": "uint256"
        }
      ],
      "stateMutability": "view",
      "type": "function",
      "constant": true
    },
    {
      "inputs": [],
      "name": "owner",
      "outputs": [
        {
          "internalType": "address",
          "name": "",
          "type": "address"
        }
      ],
      "stateMutability": "view",
      "type": "function",
      "constant": true
    },
    {
      "inputs": [],
      "name": "poolFee_1",
      "outputs": [
        {
          "internalType": "uint24",
          "name": "",
          "type": "uint24"
        }
      ],
      "stateMutability": "view",
      "type": "function",
      "constant": true
    },
    {
      "inputs": [],
      "name": "poolFee_2",
      "outputs": [
        {
          "internalType": "uint24",
          "name": "",
          "type": "uint24"
        }
      ],
      "stateMutability": "view",
      "type": "function",
      "constant": true
    },
    {
      "inputs": [],
      "name": "poolFee_3",
      "outputs": [
        {
          "internalType": "uint24",
          "name": "",
          "type": "uint24"
        }
      ],
      "stateMutability": "view",
      "type": "function",
      "constant": true
    },
    {
      "inputs": [
        {
          "internalType": "address",
          "name": "",
          "type": "address"
        }
      ],
      "name": "shares",
      "outputs": [
        {
          "internalType": "uint256",
          "name": "",
          "type": "uint256"
        }
      ],
      "stateMutability": "view",
      "type": "function",
      "constant": true
    },
    {
      "inputs": [],
      "name": "state",
      "outputs": [
        {
          "internalType": "enum Tradingbot.State",
          "name": "",
          "type": "uint8"
        }
      ],
      "stateMutability": "view",
      "type": "function",
      "constant": true
    },
    {
      "inputs": [],
      "name": "totalShares",
      "outputs": [
        {
          "internalType": "uint256",
          "name": "",
          "type": "uint256"
        }
      ],
      "stateMutability": "view",
      "type": "function",
      "constant": true
    },
    {
      "inputs": [
        {
          "internalType": "uint256",
          "name": "_minAmount",
          "type": "uint256"
        },
        {
          "internalType": "uint256",
          "name": "duration",
          "type": "uint256"
        }
      ],
      "name": "initialize",
      "outputs": [],
      "stateMutability": "nonpayable",
      "type": "function"
    },
    {
      "inputs": [],
      "name": "contribute",
      "outputs": [],
      "stateMutability": "payable",
      "type": "function",
      "payable": true
    },
    {
      "inputs": [],
      "name": "cancelTradingbot",
      "outputs": [],
      "stateMutability": "nonpayable",
      "type": "function"
    },
    {
      "inputs": [
        {
          "internalType": "address",
          "name": "_tokenAddress",
          "type": "address"
        },
        {
          "internalType": "uint256",
          "name": "_value",
          "type": "uint256"
        }
      ],
      "name": "initialAssetBuy",
      "outputs": [],
      "stateMutability": "nonpayable",
      "type": "function"
    },
    {
      "inputs": [
        {
          "internalType": "uint256",
          "name": "_assetId",
          "type": "uint256"
        },
        {
          "internalType": "uint256",
          "name": "predPrice",
          "type": "uint256"
        },
        {
          "internalType": "uint256",
          "name": "tuner",
          "type": "uint256"
        }
      ],
      "name": "sellToken",
      "outputs": [
        {
          "internalType": "bool",
          "name": "_trade",
          "type": "bool"
        }
      ],
      "stateMutability": "nonpayable",
      "type": "function"
    },
    {
      "inputs": [
        {
          "internalType": "uint256",
          "name": "_assetId",
          "type": "uint256"
        },
        {
          "internalType": "uint256",
          "name": "predPrice",
          "type": "uint256"
        },
        {
          "internalType": "uint256",
          "name": "tuner",
          "type": "uint256"
        }
      ],
      "name": "buyToken",
      "outputs": [
        {
          "internalType": "bool",
          "name": "_trade",
          "type": "bool"
        }
      ],
      "stateMutability": "nonpayable",
      "type": "function"
    },
    {
      "inputs": [],
      "name": "liquidatePortfolio",
      "outputs": [],
      "stateMutability": "payable",
      "type": "function",
      "payable": true
    },
    {
      "inputs": [],
      "name": "getBalance",
      "outputs": [
        {
          "internalType": "uint256",
          "name": "",
          "type": "uint256"
        }
      ],
      "stateMutability": "view",
      "type": "function",
      "constant": true
    },
    {
      "inputs": [
        {
          "internalType": "address",
          "name": "tokenAddress",
          "type": "address"
        }
      ],
      "name": "getTokenBalance",
      "outputs": [
        {
          "internalType": "uint256",
          "name": "tokenBalance",
          "type": "uint256"
        }
      ],
      "stateMutability": "view",
      "type": "function",
      "constant": true
    },
    {
      "inputs": [
        {
          "internalType": "address",
          "name": "tokenAddress",
          "type": "address"
        }
      ],
      "name": "getTokenSticker",
      "outputs": [
        {
          "internalType": "string",
          "name": "_sticker",
          "type": "string"
        }
      ],
      "stateMutability": "view",
      "type": "function",
      "constant": true
    },
    {
      "inputs": [
        {
          "internalType": "address",
          "name": "_tokenIn",
          "type": "address"
        },
        {
          "internalType": "address",
          "name": "_tokenOut",
          "type": "address"
        }
      ],
      "name": "_uniswapV3PoolExists",
      "outputs": [
        {
          "internalType": "bool",
          "name": "pool_existence",
          "type": "bool"
        },
        {
          "internalType": "uint24",
          "name": "_poolFee",
          "type": "uint24"
        }
      ],
      "stateMutability": "view",
      "type": "function",
      "constant": true
    },
    {
      "inputs": [],
      "name": "_refundInvestors",
      "outputs": [],
      "stateMutability": "payable",
      "type": "function",
      "payable": true
    }
  ],
  "bytecode": "0x60c0604052731f98431c8ad98523631ae4a59f267346ea31f98473ffffffffffffffffffffffffffffffffffffffff1660809073ffffffffffffffffffffffffffffffffffffffff1660601b81525073e592427a0aece92de3edee1f18e0157c0586156473ffffffffffffffffffffffffffffffffffffffff1660a09073ffffffffffffffffffffffffffffffffffffffff1660601b8152506101f4600960006101000a81548162ffffff021916908362ffffff160217905550610bb8600960036101000a81548162ffffff021916908362ffffff160217905550612710600960066101000a81548162ffffff021916908362ffffff16021790555034801561010757600080fd5b5033600060016101000a81548173ffffffffffffffffffffffffffffffffffffffff021916908373ffffffffffffffffffffffffffffffffffffffff16021790555060805160601c60a05160601c6145976101d660003960008181610ae701528181610b7b01528181610d72015281816110e70152818161117b015281816119c501528181611a5701528181611d6201528181611df40152818161283801528181612d7a0152612e0e0152600081816113a7015281816114b5015281816115c301526121e701526145976000f3fe6080604052600436106101c25760003560e01c80639b2cb5d8116100f7578063c19d93fb11610095578063d7bb99ba11610064578063d7bb99ba14610625578063de2d554b1461062f578063e0bab4c41461066c578063e4a3011614610697576101c2565b8063c19d93fb14610551578063ce7c2ac21461057c578063cf35bdd0146105b9578063d151b516146105fa576101c2565b8063ad5c4648116100d1578063ad5c4648146104b9578063b1f0af4e146104e4578063b4f671df1461050f578063be57ed1e1461053a576101c2565b80639b2cb5d814610426578063a32fad2d14610451578063a89007921461048e576101c2565b80634e11e590116101645780637c84f91f1161013e5780637c84f91f1461039b5780638195abc8146103a55780638da5cb5b146103d05780638ed91318146103fb576101c2565b80634e11e5901461032a57806350c9290314610353578063584edf1014610391576101c2565b80633aecd0e3116101a05780633aecd0e31461025a5780633feb5f2b1461029757806342229829146102d45780634dc32eff146102ff576101c2565b806312065fe0146101c75780631f181d57146101f25780633a98ef391461022f575b600080fd5b3480156101d357600080fd5b506101dc6106c0565b6040516101e99190614093565b60405180910390f35b3480156101fe57600080fd5b506102196004803603810190610214919061362b565b6106c8565b6040516102269190613da5565b60405180910390f35b34801561023b57600080fd5b50610244610c90565b6040516102519190614093565b60405180910390f35b34801561026657600080fd5b50610281600480360381019061027c9190613469565b610c96565b60405161028e9190614093565b60405180910390f35b3480156102a357600080fd5b506102be60048036038101906102b9919061359d565b610d28565b6040516102cb9190613d2a565b60405180910390f35b3480156102e057600080fd5b506102e9610d5b565b6040516102f69190614078565b60405180910390f35b34801561030b57600080fd5b50610314610d70565b6040516103219190613de9565b60405180910390f35b34801561033657600080fd5b50610351600480360381019061034c91906134f7565b610d94565b005b34801561035f57600080fd5b5061037a600480360381019061037591906134bb565b61138a565b604051610388929190613dc0565b60405180910390f35b6103996116bc565b005b6103a3611b66565b005b3480156103b157600080fd5b506103ba6121e5565b6040516103c79190613e04565b60405180910390f35b3480156103dc57600080fd5b506103e5612209565b6040516103f29190613d2a565b60405180910390f35b34801561040757600080fd5b5061041061222f565b60405161041d9190614093565b60405180910390f35b34801561043257600080fd5b5061043b612235565b6040516104489190614093565b60405180910390f35b34801561045d57600080fd5b5061047860048036038101906104739190613469565b61223b565b6040516104859190613e3a565b60405180910390f35b34801561049a57600080fd5b506104a36122c7565b6040516104b09190614093565b60405180910390f35b3480156104c557600080fd5b506104ce6122cd565b6040516104db9190613d2a565b60405180910390f35b3480156104f057600080fd5b506104f96122e5565b6040516105069190614078565b60405180910390f35b34801561051b57600080fd5b506105246122fa565b6040516105319190614078565b60405180910390f35b34801561054657600080fd5b5061054f61230f565b005b34801561055d57600080fd5b50610566612471565b6040516105739190613e1f565b60405180910390f35b34801561058857600080fd5b506105a3600480360381019061059e9190613469565b612482565b6040516105b09190614093565b60405180910390f35b3480156105c557600080fd5b506105e060048036038101906105db919061359d565b61249a565b6040516105f19594939291906140ae565b60405180910390f35b34801561060657600080fd5b5061060f612578565b60405161061c9190614093565b60405180910390f35b61062d61257e565b005b34801561063b57600080fd5b506106566004803603810190610651919061362b565b6129cd565b6040516106639190613da5565b60405180910390f35b34801561067857600080fd5b50610681612f23565b60405161068e9190613d2a565b60405180910390f35b3480156106a357600080fd5b506106be60048036038101906106b991906135ef565b612f3b565b005b600047905090565b60008060019054906101000a900473ffffffffffffffffffffffffffffffffffffffff1673ffffffffffffffffffffffffffffffffffffffff163373ffffffffffffffffffffffffffffffffffffffff1614610759576040517f08c379a000000000000000000000000000000000000000000000000000000000815260040161075090613ebc565b60405180910390fd5b600280811115610792577f4e487b7100000000000000000000000000000000000000000000000000000000600052602160045260246000fd5b60008054906101000a900460ff1660028111156107d8577f4e487b7100000000000000000000000000000000000000000000000000000000600052602160045260246000fd5b14610818576040517f08c379a000000000000000000000000000000000000000000000000000000000815260040161080f90613fdc565b60405180910390fd5b60006108596003600087815260200190815260200160002060020160009054906101000a900473ffffffffffffffffffffffffffffffffffffffff16610c96565b11610899576040517f08c379a000000000000000000000000000000000000000000000000000000000815260040161089090613e9c565b60405180910390fd5b6000806108f06003600088815260200190815260200160002060020160009054906101000a900473ffffffffffffffffffffffffffffffffffffffff16735592ec0cfb4dbc12d3ab100b257153436a1f0fea61138a565b9150915081610934576040517f08c379a000000000000000000000000000000000000000000000000000000000815260040161092b90613f1c565b60405180910390fd5b8360036000888152602001908152602001600020600301546109569190614266565b851015610c8757600061099e6003600089815260200190815260200160002060020160009054906101000a900473ffffffffffffffffffffffffffffffffffffffff16610c96565b90506000604051806101000160405280600360008b815260200190815260200160002060020160009054906101000a900473ffffffffffffffffffffffffffffffffffffffff1673ffffffffffffffffffffffffffffffffffffffff168152602001735592ec0cfb4dbc12d3ab100b257153436a1f0fea73ffffffffffffffffffffffffffffffffffffffff1681526020018462ffffff1681526020013073ffffffffffffffffffffffffffffffffffffffff168152602001600f42610a649190614185565b815260200183815260200160018152602001600073ffffffffffffffffffffffffffffffffffffffff1681525090506003600089815260200190815260200160002060020160009054906101000a900473ffffffffffffffffffffffffffffffffffffffff1673ffffffffffffffffffffffffffffffffffffffff1663095ea7b37f0000000000000000000000000000000000000000000000000000000000000000846040518363ffffffff1660e01b8152600401610b24929190613d7c565b602060405180830381600087803b158015610b3e57600080fd5b505af1158015610b52573d6000803e3d6000fd5b505050506040513d601f19601f82011682018060405250810190610b769190613533565b5060007f000000000000000000000000000000000000000000000000000000000000000073ffffffffffffffffffffffffffffffffffffffff1663414bf389836040518263ffffffff1660e01b8152600401610bd2919061405c565b602060405180830381600087803b158015610bec57600080fd5b505af1158015610c00573d6000803e3d6000fd5b505050506040513d601f19601f82011682018060405250810190610c2491906135c6565b905080600360008b81526020019081526020016000206004016000828254610c4c9190614185565b9250508190555060008382610c6191906141db565b905080600360008c81526020019081526020016000206003018190555060019650505050505b50509392505050565b60065481565b60008173ffffffffffffffffffffffffffffffffffffffff166370a08231306040518263ffffffff1660e01b8152600401610cd19190613d2a565b60206040518083038186803b158015610ce957600080fd5b505afa158015610cfd573d6000803e3d6000fd5b505050506040513d601f19601f82011682018060405250810190610d2191906135c6565b9050919050565b60016020528060005260406000206000915054906101000a900473ffffffffffffffffffffffffffffffffffffffff1681565b600960039054906101000a900462ffffff1681565b7f000000000000000000000000000000000000000000000000000000000000000081565b600060019054906101000a900473ffffffffffffffffffffffffffffffffffffffff1673ffffffffffffffffffffffffffffffffffffffff163373ffffffffffffffffffffffffffffffffffffffff1614610e24576040517f08c379a0000000000000000000000000000000000000000000000000000000008152600401610e1b90613ebc565b60405180910390fd5b600854421015610e69576040517f08c379a0000000000000000000000000000000000000000000000000000000008152600401610e6090613f3c565b60405180910390fd5b6000610e88735592ec0cfb4dbc12d3ab100b257153436a1f0fea610c96565b11610ec8576040517f08c379a0000000000000000000000000000000000000000000000000000000008152600401610ebf90613edc565b60405180910390fd5b60008111610f0b576040517f08c379a0000000000000000000000000000000000000000000000000000000008152600401610f029061401c565b60405180910390fd5b735592ec0cfb4dbc12d3ab100b257153436a1f0fea73ffffffffffffffffffffffffffffffffffffffff168273ffffffffffffffffffffffffffffffffffffffff161415610f8e576040517f08c379a0000000000000000000000000000000000000000000000000000000008152600401610f8590613f5c565b60405180910390fd5b600080610faf735592ec0cfb4dbc12d3ab100b257153436a1f0fea8561138a565b9150915081610ff3576040517f08c379a0000000000000000000000000000000000000000000000000000000008152600401610fea90613f1c565b60405180910390fd5b60008390506000604051806101000160405280735592ec0cfb4dbc12d3ab100b257153436a1f0fea73ffffffffffffffffffffffffffffffffffffffff1681526020018773ffffffffffffffffffffffffffffffffffffffff1681526020018462ffffff1681526020013073ffffffffffffffffffffffffffffffffffffffff168152602001603c426110869190614185565b815260200183815260200160018152602001600073ffffffffffffffffffffffffffffffffffffffff168152509050735592ec0cfb4dbc12d3ab100b257153436a1f0fea73ffffffffffffffffffffffffffffffffffffffff1663095ea7b37f0000000000000000000000000000000000000000000000000000000000000000846040518363ffffffff1660e01b8152600401611124929190613d7c565b602060405180830381600087803b15801561113e57600080fd5b505af1158015611152573d6000803e3d6000fd5b505050506040513d601f19601f820116820180604052508101906111769190613533565b5060007f000000000000000000000000000000000000000000000000000000000000000073ffffffffffffffffffffffffffffffffffffffff1663414bf389836040518263ffffffff1660e01b81526004016111d2919061405c565b602060405180830381600087803b1580156111ec57600080fd5b505af1158015611200573d6000803e3d6000fd5b505050506040513d601f19601f8201168201806040525081019061122491906135c6565b90506000818461123491906141db565b90506040518060a0016040528060055481526020016112528a61223b565b81526020018973ffffffffffffffffffffffffffffffffffffffff16815260200182815260200160008152506003600060055481526020019081526020016000206000820151816000015560208201518160010190805190602001906112b99291906132b5565b5060408201518160020160006101000a81548173ffffffffffffffffffffffffffffffffffffffff021916908373ffffffffffffffffffffffffffffffffffffffff16021790555060608201518160030155608082015181600401559050506005600081548092919061132b906143c3565b919050555060026000806101000a81548160ff0219169083600281111561137b577f4e487b7100000000000000000000000000000000000000000000000000000000600052602160045260246000fd5b02179055505050505050505050565b600080600073ffffffffffffffffffffffffffffffffffffffff167f000000000000000000000000000000000000000000000000000000000000000073ffffffffffffffffffffffffffffffffffffffff16631698ee828686600960009054906101000a900462ffffff166040518463ffffffff1660e01b815260040161141393929190613d45565b60206040518083038186803b15801561142b57600080fd5b505afa15801561143f573d6000803e3d6000fd5b505050506040513d601f19601f820116820180604052508101906114639190613492565b73ffffffffffffffffffffffffffffffffffffffff161461149b57600960009054906101000a900462ffffff169050600191506116b5565b600073ffffffffffffffffffffffffffffffffffffffff167f000000000000000000000000000000000000000000000000000000000000000073ffffffffffffffffffffffffffffffffffffffff16631698ee828686600960039054906101000a900462ffffff166040518463ffffffff1660e01b815260040161152193929190613d45565b60206040518083038186803b15801561153957600080fd5b505afa15801561154d573d6000803e3d6000fd5b505050506040513d601f19601f820116820180604052508101906115719190613492565b73ffffffffffffffffffffffffffffffffffffffff16146115a957600960039054906101000a900462ffffff169050600191506116b4565b600073ffffffffffffffffffffffffffffffffffffffff167f000000000000000000000000000000000000000000000000000000000000000073ffffffffffffffffffffffffffffffffffffffff16631698ee828686600960069054906101000a900462ffffff166040518463ffffffff1660e01b815260040161162f93929190613d45565b60206040518083038186803b15801561164757600080fd5b505afa15801561165b573d6000803e3d6000fd5b505050506040513d601f19601f8201168201806040525081019061167f9190613492565b73ffffffffffffffffffffffffffffffffffffffff16146116b357600960069054906101000a900462ffffff169050600191505b5b5b9250929050565b600060019054906101000a900473ffffffffffffffffffffffffffffffffffffffff1673ffffffffffffffffffffffffffffffffffffffff163373ffffffffffffffffffffffffffffffffffffffff161461174c576040517f08c379a000000000000000000000000000000000000000000000000000000000815260040161174390613ebc565b60405180910390fd5b60005b600554811015611b5357600061179a6003600084815260200190815260200160002060020160009054906101000a900473ffffffffffffffffffffffffffffffffffffffff16610c96565b1115611b40576000806117f76003600085815260200190815260200160002060020160009054906101000a900473ffffffffffffffffffffffffffffffffffffffff16735592ec0cfb4dbc12d3ab100b257153436a1f0fea61138a565b915091508161183b576040517f08c379a000000000000000000000000000000000000000000000000000000000815260040161183290613f1c565b60405180910390fd5b600061187c6003600086815260200190815260200160002060020160009054906101000a900473ffffffffffffffffffffffffffffffffffffffff16610c96565b905060006040518061010001604052806003600088815260200190815260200160002060020160009054906101000a900473ffffffffffffffffffffffffffffffffffffffff1673ffffffffffffffffffffffffffffffffffffffff168152602001735592ec0cfb4dbc12d3ab100b257153436a1f0fea73ffffffffffffffffffffffffffffffffffffffff1681526020018462ffffff1681526020013073ffffffffffffffffffffffffffffffffffffffff168152602001600f426119429190614185565b815260200183815260200160018152602001600073ffffffffffffffffffffffffffffffffffffffff1681525090506003600086815260200190815260200160002060020160009054906101000a900473ffffffffffffffffffffffffffffffffffffffff1673ffffffffffffffffffffffffffffffffffffffff1663095ea7b37f0000000000000000000000000000000000000000000000000000000000000000846040518363ffffffff1660e01b8152600401611a02929190613d7c565b602060405180830381600087803b158015611a1c57600080fd5b505af1158015611a30573d6000803e3d6000fd5b505050506040513d601f19601f82011682018060405250810190611a549190613533565b507f000000000000000000000000000000000000000000000000000000000000000073ffffffffffffffffffffffffffffffffffffffff1663414bf389826040518263ffffffff1660e01b8152600401611aae919061405c565b602060405180830381600087803b158015611ac857600080fd5b505af1158015611adc573d6000803e3d6000fd5b505050506040513d601f19601f82011682018060405250810190611b0091906135c6565b5060006003600087815260200190815260200160002060040181905550600080600360008881526020019081526020016000206003018190555050505050505b8080611b4b906143c3565b91505061174f565b50611b5c611b66565b611b646130f8565b565b6000611b85735592ec0cfb4dbc12d3ab100b257153436a1f0fea610c96565b11611bc5576040517f08c379a0000000000000000000000000000000000000000000000000000000008152600401611bbc9061403c565b60405180910390fd5b600080611bfa735592ec0cfb4dbc12d3ab100b257153436a1f0fea73c778417e063141139fce010982780140aa0cd5ab61138a565b9150915081611c3e576040517f08c379a0000000000000000000000000000000000000000000000000000000008152600401611c3590613f1c565b60405180910390fd5b6000611c5d735592ec0cfb4dbc12d3ab100b257153436a1f0fea610c96565b90506000604051806101000160405280735592ec0cfb4dbc12d3ab100b257153436a1f0fea73ffffffffffffffffffffffffffffffffffffffff16815260200173c778417e063141139fce010982780140aa0cd5ab73ffffffffffffffffffffffffffffffffffffffff1681526020018462ffffff1681526020013073ffffffffffffffffffffffffffffffffffffffff168152602001600f42611d019190614185565b815260200183815260200160018152602001600073ffffffffffffffffffffffffffffffffffffffff168152509050735592ec0cfb4dbc12d3ab100b257153436a1f0fea73ffffffffffffffffffffffffffffffffffffffff1663095ea7b37f0000000000000000000000000000000000000000000000000000000000000000846040518363ffffffff1660e01b8152600401611d9f929190613d7c565b602060405180830381600087803b158015611db957600080fd5b505af1158015611dcd573d6000803e3d6000fd5b505050506040513d601f19601f82011682018060405250810190611df19190613533565b507f000000000000000000000000000000000000000000000000000000000000000073ffffffffffffffffffffffffffffffffffffffff1663414bf389826040518263ffffffff1660e01b8152600401611e4b919061405c565b602060405180830381600087803b158015611e6557600080fd5b505af1158015611e79573d6000803e3d6000fd5b505050506040513d601f19601f82011682018060405250810190611e9d91906135c6565b50600073c778417e063141139fce010982780140aa0cd5ab73ffffffffffffffffffffffffffffffffffffffff166370a08231306040518263ffffffff1660e01b8152600401611eed9190613d2a565b60206040518083038186803b158015611f0557600080fd5b505afa158015611f19573d6000803e3d6000fd5b505050506040513d601f19601f82011682018060405250810190611f3d91906135c6565b905073c778417e063141139fce010982780140aa0cd5ab73ffffffffffffffffffffffffffffffffffffffff1663095ea7b330836040518363ffffffff1660e01b8152600401611f8e929190613d7c565b602060405180830381600087803b158015611fa857600080fd5b505af1158015611fbc573d6000803e3d6000fd5b505050506040513d601f19601f82011682018060405250810190611fe09190613533565b50600081111561206a5773c778417e063141139fce010982780140aa0cd5ab73ffffffffffffffffffffffffffffffffffffffff16632e1a7d4d826040518263ffffffff1660e01b81526004016120379190614093565b600060405180830381600087803b15801561205157600080fd5b505af1158015612065573d6000803e3d6000fd5b505050505b600047116120ad576040517f08c379a00000000000000000000000000000000000000000000000000000000081526004016120a490613f9c565b60405180910390fd5b600047905060005b6004548110156121dc576000600654600260006001600086815260200190815260200160002060009054906101000a900473ffffffffffffffffffffffffffffffffffffffff1673ffffffffffffffffffffffffffffffffffffffff1673ffffffffffffffffffffffffffffffffffffffff1681526020019081526020016000205484612142919061420c565b61214c91906141db565b90506001600083815260200190815260200160002060009054906101000a900473ffffffffffffffffffffffffffffffffffffffff1673ffffffffffffffffffffffffffffffffffffffff166108fc829081150290604051600060405180830381858888f193505050501580156121c7573d6000803e3d6000fd5b505080806121d4906143c3565b9150506120b5565b50505050505050565b7f000000000000000000000000000000000000000000000000000000000000000081565b600060019054906101000a900473ffffffffffffffffffffffffffffffffffffffff1681565b60055481565b60075481565b60608173ffffffffffffffffffffffffffffffffffffffff166395d89b416040518163ffffffff1660e01b815260040160006040518083038186803b15801561228357600080fd5b505afa158015612297573d6000803e3d6000fd5b505050506040513d6000823e3d601f19601f820116820180604052508101906122c0919061355c565b9050919050565b60045481565b73c778417e063141139fce010982780140aa0cd5ab81565b600960069054906101000a900462ffffff1681565b600960009054906101000a900462ffffff1681565b600060019054906101000a900473ffffffffffffffffffffffffffffffffffffffff1673ffffffffffffffffffffffffffffffffffffffff163373ffffffffffffffffffffffffffffffffffffffff161461239f576040517f08c379a000000000000000000000000000000000000000000000000000000000815260040161239690613ebc565b60405180910390fd5b600160028111156123d9577f4e487b7100000000000000000000000000000000000000000000000000000000600052602160045260246000fd5b60008054906101000a900460ff16600281111561241f577f4e487b7100000000000000000000000000000000000000000000000000000000600052602160045260246000fd5b1461245f576040517f08c379a000000000000000000000000000000000000000000000000000000000815260040161245690613ffc565b60405180910390fd5b612467611b66565b61246f6130f8565b565b60008054906101000a900460ff1681565b60026020528060005260406000206000915090505481565b60036020528060005260406000206000915090508060000154908060010180546124c390614391565b80601f01602080910402602001604051908101604052809291908181526020018280546124ef90614391565b801561253c5780601f106125115761010080835404028352916020019161253c565b820191906000526020600020905b81548152906001019060200180831161251f57829003601f168201915b5050505050908060020160009054906101000a900473ffffffffffffffffffffffffffffffffffffffff16908060030154908060040154905085565b60085481565b60085442106125c2576040517f08c379a00000000000000000000000000000000000000000000000000000000081526004016125b990613efc565b60405180910390fd5b600160028111156125fc577f4e487b7100000000000000000000000000000000000000000000000000000000600052602160045260246000fd5b60008054906101000a900460ff166002811115612642577f4e487b7100000000000000000000000000000000000000000000000000000000600052602160045260246000fd5b14612682576040517f08c379a000000000000000000000000000000000000000000000000000000000815260040161267990613fbc565b60405180910390fd5b6007543410156126c7576040517f08c379a00000000000000000000000000000000000000000000000000000000081526004016126be90613e5c565b60405180910390fd5b6000806126fc73c778417e063141139fce010982780140aa0cd5ab735592ec0cfb4dbc12d3ab100b257153436a1f0fea61138a565b9150915081612740576040517f08c379a000000000000000000000000000000000000000000000000000000000815260040161273790613f1c565b60405180910390fd5b6000600f4261274f9190614185565b9050600073c778417e063141139fce010982780140aa0cd5ab90506000735592ec0cfb4dbc12d3ab100b257153436a1f0fea90506000849050600030905060003490506000600190506000806040518061010001604052808973ffffffffffffffffffffffffffffffffffffffff1681526020018873ffffffffffffffffffffffffffffffffffffffff1681526020018762ffffff1681526020018673ffffffffffffffffffffffffffffffffffffffff1681526020018a81526020018581526020018481526020018373ffffffffffffffffffffffffffffffffffffffff16815250905060007f000000000000000000000000000000000000000000000000000000000000000073ffffffffffffffffffffffffffffffffffffffff1663414bf38934846040518363ffffffff1660e01b8152600401612890919061405c565b6020604051808303818588803b1580156128a957600080fd5b505af11580156128bd573d6000803e3d6000fd5b50505050506040513d601f19601f820116820180604052508101906128e291906135c6565b90503360016000600454815260200190815260200160002060006101000a81548173ffffffffffffffffffffffffffffffffffffffff021916908373ffffffffffffffffffffffffffffffffffffffff16021790555080600260003373ffffffffffffffffffffffffffffffffffffffff1673ffffffffffffffffffffffffffffffffffffffff16815260200190815260200160002060008282546129879190614185565b9250508190555080600660008282546129a09190614185565b92505081905550600460008154809291906129ba906143c3565b9190505550505050505050505050505050565b60008060019054906101000a900473ffffffffffffffffffffffffffffffffffffffff1673ffffffffffffffffffffffffffffffffffffffff163373ffffffffffffffffffffffffffffffffffffffff1614612a5e576040517f08c379a0000000000000000000000000000000000000000000000000000000008152600401612a5590613ebc565b60405180910390fd5b600280811115612a97577f4e487b7100000000000000000000000000000000000000000000000000000000600052602160045260246000fd5b60008054906101000a900460ff166002811115612add577f4e487b7100000000000000000000000000000000000000000000000000000000600052602160045260246000fd5b14612b1d576040517f08c379a0000000000000000000000000000000000000000000000000000000008152600401612b1490613fdc565b60405180910390fd5b6000600360008681526020019081526020016000206004015411612b76576040517f08c379a0000000000000000000000000000000000000000000000000000000008152600401612b6d90613e7c565b60405180910390fd5b600080612bcd735592ec0cfb4dbc12d3ab100b257153436a1f0fea6003600089815260200190815260200160002060020160009054906101000a900473ffffffffffffffffffffffffffffffffffffffff1661138a565b9150915081612c11576040517f08c379a0000000000000000000000000000000000000000000000000000000008152600401612c0890613f1c565b60405180910390fd5b836003600088815260200190815260200160002060030154612c339190614185565b851115612f1a576000600360008881526020019081526020016000206004015490506000604051806101000160405280735592ec0cfb4dbc12d3ab100b257153436a1f0fea73ffffffffffffffffffffffffffffffffffffffff168152602001600360008b815260200190815260200160002060020160009054906101000a900473ffffffffffffffffffffffffffffffffffffffff1673ffffffffffffffffffffffffffffffffffffffff1681526020018462ffffff1681526020013073ffffffffffffffffffffffffffffffffffffffff168152602001603c42612d199190614185565b815260200183815260200160018152602001600073ffffffffffffffffffffffffffffffffffffffff168152509050735592ec0cfb4dbc12d3ab100b257153436a1f0fea73ffffffffffffffffffffffffffffffffffffffff1663095ea7b37f0000000000000000000000000000000000000000000000000000000000000000846040518363ffffffff1660e01b8152600401612db7929190613d7c565b602060405180830381600087803b158015612dd157600080fd5b505af1158015612de5573d6000803e3d6000fd5b505050506040513d601f19601f82011682018060405250810190612e099190613533565b5060007f000000000000000000000000000000000000000000000000000000000000000073ffffffffffffffffffffffffffffffffffffffff1663414bf389836040518263ffffffff1660e01b8152600401612e65919061405c565b602060405180830381600087803b158015612e7f57600080fd5b505af1158015612e93573d6000803e3d6000fd5b505050506040513d601f19601f82011682018060405250810190612eb791906135c6565b905082600360008b81526020019081526020016000206004016000828254612edf9190614266565b9250508190555060008184612ef491906141db565b905080600360008c81526020019081526020016000206003018190555060019650505050505b50509392505050565b735592ec0cfb4dbc12d3ab100b257153436a1f0fea81565b600060019054906101000a900473ffffffffffffffffffffffffffffffffffffffff1673ffffffffffffffffffffffffffffffffffffffff163373ffffffffffffffffffffffffffffffffffffffff1614612fcb576040517f08c379a0000000000000000000000000000000000000000000000000000000008152600401612fc290613ebc565b60405180910390fd5b60006002811115613005577f4e487b7100000000000000000000000000000000000000000000000000000000600052602160045260246000fd5b60008054906101000a900460ff16600281111561304b577f4e487b7100000000000000000000000000000000000000000000000000000000600052602160045260246000fd5b1461308b576040517f08c379a000000000000000000000000000000000000000000000000000000000815260040161308290613f7c565b60405180910390fd5b81600781905550804261309e9190614185565b60088190555060016000806101000a81548160ff021916908360028111156130ef577f4e487b7100000000000000000000000000000000000000000000000000000000600052602160045260246000fd5b02179055505050565b60005b6004548110156131c457600260006001600084815260200190815260200160002060009054906101000a900473ffffffffffffffffffffffffffffffffffffffff1673ffffffffffffffffffffffffffffffffffffffff1673ffffffffffffffffffffffffffffffffffffffff168152602001908152602001600020600090556001600082815260200190815260200160002060006101000a81549073ffffffffffffffffffffffffffffffffffffffff021916905580806131bc906143c3565b9150506130fb565b5060005b60055481101561324a57600360008281526020019081526020016000206000808201600090556001820160006131fe919061333b565b6002820160006101000a81549073ffffffffffffffffffffffffffffffffffffffff02191690556003820160009055600482016000905550508080613242906143c3565b9150506131c8565b5060006004819055506000600581905550600060068190555060008060006101000a81548160ff021916908360028111156132ae577f4e487b7100000000000000000000000000000000000000000000000000000000600052602160045260246000fd5b0217905550565b8280546132c190614391565b90600052602060002090601f0160209004810192826132e3576000855561332a565b82601f106132fc57805160ff191683800117855561332a565b8280016001018555821561332a579182015b8281111561332957825182559160200191906001019061330e565b5b509050613337919061337b565b5090565b50805461334790614391565b6000825580601f106133595750613378565b601f016020900490600052602060002090810190613377919061337b565b5b50565b5b8082111561339457600081600090555060010161337c565b5090565b60006133ab6133a684614139565b614108565b9050828152602081018484840111156133c357600080fd5b6133ce84828561435e565b509392505050565b6000813590506133e58161451c565b92915050565b6000815190506133fa8161451c565b92915050565b60008151905061340f81614533565b92915050565b600082601f83011261342657600080fd5b8151613436848260208601613398565b91505092915050565b60008135905061344e8161454a565b92915050565b6000815190506134638161454a565b92915050565b60006020828403121561347b57600080fd5b6000613489848285016133d6565b91505092915050565b6000602082840312156134a457600080fd5b60006134b2848285016133eb565b91505092915050565b600080604083850312156134ce57600080fd5b60006134dc858286016133d6565b92505060206134ed858286016133d6565b9150509250929050565b6000806040838503121561350a57600080fd5b6000613518858286016133d6565b92505060206135298582860161343f565b9150509250929050565b60006020828403121561354557600080fd5b600061355384828501613400565b91505092915050565b60006020828403121561356e57600080fd5b600082015167ffffffffffffffff81111561358857600080fd5b61359484828501613415565b91505092915050565b6000602082840312156135af57600080fd5b60006135bd8482850161343f565b91505092915050565b6000602082840312156135d857600080fd5b60006135e684828501613454565b91505092915050565b6000806040838503121561360257600080fd5b60006136108582860161343f565b92505060206136218582860161343f565b9150509250929050565b60008060006060848603121561364057600080fd5b600061364e8682870161343f565b935050602061365f8682870161343f565b92505060406136708682870161343f565b9150509250925092565b6136838161429a565b82525050565b6136928161429a565b82525050565b6136a1816142ac565b82525050565b6136b081614304565b82525050565b6136bf81614328565b82525050565b6136ce8161434c565b82525050565b60006136df82614169565b6136e98185614174565b93506136f981856020860161435e565b613702816144f7565b840191505092915050565b600061371a602683614174565b91507f596f75206d75737420636f6e7472696275746520746865206d696e696d756d2060008301527f616d6f756e7400000000000000000000000000000000000000000000000000006020830152604082019050919050565b6000613780601283614174565b91507f4e6f2066756e647320617661696c61626c6500000000000000000000000000006000830152602082019050919050565b60006137c0601283614174565b91507f4e6f20746f6b656e20617661696c61626c6500000000000000000000000000006000830152602082019050919050565b6000613800602183614174565b91507f4f6e6c79206f776e65722063616e2063616c6c20746869732066756e6374696f60008301527f6e000000000000000000000000000000000000000000000000000000000000006020830152604082019050919050565b6000613866603883614174565b91507f4e6f206d6f726520746f6b656e206f66206261736543757272656e637920617660008301527f61696c61626c6520696e207468697320636f6e747261637400000000000000006020830152604082019050919050565b60006138cc600983614174565b91507f54696d65206f76657200000000000000000000000000000000000000000000006000830152602082019050919050565b600061390c601383614174565b91507f506f6f6c20646f6573206e6f74206578697374000000000000000000000000006000830152602082019050919050565b600061394c602383614174565b91507f436f6e74726962757474696f6e20706572696f64206e6f74207965742070617360008301527f73656400000000000000000000000000000000000000000000000000000000006020830152604082019050919050565b60006139b2603083614174565b91507f596f752063616e206e6f74207472616465206261736543757272656e6379206960008301527f6e746f206261736543757272656e6379000000000000000000000000000000006020830152604082019050919050565b6000613a18601283614174565b91507f5374617465206d7573742062652069646c6500000000000000000000000000006000830152602082019050919050565b6000613a58602683614174565b91507f4e6f20657468657220617661696c61626c6520746f206265207265646973747260008301527f69627574656400000000000000000000000000000000000000000000000000006020830152604082019050919050565b6000613abe601a83614174565b91507f5374617465206d75737420626520434f4e545249425554494e470000000000006000830152602082019050919050565b6000613afe602083614174565b91507f54726164696e67626f74206d75737420626520737461727465642066697273746000830152602082019050919050565b6000613b3e602e83614174565b91507f426f742068617320737461727465642074726164696e6720616e642063616e2060008301527f6e6f742062652063616e636c65640000000000000000000000000000000000006020830152604082019050919050565b6000613ba4603683614174565b91507f456163682072656769737465726564206173736574206d75737420676574206160008301527f2076616c7565206f66206261736543757272656e6379000000000000000000006020830152604082019050919050565b6000613c0a601c83614174565b91507f4e6f2066756e647320746f2062652072656469737472696275746564000000006000830152602082019050919050565b61010082016000820151613c54600085018261367a565b506020820151613c67602085018261367a565b506040820151613c7a6040850182613cee565b506060820151613c8d606085018261367a565b506080820151613ca06080850182613d0c565b5060a0820151613cb360a0850182613d0c565b5060c0820151613cc660c0850182613d0c565b5060e0820151613cd960e0850182613cdf565b50505050565b613ce8816142cb565b82525050565b613cf7816142eb565b82525050565b613d06816142eb565b82525050565b613d15816142fa565b82525050565b613d24816142fa565b82525050565b6000602082019050613d3f6000830184613689565b92915050565b6000606082019050613d5a6000830186613689565b613d676020830185613689565b613d746040830184613cfd565b949350505050565b6000604082019050613d916000830185613689565b613d9e6020830184613d1b565b9392505050565b6000602082019050613dba6000830184613698565b92915050565b6000604082019050613dd56000830185613698565b613de26020830184613cfd565b9392505050565b6000602082019050613dfe60008301846136a7565b92915050565b6000602082019050613e1960008301846136b6565b92915050565b6000602082019050613e3460008301846136c5565b92915050565b60006020820190508181036000830152613e5481846136d4565b905092915050565b60006020820190508181036000830152613e758161370d565b9050919050565b60006020820190508181036000830152613e9581613773565b9050919050565b60006020820190508181036000830152613eb5816137b3565b9050919050565b60006020820190508181036000830152613ed5816137f3565b9050919050565b60006020820190508181036000830152613ef581613859565b9050919050565b60006020820190508181036000830152613f15816138bf565b9050919050565b60006020820190508181036000830152613f35816138ff565b9050919050565b60006020820190508181036000830152613f558161393f565b9050919050565b60006020820190508181036000830152613f75816139a5565b9050919050565b60006020820190508181036000830152613f9581613a0b565b9050919050565b60006020820190508181036000830152613fb581613a4b565b9050919050565b60006020820190508181036000830152613fd581613ab1565b9050919050565b60006020820190508181036000830152613ff581613af1565b9050919050565b6000602082019050818103600083015261401581613b31565b9050919050565b6000602082019050818103600083015261403581613b97565b9050919050565b6000602082019050818103600083015261405581613bfd565b9050919050565b6000610100820190506140726000830184613c3d565b92915050565b600060208201905061408d6000830184613cfd565b92915050565b60006020820190506140a86000830184613d1b565b92915050565b600060a0820190506140c36000830188613d1b565b81810360208301526140d581876136d4565b90506140e46040830186613689565b6140f16060830185613d1b565b6140fe6080830184613d1b565b9695505050505050565b6000604051905081810181811067ffffffffffffffff8211171561412f5761412e6144c8565b5b8060405250919050565b600067ffffffffffffffff821115614154576141536144c8565b5b601f19601f8301169050602081019050919050565b600081519050919050565b600082825260208201905092915050565b6000614190826142fa565b915061419b836142fa565b9250827fffffffffffffffffffffffffffffffffffffffffffffffffffffffffffffffff038211156141d0576141cf61440c565b5b828201905092915050565b60006141e6826142fa565b91506141f1836142fa565b9250826142015761420061443b565b5b828204905092915050565b6000614217826142fa565b9150614222836142fa565b9250817fffffffffffffffffffffffffffffffffffffffffffffffffffffffffffffffff048311821515161561425b5761425a61440c565b5b828202905092915050565b6000614271826142fa565b915061427c836142fa565b92508282101561428f5761428e61440c565b5b828203905092915050565b60006142a5826142cb565b9050919050565b60008115159050919050565b60008190506142c682614508565b919050565b600073ffffffffffffffffffffffffffffffffffffffff82169050919050565b600062ffffff82169050919050565b6000819050919050565b600061430f82614316565b9050919050565b6000614321826142cb565b9050919050565b60006143338261433a565b9050919050565b6000614345826142cb565b9050919050565b6000614357826142b8565b9050919050565b60005b8381101561437c578082015181840152602081019050614361565b8381111561438b576000848401525b50505050565b600060028204905060018216806143a957607f821691505b602082108114156143bd576143bc614499565b5b50919050565b60006143ce826142fa565b91507fffffffffffffffffffffffffffffffffffffffffffffffffffffffffffffffff8214156144015761440061440c565b5b600182019050919050565b7f4e487b7100000000000000000000000000000000000000000000000000000000600052601160045260246000fd5b7f4e487b7100000000000000000000000000000000000000000000000000000000600052601260045260246000fd5b7f4e487b7100000000000000000000000000000000000000000000000000000000600052602160045260246000fd5b7f4e487b7100000000000000000000000000000000000000000000000000000000600052602260045260246000fd5b7f4e487b7100000000000000000000000000000000000000000000000000000000600052604160045260246000fd5b6000601f19601f8301169050919050565b600381106145195761451861446a565b5b50565b6145258161429a565b811461453057600080fd5b50565b61453c816142ac565b811461454757600080fd5b50565b614553816142fa565b811461455e57600080fd5b5056fea264697066735822122048cf9fb95a4a86a2b40e5ceba6441d229edcf50593021c33a2abd94308f2185e64736f6c63430008000033",
  "immutableReferences": {
    "406": [
      {
        "length": 32,
        "start": 5031
      },
      {
        "length": 32,
        "start": 5301
      },
      {
        "length": 32,
        "start": 5571
      },
      {
        "length": 32,
        "start": 8679
      }
    ],
    "412": [
      {
        "length": 32,
        "start": 2791
      },
      {
        "length": 32,
        "start": 2939
      },
      {
        "length": 32,
        "start": 3442
      },
      {
        "length": 32,
        "start": 4327
      },
      {
        "length": 32,
        "start": 4475
      },
      {
        "length": 32,
        "start": 6597
      },
      {
        "length": 32,
        "start": 6743
      },
      {
        "length": 32,
        "start": 7522
      },
      {
        "length": 32,
        "start": 7668
      },
      {
        "length": 32,
        "start": 10296
      },
      {
        "length": 32,
        "start": 11642
      },
      {
        "length": 32,
        "start": 11790
      }
    ]
  },
  "source": "// SPDX-License-Identifier: MIT\npragma solidity ^0.8.0;\n// pargma experimental ABIEncoderV2 no longer necessary from solidity 0.8.0\n\n// LEARNING:\n// - DAO Investment concept\n// - Integration of Uniswap as DEX to trade on\n\nimport \"@uniswap/v3-core/contracts/interfaces/IUniswapV3Factory.sol\";\nimport \"@uniswap/v3-periphery/contracts/interfaces/ISwapRouter.sol\";\n\nimport \"@openzeppelin/contracts/interfaces/IERC20.sol\";\nimport \"@openzeppelin/contracts/token/ERC20/extensions/IERC20Metadata.sol\";\n\n\ninterface IWETH9 {\n    function balanceOf(address account) external view returns (uint256);\n    function deposit() external payable;\n\n    function withdraw(uint256 wad) external;\n}\n\n\ncontract Tradingbot {\n  enum State {\n    IDLE,\n    CONTRIBUTING,\n    TRADING\n  }\n  State public state;\n\n  struct Asset {\n    uint id;\n    string sticker;\n    address tokenAddress;\n    uint lastPrice;\n    uint availableFunds;\n  }\n\n  address public owner;\n\n  mapping(uint => address) public investors; // registered investors\n  mapping(address => uint) public shares; // shares per investor\n  mapping(uint => Asset) public assets; // registered token to  % of Portfolio\n\n  uint public nextInvestorId;\n  uint public nextAssetId;\n  uint public totalShares;\n  uint public minAmount;\n  uint public contributionEnd;\n\n  // allows to call functions from the Uniswap Factory contract\n  IUniswapV3Factory public immutable SwapV3Factory = IUniswapV3Factory(0x1F98431c8aD98523631AE4a59f267346ea31F984);\n\n  // allows to call functions from the Uniswap SwapRouter Interface\n  ISwapRouter public immutable SwapRouter = ISwapRouter(0xE592427A0AEce92De3Edee1F18E0157C05861564);\n\n  // we hardcode the token addresses (in production we would use an input parameter for this)\n  address public constant WETH = 0xc778417E063141139Fce010982780140Aa0cD5Ab; // WETH on Rinkeby Testnet\n  address public constant DAI = 0x5592EC0cfb4dbc12D3aB100b257153436a1f0FEa; // DAI on Rinkeby Testnet\n\n  // UniswapV3 allows 3 different pool fees\n  uint24 public poolFee_1 = 500;\n  uint24 public poolFee_2 = 3000;\n  uint24 public poolFee_3 = 10000;\n\n  // 1a. Define the admin of the investment contract\n  constructor() {\n    owner = msg.sender;\n  }\n\n  // 1b. Seperate initialize() function to reinitialize the contract for trading; not possible if this would be defined in constructor\n  function initialize(uint _minAmount, uint duration) external onlyOwner() {\n    require(state == State.IDLE, \"State must be idle\");\n    minAmount = _minAmount;\n    contributionEnd = block.timestamp + duration;\n\n    state = State.CONTRIBUTING;\n  }\n\n  // 2. DAO concept; anybody can contribute and will be registered as investor\n  function contribute() external payable timeOut() {\n    require(state == State.CONTRIBUTING, \"State must be CONTRIBUTING\");\n    require(msg.value >= minAmount, \"You must contribute the minimum amount\");\n    (bool _success, uint24 _poolFee) = _uniswapV3PoolExists(WETH, DAI);\n    require(_success, \"Pool does not exist\");\n\n    uint256 deadline = block.timestamp + 15; // using 'now' for convenience, for mainnet pass deadline from frontend!\n    address tokenIn = WETH;\n    address tokenOut = DAI;\n    uint24 fee = _poolFee;\n    address recipient = address(this);\n    uint256 amountIn = msg.value;\n    uint256 amountOutMinimum = 1;\n    uint160 sqrtPriceLimitX96 = 0;\n\n    ISwapRouter.ExactInputSingleParams memory params = ISwapRouter.ExactInputSingleParams(\n        tokenIn,\n        tokenOut,\n        fee,\n        recipient,\n        deadline,\n        amountIn,\n        amountOutMinimum,\n        sqrtPriceLimitX96\n    );\n\n\n    uint amountOut = SwapRouter.exactInputSingle{ value: msg.value }(params);\n\n    // an investor can contribute mutiple times; therefore shares neet to be +=;\n    investors[nextInvestorId] = msg.sender;\n    shares[msg.sender] += amountOut;\n    totalShares += amountOut;\n\n    // an address is registered as an investor if it has contributed the min amount once and nextInvestorId will be incremented\n    nextInvestorId ++;\n\n  }\n\n  // 3. As long as state = State.IDLE the owner can cancel the bot and refund the money\n  function cancelTradingbot() external onlyOwner() {\n    require(state == State.CONTRIBUTING, \"Bot has started trading and can not be cancled\");\n\n    _refundInvestors();\n\n    _reset();\n  }\n\n\n  // 4. Initial buy of token to be traded\n  // As long as there are funds of baseCurrency available you can invest in token\n  function initialAssetBuy(address _tokenAddress, uint _value) external onlyOwner() {\n      require(block.timestamp >= contributionEnd, \"Contributtion period not yet passed\");\n      require(getTokenBalance(DAI) > 0, \"No more token of baseCurrency available in this contract\");\n      require(_value > 0, \"Each registered asset must get a value of baseCurrency\");\n      require( _tokenAddress != DAI, \"You can not trade baseCurrency into baseCurrency\");\n\n      (bool _success, uint24 _poolFee) = _uniswapV3PoolExists(DAI, _tokenAddress);\n      require(_success, \"Pool does not exist\");\n\n      uint _amountIn = _value;\n\n      ISwapRouter.ExactInputSingleParams memory params = ISwapRouter.ExactInputSingleParams({\n        tokenIn: DAI,\n        tokenOut: _tokenAddress,\n        fee: _poolFee,\n        recipient: address(this),\n        deadline: block.timestamp + 60,\n        amountIn: _amountIn,\n        amountOutMinimum: 1,\n        sqrtPriceLimitX96: 0\n      });\n\n      // Approve the SwapRouter contract for the amount of DAI\n      // I first made an error to approve this contract - that's wrong, the DAI was already tranfered to this contract in contribute()\n      IERC20(DAI).approve(address(SwapRouter), _amountIn);\n\n      uint _amountOut = SwapRouter.exactInputSingle(params);\n\n      uint _price = uint(_amountIn / _amountOut);\n\n      assets[nextAssetId] = Asset(nextAssetId, getTokenSticker(_tokenAddress), _tokenAddress, _price, 0);\n      nextAssetId ++;\n\n      state = State.TRADING;\n\n  }\n\n  // 5. Sell token depending on predicted price development\n  //\n  function sellToken(uint _assetId, /*uint currentPrice,*/ uint predPrice, uint tuner) external onlyOwner() returns (bool _trade) {\n    require(state == State.TRADING, \"Tradingbot must be started first\");\n    require(getTokenBalance(assets[_assetId].tokenAddress) > 0, \"No token available\");\n\n    (bool _success, uint24 _poolFee) = _uniswapV3PoolExists(assets[_assetId].tokenAddress, DAI);\n    require(_success, \"Pool does not exist\");\n\n    // Check if price predicted in future x hours < (last buy - tuner)\n    if(predPrice < (assets[_assetId].lastPrice - tuner)) {\n\n      uint _amountIn = getTokenBalance(assets[_assetId].tokenAddress);\n\n      ISwapRouter.ExactInputSingleParams memory params = ISwapRouter.ExactInputSingleParams({\n        tokenIn: assets[_assetId].tokenAddress,\n        tokenOut: DAI,\n        fee: _poolFee,\n        recipient: address(this),\n        deadline: block.timestamp + 15,\n        amountIn: _amountIn,\n        amountOutMinimum: 1,\n        sqrtPriceLimitX96: 0\n      });\n\n      // Approve the SwapRouter contract for the amount of token to be traded\n      IERC20(assets[_assetId].tokenAddress).approve(address(SwapRouter), _amountIn);\n\n      uint _amountOut = SwapRouter.exactInputSingle(params);\n\n      //Updates the availableFunds of the asset in DAI\n      assets[_assetId].availableFunds += _amountOut;\n\n      //Calculates the selling price in DAI\n      uint _price = _amountOut /_amountIn;\n\n      assets[_assetId].lastPrice = _price;\n\n      _trade = true;\n\n    }\n  }\n  //\n\n  // 6. Buy token depending on predicted price development\n  function buyToken(uint _assetId, /*uint currentPrice,*/ uint predPrice, uint tuner) external onlyOwner() returns (bool _trade) {\n    require(state == State.TRADING, \"Tradingbot must be started first\");\n    require(assets[_assetId].availableFunds > 0, \"No funds available\");\n\n    (bool _success, uint24 _poolFee) = _uniswapV3PoolExists(DAI, assets[_assetId].tokenAddress);\n    require(_success, \"Pool does not exist\");\n\n    // Check if price predicted in future x hours < (last buy - tuner)\n    if(predPrice > (assets[_assetId].lastPrice + tuner)) {\n\n      uint _amountIn = assets[_assetId].availableFunds;\n\n      ISwapRouter.ExactInputSingleParams memory params = ISwapRouter.ExactInputSingleParams({\n        tokenIn: DAI,\n        tokenOut: assets[_assetId].tokenAddress,\n        fee: _poolFee,\n        recipient: address(this),\n        deadline: block.timestamp + 60,\n        amountIn: _amountIn,\n        amountOutMinimum: 1,\n        sqrtPriceLimitX96: 0\n      });\n\n      // Approve the SwapRouter contract for the amount of token to be traded\n      IERC20(DAI).approve(address(SwapRouter), _amountIn);\n\n      uint _amountOut = SwapRouter.exactInputSingle(params);\n\n      //Updates the availableFunds of the asset in DAI\n      assets[_assetId].availableFunds -= _amountIn;\n\n      //Calculates the buying price in DAI\n      uint _price = _amountIn /_amountOut;\n\n      assets[_assetId].lastPrice = _price;\n\n      _trade = true;\n\n    }\n  }\n  //\n\n  // 7. Liquidate portfolio and return money to investors\n  function liquidatePortfolio () external payable onlyOwner() {\n\n\n    for(uint i; i < nextAssetId; i++) {\n      if(getTokenBalance(assets[i].tokenAddress) > 0) {\n        (bool _success, uint24 _poolFee) = _uniswapV3PoolExists(assets[i].tokenAddress, DAI);\n        require(_success, \"Pool does not exist\");\n\n        uint _amountIn = getTokenBalance(assets[i].tokenAddress);\n\n        ISwapRouter.ExactInputSingleParams memory params = ISwapRouter.ExactInputSingleParams({\n          tokenIn: assets[i].tokenAddress,\n          tokenOut: DAI,\n          fee: _poolFee,\n          recipient: address(this),\n          deadline: block.timestamp + 15,\n          amountIn: _amountIn,\n          amountOutMinimum: 1,\n          sqrtPriceLimitX96: 0\n        });\n\n        // Approve the SwapRouter contract for the amount of token to be traded\n        IERC20(assets[i].tokenAddress).approve(address(SwapRouter), _amountIn);\n\n        SwapRouter.exactInputSingle(params);\n\n        //Updates the availableFunds of the asset in DAI\n        assets[i].availableFunds = 0;\n\n        //Calculates the selling price in DAI\n        uint _price = 0;\n\n        assets[i].lastPrice = _price;\n\n      }\n    }\n\n    _refundInvestors();\n\n    _reset();\n  }\n\n  // 8. Some view functions\n  function getBalance() external view returns(uint) {\n    return address(this).balance;\n  }\n\n  function getTokenBalance(address tokenAddress) public view returns(uint tokenBalance) {\n    tokenBalance = IERC20(tokenAddress).balanceOf(address(this));\n  }\n\n  function getTokenSticker(address tokenAddress) public view returns(string memory _sticker) {\n    _sticker = IERC20Metadata(tokenAddress).symbol();\n  }\n\n  function _uniswapV3PoolExists(address _tokenIn, address _tokenOut) public view returns (bool pool_existence, uint24 _poolFee){\n    if( SwapV3Factory.getPool(_tokenIn, _tokenOut, poolFee_1) != address(0) ){\n        _poolFee = poolFee_1;\n        pool_existence = true;\n    }\n    else if(SwapV3Factory.getPool(_tokenIn, _tokenOut, poolFee_2) != address(0)){\n        _poolFee = poolFee_2;\n        pool_existence = true;\n\n    }\n    else if(SwapV3Factory.getPool(_tokenIn, _tokenOut, poolFee_3) != address(0)){\n        _poolFee = poolFee_3;\n        pool_existence = true;\n\n    }\n\n  }\n\n  // swap DAI to WETH, then iterate over the nextInvestorId and refund the contract balance to the investors in relation to their shares\n  function _refundInvestors() public payable {\n    require(getTokenBalance(DAI) > 0, \"No funds to be redistributed\");\n\n    (bool _success, uint24 _poolFee) = _uniswapV3PoolExists(DAI, WETH);\n    require(_success, \"Pool does not exist\");\n\n    uint _amountIn = getTokenBalance(DAI);\n\n    ISwapRouter.ExactInputSingleParams memory params = ISwapRouter.ExactInputSingleParams({\n      tokenIn: DAI,\n      tokenOut: WETH,\n      fee: _poolFee,\n      recipient: address(this),\n      deadline: block.timestamp + 15,\n      amountIn: _amountIn,\n      amountOutMinimum: 1,\n      sqrtPriceLimitX96: 0\n    });\n\n    // Approve the SwapRouter contract for the amount of DAI\n    // I first made an error to approve this contract - that's wrong, the DAI was already tranfered to this contract in contribute()\n    IERC20(DAI).approve(address(SwapRouter), _amountIn);\n\n    SwapRouter.exactInputSingle(params);\n\n    // Unwrap WETH to ETH and send to this contract\n    uint balanceWETH = IWETH9(WETH).balanceOf(address(this));\n\n    IERC20(WETH).approve(address(this), balanceWETH);\n\n    if (balanceWETH > 0) {\n       IWETH9(WETH).withdraw(balanceWETH);\n    }\n\n\n    // Save value of contract balance and Calculate share for each investor\n    require(address(this).balance > 0, \"No ether available to be redistributed\");\n    uint _totalFunds = address(this).balance;\n\n    for(uint i=0; i < nextInvestorId; i++) {\n      uint _refund = _totalFunds * shares[investors[i]] / totalShares;\n      payable(investors[i]).transfer(_refund);\n    }\n\n\n  }\n\n  function _reset() internal {\n\n    // mappings must be cleaned up one by one; delete key word only works for each entry\n    for(uint i=0; i < nextInvestorId; i++) {\n      delete shares[investors[i]];\n      delete investors[i];\n    }\n\n    for(uint j=0; j < nextAssetId; j++) {\n      delete assets[j];\n    }\n\n    nextInvestorId = 0;\n    nextAssetId = 0;\n    totalShares = 0;\n    // Other state variables minAmount and contributionEnd must be reinitialized in function initialize()\n\n    state = State.IDLE;\n\n  }\n\n\n  modifier onlyOwner() {\n    require(msg.sender == owner, \"Only owner can call this function\");\n    _;\n  }\n\n  modifier timeOut() {\n    require(block.timestamp < contributionEnd, \"Time over\");\n    _;\n  }\n\n}\n",
  "sourcePath": "C:\\Rula01\\01_Lernen\\Udemy\\Projects\\cryptotradingbot_v1\\contracts\\Tradingbot_v2.sol",
  "compiler": {
    "name": "solc",
    "version": "0.8.0+commit.c7dfd78e.Emscripten.clang"
  },
  "schemaVersion": "3.4.3",
  "updatedAt": "2022-01-12T08:36:55.152Z",
  "networkType": "ethereum",
  "devdoc": {
    "kind": "dev",
    "methods": {},
    "version": 1
  },
  "userdoc": {
    "kind": "user",
    "methods": {},
    "version": 1
  }
}